:020000040002F8
:10600000C0AB0020DD630200E5630200E76302002D
:10601000E9630200EB630200ED6302000000000090
:10602000000000000000000000000000EF6302001C
:10603000F163020000000000F3630200F563020058
:10604000F1660200F7630200F16A0200F7630200E2
:10605000F7630200F763020029650200F76302009C
:10606000F7630200F7630200F7630200F7630200C0
:10607000F7630200F7630200F7630200F7630200B0
:10608000F763020049670200F7630200F76302004A
:10609000CD670200F7630200D1670200F7630200D8
:1060A000F7630200F7630200F7630200F763020080
:1060B000F7630200F7630200000000000000000028
:1060C000F7630200F7630200F7630200F763020060
:1060D000F7630200F7630200F763020000000000AC
:1060E00000000000000000000000000000000000B0
:1060F00000000000000000000000000000000000A0
:10610000000000000000000000000000000000008F
:10611000000000000000000000000000000000007F
:10612000000000000000000000000000000000006F
:10613000000000000000000000000000000000005F
:10614000000000000000000000000000000000004F
:10615000000000000000000000000000000000003F
:10616000000000000000000000000000000000002F
:10617000000000000000000000000000000000001F
:10618000000000000000000000000000000000000F
:1061900000000000000000000000000000000000FF
:1061A00000000000000000000000000000000000EF
:1061B00000000000000000000000000000000000DF
:1061C00000000000000000000000000000000000CF
:1061D00000000000000000000000000000000000BF
:1061E00000000000000000000000000000000000AF
:1061F000000000000000000000000000000000009F
:10620000DFF80CD000F052F900480047AD8A0200D8
:10621000C0AB002000B583B002900091019244F21F
:10622000010071466A4600F0D5FD03B000BD0000D4
:1062300030B450E8012F93B2C48923448489A34227
:1062400028BF1B1B0489A34202BFBFF32F8F00206E
:1062500007E0C3EA020340E80134002CE9D14FF023
:1062600001000A6030BC704750E8012FC2EA0242C8
:1062700040E801210029F7D1704730B450E8022FDF
:106280001FFAA2F3C488A34202BFBFF32F8F0020DE
:106290000DE0C48923448489A34228BF1B1BC2EAA2
:1062A000034340E80234002CE8D14FF001000A60BB
:1062B00030BC704750E8022FC2EA224240E8022177
:1062C0000029F7D17047034653E8022FD988B2EB73
:1062D000324F4FF0000017BF92B241EA014142EA4B
:1062E000014104E05A68B2EB324F08BF012043E895
:1062F0000212002AE8D1704730B4044654E8000F77
:106300000D4644E80053002BF8D1156030BC7047AF
:1063100030B4044654E8000F40EA010544E8005355
:10632000002BF7D1156030BC704730B4044654E8F8
:10633000000F00EA010544E80053002BF7D1156077
:1063400030BC704730B4044654E8000F80EA0105C1
:1063500044E80053002BF7D1156030BC704730B4CF
:10636000044654E8000F00EB010544E80053002BFD
:10637000F7D1156030BC704730B4044654E8000FC4
:10638000A0EB010544E80053002BF7D1156030BCA9
:10639000704770B404464FF0000054E8006F0D6879
:1063A000AE4207BF44E80023012044E800630E60CA
:1063B000002B1CBF0020F0E770BC704730B40446CF
:1063C00054E8000F88422CBF451A054644E80053A4
:1063D000002BF5D1156030BC70470000064880479F
:1063E00006480047FEE7FEE7FEE7FEE7FEE7FEE7BA
:1063F000FEE7FEE7FEE7FEE7D56702000162020066
:10640000202A04DB203A00FA02F100207047914074
:10641000C2F1200320FA03F31943904070470000B3
:106420000048704710C3020040EA01039B0703D0F5
:1064300009E008C9121F08C0042AFAD203E011F8C3
:10644000013B00F8013B521EF9D27047D2B201E085
:1064500000F8012B491EFBD270470022F6E710B569
:1064600013460A4604461946FFF7F0FF204610BDC2
:10647000421C10F8011B0029FBD1801A704730B56F
:1064800004460020034600E05B1C934203D2E05C1C
:10649000CD5C401BF8D030BD034611F8012B00F84D
:1064A000012B002AF9D1184670470000064C074D11
:1064B00006E0E06840F0010394E8070098471034D4
:1064C000AC42F6D3FFF7A0FEC4CA0200E4CA020041
:1064D00070B58C1810F8015B15F0070301D110F8A6
:1064E000013B2A1106D110F8012B03E010F8016BD3
:1064F00001F8016B5B1EF9D12B0705D40023521E56
:106500000DD401F8013BFAE710F8013BCB1A921CBD
:1065100003E013F8015B01F8015B521EF9D5A142BB
:10652000D8D3002070BD00002DE9F04700268AB0C6
:10653000DFF85091B0464FF4807501243746069637
:10654000284602F0E9FF38B1D9F80403204203D00D
:10655000284602F0D7FF26432D1D64007F1CADB2F4
:10656000082FEDD34FF4BE74204602F0D5FF48B19A
:10657000204602F0C7FF46F0004606AA012100208F
:1065800002F0ACFF404D16F0FF0F15D0012700249C
:1065900037420DD009EB8401D1F81005D1F8101560
:1065A000C0F3042055F82420C1F3014102B1904703
:1065B0007F00641C082CEBD3002E5FDA4FF0FF3015
:1065C000CDF8108054E0281910F8507F90F90000A1
:1065D00027F0C008401C3BD007A9404602F00CFC45
:1065E00010B34FEA9719404601F0A2FC55F820700D
:1065F0001FB1B9F1030F03D006E0B9F1030F27D1A2
:1066000004A9404602F000FC4FF0A04101EB8800D5
:10661000D0F8000706A9C0F3014A404602F0ECFB9F
:1066200018B1BAF1020F03D012E0BAF1030F0FD183
:10663000B9F1030F08D1BAF1020F1DD00221404673
:1066400002F030FF761CF6B217B149464046B84713
:10665000641C042CB7D3002E10D06A460121002000
:1066600002F03CFF06990098884207D006900498F3
:10667000002634460790A6E70321E0E70AB0BDE80C
:10668000F0870000006000404481002000F01F02FD
:10669000012191404009800000F1E020C0F8801203
:1066A000704700F01F02012191404009800000F175
:1066B000E020C0F80011704700F01F020121914056
:1066C0004009800000F1E020C0F80012704749073F
:1066D000090E002806DA00F00F0000F1E02080F833
:1066E000141D704700F1E02080F80014704700008E
:1066F00070B54FF48076304602F05AFC114CB50567
:1067000060B1304602F05BFC0120C5F808036079F7
:1067100020B9012060712168002088474FF48276FB
:10672000304602F045FC00280AD0304602F047FC13
:106730000220C5F808032168BDE870400120084721
:1067400070BD00003C78002007480021C0F84011CF
:10675000C0F84411C0F84811C0F84C11C0F800113D
:10676000C0F8041105F038B80010014000F0C6B9B7
:1067700070B50E46144900EB400001EBC00514460D
:10678000E86A183520B101280FD0022805D113E09E
:10679000284600F0E7F9A04201D2002411E0224689
:1067A0003146284600F016FA0BE0284600F0DAF9E8
:1067B000A042F4D20446F2E73146284600F0DDF963
:1067C0000446204670BD00003889002004F052BF06
:1067D00003F056BCF0B5B5480023021D0178101D2A
:1067E00001254FF0805406290BD11678360708D1C1
:1067F0000678C6F30316032E06D0042E04D0052E09
:1068000002D0062907D00EE0B4F82463A84FC6F3DF
:1068100004263E6002E01678360704D10678C6F3F7
:106820000316032E02D0062904D00FE0A24FA14E7A
:106830007E670EE01678360708D10678C6F3031691
:10684000032E06D0042E04D0052E02D0062907D030
:106850000EE0D4F84462994FC6F342363E6002E03F
:106860001678360704D10678C6F30316032E02D035
:10687000062906D011E0924E376827F080773760FE
:106880000EE01678360708D10678C6F30316032EF5
:1068900006D0042E04D0052E02D006290AD011E01D
:1068A0004FF08046C6F80C31C6F81031834E361FC3
:1068B000336002E01678360704D10678C6F3031673
:1068C000032E02D0062905D00CE07C4F0326643746
:1068D0003E600AE01678360704D10678C6F3031640
:1068E000032E02D006290DD014E0764F05263E6017
:1068F000744E78363560734E083633603F263F1D40
:106900003E6002E01678360704D10678C6F3031617
:10691000052E02D0062957D062E06B4E36686B4FC9
:106920003E60694E361D36683F1D3E60664E083635
:1069300036683F1D3E60644E0C3636683F1D3E6033
:10694000614E103636683F1D3E605F4E1436366825
:106950003F1D3E605C4E183636685C4F20373E6007
:10696000594E1C3636683F1D3E60574E20363668FD
:106970003F1D3E60544E243636683F1D3E60524EE9
:10698000283636683F1D3E604F4E2C3636683F1D18
:106990003E604D4E303636684C4F40373E604A4E72
:1069A000343636683F1D3E60474E383636683F1DE8
:1069B0003E60454E3C3636683F1D3E60424E403696
:1069C00036683F1D3E6002E01678360708D106782B
:1069D000C6F30316032E06D0042E04D0052E02D0D3
:1069E000062907D019E0D4F85812394A01F04F01AE
:1069F000116002E0117809070FD10078C0F303108D
:106A0000032803D0042801D0052806D131480168A5
:106A1000C90702D06FF001010160D4F830010628E7
:106A200008D1D4F83401062804D12B48016841F478
:106A30008061016022487438016841F4700101608E
:106A4000BFF34F8FBFF36F8F4FF01021D1F80002CB
:106A5000002803DBD1F80402002822DA1F4A15605F
:106A60001F480468002CFCD01524C1F800420568BA
:106A7000002DFCD0C1F8044201680029FCD013604D
:106A800001680029FCD0BFF34F8F0D48F038016832
:106A9000144A01F4E06111430160BFF34F8F00BF5E
:106AA000FDE7124910480860F0BD0000E00F00F05B
:106AB000403501400DF0ADBA00C007403C05004034
:106AC000FCED00E0105600400404001020C500401A
:106AD000E40E0040000400403C17004004E5014083
:106AE00000E401400400FA050090D0032C79002056
:106AF00001480068004700004478002010B5124C9F
:106B000002202061606111A0A06104F17800E061C1
:106B10004FF4007020620020A06260620BA1A164AB
:106B2000E06204F51E71E1641021A065C4E914104F
:106B3000E06509A1E01DFFF7AFFC08A12046FFF7C3
:106B4000ABFC2020A07110BD388900205465726D07
:106B5000696E616C00000000525454005345474771
:106B6000455200000269C1688A4203D88068401A11
:106B7000104400E0501A401E70472DE9F047C468E9
:106B80001746894606464FF000083069A04201D9F1
:106B9000051B02E0B168201A0D1AB0686D1E001BBB
:106BA000A84200D80546BD4200D33D4670682A463B
:106BB00020444946FFF738FCB0687F1B2C44A844AA
:106BC000A944A04200D10024F460002FDDD140464A
:106BD000BDE8F0872DE9F04104468846D4E9020774
:106BE000C51BE168606816460844B54206D94146AF
:106BF000FFF71AFCB819E060BDE8F0812A4641466B
:106C0000FFF712FC761B08EB050132466068FFF7C0
:106C10000BFCE660F0E70000014A024900F031B8E1
:106C20008B860200A878002002E008C8121F08C165
:106C3000002AFAD170477047002001E001C1121FFD
:106C4000002AFBD1704700000121202803DA81408F
:106C50000548014003E0402802DA2038814009B1AC
:106C60000120704700207047FC06FFBD082806D2AF
:106C700028B1012803D0042801D00120704700204A
:106C800070472DE9F04116460F460446002503E003
:106C90003946B047641C6D1C20780028F8D128467E
:106CA000BDE8F08131B500252C462146684602F04A
:106CB00014F800B16D1C641C142CF6D3284638BDA2
:106CC00010B501220221002001F036F808B1072892
:106CD00018D107220221012001F02EF808B107285F
:106CE00010D100210A22084601F026F808B1072831
:106CF00008D10B220121002001F01EF808B107285D
:106D000000D1002010BD000070B50024084D05E042
:106D1000686810F8340003F0BFFA641C28788442D5
:106D2000F6D304484068BDE8704000F0E9B90000BF
:106D30005078002018C0020070B50024064D06E00F
:106D40006868012110F8340003F0CAFA641C28783E
:106D50008442F5D3002070BD50780020F8B5154668
:106D60000C460646052A01D20720F8BD03F0B4FB05
:106D700018B903F079FB0028F7D1124900224E60C0
:106D80000C708D60C1E90422C1E906220E4D0DE0B0
:106D900006EBC4002968009181788DF80110007815
:106DA0000A4A694603F0EEFA0028DED1641EE4B216
:106DB000EED2BDE8F84004480021054A001D00F06D
:106DC0001DB900005078002018C00200998602000A
:106DD000118202002DE9FE4314460F46804672B62A
:106DE00002F038FE02F062FC0028FBD10125274E9C
:106DF000B8F1010F28D06FF4805118EB010028D0B2
:106E0000B0F5405F2CD06FF44051C84208D13088B3
:106E1000238805EB00401EA1626802F062FD06E0D7
:106E200030883A4605EB004020A102F053FD25488A
:106E30000068C00700D000BE224603B03946404675
:106E4000BDE8F04300F080B830881FA105EB00409A
:106E500003E0308824A105EB004002F037FDE6E7AF
:106E6000A06803F0B7F90346D4E90001CDE90010AA
:106E70000297308825A105EB0040A26802F042FD90
:106E800030882CA105EB0040E7E700006479002082
:106E9000415353455254494F4E204641494C454475
:106EA0002061742025733A2575000000554E4B4E25
:106EB0004F574E204641554C542061742030782560
:106EC00030385800F0ED00E0534F465444455649E1
:106ED00043453A20415353455254494F4E20464171
:106EE000494C454400000000534F46544445564920
:106EF00043453A20494E56414C4944204D454D4F5B
:106F00005259204143434553530000004552524FCC
:106F100052202575205B25735D2061742025733A0E
:106F200025750D0A50432061743A20307825303899
:106F300078000000456E64206F66206572726F7283
:106F4000207265706F72740008B501238DF80030EF
:106F50009DF80030144B186059609A606FF48041BE
:106F6000401807D001280FD1DA60D86800889861EE
:106F7000D86807E01A611869806858611869006864
:106F8000986118694068D861186858689868D86826
:106F9000186958699869D86972B600BF9DF80000F1
:106FA0000028FBD162B608BD1082002010B58268AF
:106FB000C368934203D001F055FB002010BD0520AB
:106FC00010BD29B112B1531E134203D009207047DE
:106FD0000E2070470160838000218160C1600846F7
:106FE000704710B58268C3689A1A83889A4203D89A
:106FF00001F042FB002010BD042010BD084B9B781F
:1070000023B12AB120B10068037C1BB1082070476E
:10701000072070470023037441744261184670478B
:107020003082002070B504F0EDF8104800240B21E8
:10703000047044700E4D817014206C602C706C7064
:10704000FFF724FB07211420FFF741FB1420FFF773
:1070500028FB0848046007211120FFF738FB05488A
:10706000001F0068A860002070BD00003082002072
:1070700070780020081501402DE9FC47DFF8789072
:1070800099F8023073B368B3052902D20720BDE82E
:10709000FC87436933B3437C012B25D0002704468A
:1070A0000025884616468DF80050684600F0EEF838
:1070B00001A804F01FFFC8B1012101700F4944600D
:1070C0000968C0E90218C0E904769DF8040089F84F
:1070D00001009DF8000000F0FDF81420FFF7ECFA25
:1070E0002846D4E70820D2E70F46D8E704259DF8C4
:1070F000000000F0EFF8F3E73082002004150140B3
:107100000649897839B130B1416921B10021017452
:10711000022104F03DBB08207047000030820020AF
:1071200070B50B4E01460B48B578FFF73FFF04469C
:107130005DB10020B070711C0122C81D01F0B0FFCC
:1071400018B105A2CE21FFF765F8204670BD0000FA
:10715000AC780020F48300202E2E5C2E2E5C2E2E88
:107160005C2E2E5C2E2E5C2E2E5C636F6D706F6E0F
:10717000656E74735C6C69627261726965735C756B
:107180006172745C6170705F756172745F6669666C
:107190006F2E6300F0B5244E89B01F460D000446E3
:1071A00072603FD0A888296882B22048FFF709FFA3
:1071B000002835D1A889A96882B21C481030FFF791
:1071C00000FF00282CD1202219496846FFF72CF92E
:1071D00060690690207C00B101208DF814008DF8C4
:1071E0001C70607C00B10E208DF81500E0680290E4
:1071F000A068039020680190606800900A480D4ADA
:107200006946083001F018FF002809D1B0702068E5
:10721000401C05D004490122491CC81D01F040FF53
:1072200009B0F0BD0720FBE7AC780020F483002014
:10723000A8C1020025BB020010B501461048FFF7A7
:10724000D0FE040019D10F480F4A0178515C19B1E2
:10725000001D03F0C3FB02E00C3003F0A7FA60B995
:10726000084907480839FFF7A1FE30B9054901224E
:107270000839044801F024FF0446204610BD0000F0
:1072800004840020B47800203078002030B5EFF37B
:10729000108172B60D4A9468012324B1037000294D
:1072A00000D162B630BD93604FF0E023D3F8805137
:1072B000074C25401560C3F88041D3F884415460E1
:1072C0005A17C3F8842100220270E8E73C830020AB
:1072D000FC06FFBD0B498A68002A11D000280FD197
:1072E000EFF3108072B60B684FF0E022C2F8003165
:1072F0004B68C2F8043100228A60002800D162B6CF
:10730000704700003C8300202DE9F04106460868E4
:107310000C46411C4FF0A0474FF0010506D005FA7E
:1073200000F1C7F80815206802F0A8F86068411C51
:1073300002D0002102F090F83168A069C1F824055C
:10734000607D227D31681043C1F86C05D4E90012DC
:107350003068C0F81425C0F80C15207D012815D11F
:10736000A068411C02D0002102F076F8E068411CC0
:1073700005D08540C7F80855E06802F07FF8D4E9E9
:1073800002123068C0F80825C0F81015BDE8F08179
:107390002DE9F041064608680C46411C4FF0A04715
:1073A0004FF0010506D005FA00F1C7F8081520686E
:1073B00002F06EF86068411C02D0002102F055F81E
:1073C0003168A069C1F82405607D217D32680843D9
:1073D000C2F86C05D4E900123068C0F80C15C0F88A
:1073E0001425207D012815D1A068411C02D0002160
:1073F00002F03BF8E068411C05D08540C7F808550D
:10740000E06802F045F8D4E902123068C0F80825B7
:10741000C0F81015BDE8F08178210148FFF71DB8CC
:10742000007D0020F8B506464FF000001500ADF8CD
:10743000000015D009236A46304600F015F80446CE
:10744000BDF80000064458B154B12846FFF710F8C3
:10745000A04205D1224631462846FFF710F808B170
:107460000020F8BD0120F8BD70B588B182B10024BC
:10747000158803E0065D641C3444A4B2A54203D819
:10748000061976789E4201D08C42F3D38C4201D308
:10749000002070BDA11C1180005D401E80B270BD37
:1074A000054808B5C16800918168684601F036FC5E
:1074B0000098FFF7F7FB08BD007D0020FFF7ACBF89
:1074C00070B540B10C4D297839B1044603F07EFE09
:1074D00028B1002070BD0E2070BD082070BDE86886
:1074E000062807D20549226801EB8001401C0A608A
:1074F000E860EEE7042070BD18780020787D002059
:1075000040B1054900220123CA600B70C1E90102A4
:10751000104670470E2070471878002070B50400A0
:107520002DD000292BD020480078002827D0208893
:107530000D46112815D0302804D0322807D0332822
:107540001ED109E0211D284603F0E4FC18E0211DAE
:10755000284603F03BFB13E0211D284603F010FCF6
:107560000EE0A088B5F8CA12884209D1002085F83B
:10757000C70285F8C8024FF6FF70A5F8CA0270BDB1
:1075800095F8C8020028FAD020883028F7D34F2871
:10759000F5D8A088B5F8CA128842F0D12846BDE8CF
:1075A000704000F0E7BE00001878002048B1084A9B
:1075B000137843B1D26832B190F8C7222AB11120B2
:1075C00070470E2070470820704700F0D3BE0000BF
:1075D00018780020F8B50188041D0025654E1F2984
:1075E0007DD012DC64484FF003021029008802EBC2
:1075F00000401ED0112973D01B2972D01D2970D1D3
:10760000201DBDE8F84003F0F7B921296AD03B29D5
:1076100069D0562965D18088132176DF218800281A
:1076200075545ED055A240F23921BDE8F840FEF70E
:10763000F1BD228855A102F04DF92088042805D318
:107640004EA24FF4DC710020FEF7E4FD21885C4D72
:10765000002205EB011000F0DDF9464A183A5169A5
:10766000032902D827880123F35531B101290CD011
:1076700002290CD003290CD010E02388514905EBD6
:10768000031399602178117008E04F4902E04F49D7
:1076900000E04F49228805EB0212916020B137A229
:1076A0004FF4E971FEF7B6FD2188324AB320484312
:1076B0000C3202EB8000FFF779FF112805D020B1D2
:1076C0002EA24FF4EC71FEF7A5FD012000F022FB85
:1076D000FFF7E6FE04284FF000000BD004E029E09D
:1076E0000CE03BE02FE03AE000F014FBBDE8F8408E
:1076F00003F0E6BDBDE8F84000F004BB2379228822
:1077000034A102F0EEF820883554FFF7C9FE50B9D5
:10771000FFF7FAFA20B119A24FF4FC71FEF77AFDD7
:10772000012000F0EFFA03F0CBFDBDE8F8400020A7
:1077300000F0F0BA2088211D75DF00280ED00FA2BE
:1077400040F2192171E70095808869468FDF002893
:1077500004D00AA240F22521FEF75CFDF8BD808826
:10776000132176DF218800287554F7D003A240F258
:107770002F215AE7B06C0020647900202E2E5C2E59
:107780002E5C2E2E5C6D61696E2E6300436F6E6EF3
:10779000656374696F6E2030782578206573746135
:1077A000626C69736865642C207374617274696EAD
:1077B0006720444220646973636F766572792E0096
:1077C000947C002025840200B984020029850200EF
:1077D0009D8502004C42532063656E7472616C207B
:1077E0006C696E6B203078257820646973636F6EE6
:1077F0006E65637465642028726561736F6E3A20EC
:10780000307825782900000010B51A4C018860688E
:1078100010290ED011292BD1401E606028D1FFF70E
:107820004FFA002824D02168002921D0BDE810405B
:107830000847D0B900210122084600F07DFA08B1BE
:1078400007280FD107220221012000F075FA08B1A4
:10785000072807D104220221002000F06DFA20B190
:10786000072802D0216801B188476068401C606029
:1078700010BD0000107800202DE9F04F07468588E4
:1078800002883E48012197B08346102A09D0112A68
:107890004BD01A2A6ED1387AB1EB101F47D2012291
:1078A00046E0364C083CA068C0430B9061680BA8CA
:1078B00001F034FA0B990CA800F0DCFB2C220CA987
:1078C0006846FEF7B1FD0026E946A04610E000BF7D
:1078D00009EB46005FF00004B0F804A008EB840058
:1078E0005146001D01F0EEF9641C1D2CF6D3761CE8
:1078F0000098B042ECD8142D07D317B0E321BDE8AF
:10790000F04F1FA20420FEF785BC2946584601F01F
:10791000EFF9294608F1040001F0EAF9F87B0128A3
:1079200028D016482946001D15E029461AE00022F5
:107930000221B1EB101F01D2012600E000260F4901
:10794000083901F11000041D294682B101F0D0F977
:1079500036B12946204617B0BDE8F04F01F0C8B94E
:107960002946204617B0BDE8F04F01F0ABB901F051
:10797000A9F9F5E717B0BDE8F08F0000087D0020F9
:107980002E2E5C2E2E5C2E2E5C2E2E5C2E2E5C2E31
:107990002E5C636F6D706F6E656E74735C626C6588
:1079A0005C636F6D6D6F6E5C626C655F636F6E6E56
:1079B0005F73746174652E630000000070B518B3C6
:1079C0000288A2F57F41FF391CD0104C4388104D2E
:1079D000206800EB8001401C00F00700206005EBF0
:1079E000810102204B81C881081D086100248C811F
:1079F0000120087208714C710A80887003F026FF1C
:107A0000204670BD082070BD0E2070BD2878002073
:107A10009080002040B1018022B11168C0F80210AE
:107A20009188C180002070470E20704730B5134DFB
:107A3000040085B02DCD8DE82D001DD0E1B1086882
:107A4000D0B100206080A080E0804FF6FF702080E1
:107A50000868A06004F10C01684662DF002809D1C3
:107A6000207B8DF8120041F22350ADF8100004A8DD
:107A7000FFF726FD05B030BD0E20FBE7F0BF02008A
:107A800000B585B0002924D0002822D00288112A10
:107A90002AD0382A1FD0392A1BD10A460988838860
:107AA000994216D141899388994212D102218DF8C9
:107AB00000101188ADF80210017C8DF8041000F15F
:107AC00010010391C089ADF8100093686946104613
:107AD000984705B000BD098880888142F9D105B07A
:107AE0005DF804EB03F0B2BE0A8880888242F0D1D0
:107AF0004FF6FF700880002048808880C880E8E743
:107B0000FEB515460E4604000BD013480321F42D94
:107B1000008801EB004006D910A101F0D7FE072034
:107B2000FEBD0E20FEBD2188A1F57F42FF3A10D098
:107B30000FA101F0CBFE124807C88DE80700E088CE
:107B4000ADF80200ADF80650029620886946A3DF22
:107B5000FEBD0820FEBD000038790020436F6E7422
:107B6000656E7420746F6F206C6F6E672E0000005E
:107B700077726974696E672074696D652E00000004
:107B800000C0020070B518B30288A2F57F43FF3B26
:107B90001CD0104C104D236803EB83025B1C03F0D8
:107BA0000703236005EB8202C38853810123D3813D
:107BB000141D146100249481022414721171008830
:107BC0001080937003F042FE002070BD082070BD4D
:107BD0000E2070BD287800209080002010B50A7813
:107BE00086B0002A3FD18A88A2F5A853233B3AD118
:107BF0008A79037B9A4236D101228DF800204A8887
:107C0000ADF80220002217E002EBC20301EB4303B0
:107C100033F80E4F04F6DC24B4F5005405D0012CE3
:107C200009D11B89ADF8083005E01C89ADF8064084
:107C30005B89ADF80430521C0B7A9342E4D801887A
:107C4000A1F57F42FF3A0BD0C18849B9818839B983
:107C5000418829B90199C0F80210BDF80810C18007
:107C600082686946904706B010BD000008B502F072
:107C7000CBF920B10D4A4FF41771FEF7CBFA002073
:107C800000906946012001F0FFFF20B1074A40F251
:107C90006221FEF7BFFA684602F0A2F8002804D07D
:107CA000024A40F26621FEF7B5FA08BDA88B020031
:107CB0002DE9FC410646C0074FF000050ED0104FDD
:107CC00000240122385D009500231146019501F042
:107CD0007BFB641C042CF4D300F024F8B0070DD512
:107CE000074E0024361D0022305D03230095114607
:107CF000019501F069FB641C042CF4D3BDE8FC8100
:107D000054BF02000249085C012101F0DCBB000005
:107D100054BF02000249085C002101F0D4BB0000FE
:107D200054BF020010B500242046FFF7EBFF641C8F
:107D3000042CF9D310BD000070B50023042810D224
:107D40000D4D00EB4004012A02D101290CD0002284
:107D5000094E00EB4000304461B1012906D00229F0
:107D600006D00723184670BD0E30C2B22A55F9E777
:107D70004270F7E78270F5E7F37C00202DE9F843C5
:107D80000546861C00208DF8000090460F464FF0F7
:107D900001096846FFF77AFA1B4C20683860D4E97D
:107DA0000001401AA16804F21C47081A0EE00121E4
:107DB000384600F0ADFF00F02BFE0146384600F0DB
:107DC000A7FFD4E90001401AA168081A401C8642A6
:107DD000EDD8B8F1000F03D0052065F3891002E05B
:107DE000062065F39F50A2682168114004EB8101D1
:107DF000C8602068304420609DF80000FFF76AFAF0
:107E00004846BDE8F88300001485002030B482683D
:107E10000468531C8360A154D0E901128A4202D342
:107E200030BC01F06AB930BC70470000034803C899
:107E3000814201D101207047002070471485002045
:107E400070B5114D03260C460D2808D00E280FD012
:107E5000BDE870400DA240F2B221FEF7DBB9084642
:107E600000F03EFD2888224606EB00400BA107E00B
:107E7000084600F035FD2888224606EB00400DA19B
:107E8000BDE8704001F026BD647900202E2E5C2EE6
:107E90002E5C2E2E5C6D61696E2E63004C42532069
:107EA0007772697465204C45442073746174652051
:107EB000256400004C4253207772697465204C455C
:107EC00044322073746174652025640005494FF0C5
:107ED000FF32082841F8202002D3084480F84820C7
:107EE0007047000044810020F0B54FF0FF3512B11B
:107EF0000023082601E008230C260C4C05E000BFF7
:107F000054F823707F1C04D05B1CB342F8D328467E
:107F1000F0BD26185DB286F8305044F82310002AD0
:107F2000F5D1E11881F84800F1E700004481002014
:107F30000249084490F93000704700004481002055
:107F400008B5024690F8C6020B4600EB8001C1EB73
:107F5000801002EB400092F8C52242B1521ED2B20C
:107F600002EBC20100EB4102518A491C00E0C188CA
:107F7000ADF800100089ADF80200694618469DDF93
:107F800008BD000070B5084C050009D01034216808
:107F9000002907D008682060496828468847F6E726
:107FA0000834F4E770BD000030810020054A01214B
:107FB00020B1012805D19170FFF7E4BF5170002076
:107FC000FAE77047308100202DE9F05F26484168CC
:107FD000F1B3DFF898B00E688146DBF8004087689F
:107FE0008078E11B21F07F45ED1CB0B9DFF880807F
:107FF0004FF48030C8F84403C8F804031120FEF79A
:1080000045FB1120FEF74DFB4FF0010AC8F800A018
:108010002F2002F039F989F802A0B54200D2354686
:10802000124BE8193C3320F07F401860DBF8001059
:108030005A46091B21F07F41001B20F07F40C91CDC
:1080400081420FD9106818602F2002F01DF900E05E
:1080500004E0BDE8F05F1120FEF72EBBBDE8F05F45
:1080600003F0D0B8BDE8F09F7078002004150140FF
:108070000010014073B58CB00646002000900D98AA
:1080800080B100246D4621460DA800F026FE30B1D7
:10809000009805EB400084800098401C0090641C10
:1080A000142CF0D32C2269463046FEF7BDF90EB0F1
:1080B00070BD0000F0B587B0074600200490ADF811
:1080C00010100590ADF812100190029001AA04A9B9
:1080D000384690DF060022D002F07CF8114C0346AF
:1080E000012520883A4605EB00400F4901F0F9FBD5
:1080F000BDF8042012B9BDF8060038B12088BDF8DB
:10810000063005EB004009A101F0EBFBBDF80820AB
:108110002AB12088154905EB004001F0DBFB07B0D0
:108120003046F0BD3479002044C302005468652015
:108130007265717565737465642054582F525820A8
:108140007061636B6574206C656E67746820697319
:1081500020746F6F206C6F6E672062792025752FF9
:108160002575206F63746574732E000090C3020040
:108170004188034A02EB011201461046FFF72EBD6B
:10818000947C00202DE9F843054690F8C6020F467E
:1081900000EB8001C1EB801005EB400695F8C5426D
:1081A000914604EBC40006EB40013279601C0A31B1
:1081B000904226D16B460022284600F069FB18B396
:1081C00010E0401EA04201D1002004E004EBC400F6
:1081D00006EB40001C30804602466B46284600F005
:1081E00057FB30B100203870694648469EDFBDE835
:1081F000F88395F8C5024146401C641C85F8C50209
:10820000E4B23079A042DCD8012038700020EEE7DB
:108210002DE9F0470025DFF88C803CE06068002104
:1082200000EBC506012032789146FEF7E9F8D4E963
:10823000062300EA020701EA030C57EA0C0728D0DC
:1082400082438B434846C4E9062302F003F932789F
:108250008246914601200021FEF7D2F8D4E904239A
:1082600000EA020401EA03074A4650460021FEF7ED
:10827000C7F844404F403C430BD17078012801D0EF
:10828000012100E00021726881EA0A010AB1484632
:1082900090476D1CEDB298F8000044468542BDD36E
:1082A000BDE8F087507800202DE9F047894690F826
:1082B000C612904601EB8102C2EB811100EB41072F
:1082C000384602F083FF06002FD0194CA06806281C
:1082D0002BD2184D762205EBC0103946A0F802804B
:1082E000001DFEF7A1F80027B9F1000F04D0A06827
:1082F00005EBC010077004E0A168022005EBC11176
:108300000870A06805EBC011401CCE67A060E16852
:1083100088420AD1002604E005EBC610C16F8847E9
:10832000761CE0688642F7D3A760BDE8F0870000BE
:1083300018780020907D002070B50E4690F8C61287
:10834000154601EB8102C2EB8111A0B000EB4100A8
:1083500002F03CFF040009D07C2205496846FEF784
:1083600063F8ADF8025068460196A04720B070BD92
:108370005CBF020070B50E4604464FF43371FEF741
:108380006CF811480025A4F8CA62856084F8C952C7
:108390000E4884F8C65284F8C55200682060224610
:1083A000012130469BDF0121112806D0002809D188
:1083B00084F8C71284F8C85203E084F8C71284F81E
:1083C000C812002070BD000018780020787D0020C1
:1083D00010B50021024800F0ACFC80F3100010BD85
:1083E000308900200E4910B50A784C780023A2424B
:1083F00012D0521CD2B20A70022A00D10B70084A65
:108400000B780C3252F8232002608868104420F068
:108410007F408860012010BD0360002010BD000077
:108420007078002070B5054608780C4601280FD0FA
:1084300002282FD1208A0C281CD08820FEF7FCFEB1
:108440008820FEF7F9FE0020FEF7F6FE002527E063
:10845000FEF772FC18B114A2CF21FDF7DBFE28460F
:10846000FFF7ACFA002815D0BDE870400EA2D2216B
:10847000FDF7D0BEFF20FEF7DFFE8820FEF7DCFE12
:10848000002504E0E068405DFEF7D6FE6D1C208A02
:10849000A842F7DC70BDE068405DFEF7CDFE6D1CC4
:1084A000208AA842F7DC70BD2E2E5C2E2E5C2E2E6C
:1084B0005C6D61696E2E630070B5044608780D46E8
:1084C000012809D0022826D14120FEF7B5FE31202F
:1084D000FEF7B2FE002416E0FEF72EFC18B10EA245
:1084E000F821FDF797FE2046FFF768FA002812D022
:1084F000BDE8704008A2FC21FDF78CBEE868005D75
:10850000FEF79AFE641C288AA042F7DCBDE87040A2
:108510000A20FEF791BE70BD2E2E5C2E2E5C2E2EF4
:108520005C6D61696E2E630070B5044608780D4677
:10853000012809D0022828D14120FEF77DFE3220F3
:10854000FEF77AFE002418E0FEF7F6FB20B10FA23A
:1085500040F21511FDF75EFE2046FFF72FFA0028C6
:1085600013D0BDE8704009A240F21911FDF752BEC8
:10857000E868005DFEF760FE641C288AA042F7DC14
:10858000BDE870400A20FEF757BE70BD2E2E5C2E4F
:108590002E5C2E2E5C6D61696E2E630070B50446F4
:1085A00008780D46012809D0022828D14120FEF77D
:1085B00043FE3320FEF740FE002418E0FEF7BCFB2C
:1085C00020B10FA240F23311FDF724FE2046FFF741
:1085D000F5F9002813D0BDE8704009A240F2371128
:1085E000FDF718BEE868005DFEF726FE641C288AC9
:1085F000A042F7DCBDE870400A20FEF71DBE70BD4A
:108600002E2E5C2E2E5C2E2E5C6D61696E2E63000C
:1086100030B50446006887B00D46806800281FD03A
:1086200018216846FDF719FF0195A068059020798B
:1086300010B1012810D107E001208DF80000206959
:108640000290E068039005E002208DF80000E068E9
:10865000000302906069049020688168684688473A
:1086600007B030BD826883881A4003689A5C0A703C
:108670008168491C81607047C26883881A4003681A
:108680009954C168491CC160704710B50446C0B216
:10869000FEF7D2FD204610BD2DE9F041804602468E
:1086A00001200021FDF7ACFE1A4F05460E46786802
:1086B000FEF726FD00280CD1174CD4E90621104600
:1086C0002A4001EA06031A4305D0A843B143C4E98E
:1086D0000601BDE8F081404601F0BCFE30B1D4E9AE
:1086E000040128433143C4E9040105E0D4E904103E
:1086F000A943B043C4E90410D4E906012843314337
:10870000C4E90601A1687868BDE8F0410022FEF7DF
:10871000B3BC000018C00200507800202DE9FC5FB7
:108720000E008346DDE90C47C6F1000098469246EC
:10873000814600D40846012503E000BF90FBFAF013
:108740006D1C5045FADAA84500D9454624B1002EE3
:1087500001DB780700D5641EB80702D5B8F1000F19
:108760000AD0F80708D13CB1A54205D220215846CD
:10877000641EFFF74BFBF6E7002E02DA4E462D2172
:1087800002E0780703D52B215846FFF73FFB07F09F
:10879000030002280BD1B8F1000F08D13CB1A5426B
:1087A00005D230215846641EFFF730FBF6E7CDE9CD
:1087B0000047434652463146584603F041FBBDE868
:1087C000FC9F000070B50D46044600684FF48871A8
:1087D00001F020FD4FF49071206801F01BFD4FF473
:1087E0009271206801F016FD4FF4A271206801F02B
:1087F00011FD20681249C0F8041320686907000BB6
:1088000040B2090E002806DA00F00F0000F1E02067
:1088100080F8141D03E000F1E02080F800142068C7
:108820000121000B40B200F01F029140400980007E
:1088300000F1E020C0F88012C0F8001170BD000007
:1088400010030200024600201268930702D053076B
:1088500002D47047500714D502F00300012802D05B
:1088600002280CD105E0C2F383100B68801C184469
:1088700004E00223086803EB9252104408600120D0
:108880007047086800EB9253C2F38910401CEEE772
:1088900010B509892AB1D088491C814218D100201D
:1088A00010BD90F8C62202EB8204C4EB821200EBEA
:1088B000420212899142F2D0491C198090F8C612E6
:1088C00001EB8102C2EB811100EB4100008902E063
:1088D0001980D088401E5880012010BD70470000CC
:1088E00010B501460548FFF74DF928B1A0F54051F4
:1088F000023901D0082800D1002010BD947C00204E
:10890000F7210180172141800021017141711B2154
:108910008171C171704700002DE9F047394E002781
:1089200080463D46DFF8E090D6F804A057E003D03B
:108930000446D0F81C8035E099F8002002EB420193
:10894000521CD2B289F8002009EBC10199F802301B
:10895000091D9A4201D189F8005048680A780446F6
:10896000012A12D0022A02D0032A3BD108E002F0E9
:10897000DFFE00B10127257434E00574C06900E012
:1089800070680028F9D170602CE0207C50BB8868AA
:108990006060C868A0600869E0604869A061F0781C
:1089A00000B165606268B168184B501A20F07F40D2
:1089B000984202D2A168084406E0881AA16820F013
:1089C0007F40814202D9081A206000E0256065607E
:1089D0000120A56020742046E56102F08BFEB8F10D
:1089E0000000A4D199F8001099F801008142A3D1A8
:1089F00017B97168514502D00120BDE8F087002009
:108A0000FBE700007078002030820020FFFF7F002D
:108A10002DE9FF410026234800F077F92148001F87
:108A2000074600F072F9204C60680090A56800E0ED
:108A300000986946284004EB80000C30FFF702FFE5
:108A40000028F5D101AA009901EA050304EB83038C
:108A5000491CDB6842F82030401C00910228F2D308
:108A6000019800F0030001280BD0022810D10198D2
:108A7000032101EB90500099BDF80A6001EB9000D2
:108A800005E00198BDF80A60C0F383100844009027
:108A9000384600F037F908B10098606004B03046FD
:108AA000BDE8F0812C890020148500208AB04FF4A5
:108AB0000041002000F08AFF20B13BA240F25E316D
:108AC000FDF7A8FB00F0E4FDFEF7ACFA20B136A2FA
:108AD00040F26931FDF79EFB182237496846FDF7E1
:108AE000A3FC3648069036494FF48070CDE9070163
:108AF00009900723334A06A96846FEF74BFB20B1CD
:108B000029A240F28A31FDF785FB0120FFF7D0F85A
:108B100040F2666202212C48FEF720F920B122A221
:108B200040F2C621FDF776FB01F06EF820B11EA2DF
:108B30004FF45271FDF76EFBFFF798F800212348C0
:108B400000F06CF920B118A240F27231FDF762FB1F
:108B50001F48FEF7D5FC20B113A240F23E31FDF7CD
:108B600059FB1A4D1B4800242C3540F24E2600902C
:108B700005EB04106946FEF759FF18B10AA2314609
:108B8000FDF748FB641C042CF2D3FEF797FC12A0FF
:108B9000FEF742F802F094FB00F088FD0028FBD1BC
:108BA00001F046F8F8E700002E2E5C2E2E5C2E2EEB
:108BB0005C6D61696E2E63003CBF0200687A002024
:108BC000687B0020D1B8020000780020687C00207B
:108BD00071810200DD88020078787878787878787A
:108BE000787878787878787878787878780000006D
:108BF0002DE9F047C7880446181D16468946B0FB84
:108C0000F7F1B0FBF7F207FB12009A193A44D21CB5
:108C1000B2FBF7F2DDF820A001E02468491E00292C
:108C2000FBD13D1A8846B54216D818E0BAF1000FBC
:108C300005D0211809EB08002A46091D04E020444C
:108C400009EB08012A46001DFDF7EEFB0020246811
:108C5000761BA844B74201D9354600E03D46002EB8
:108C6000E4D1BDE8F087000030B5024659B100F00C
:108C7000D9FE0021074C09E004EB810315685B88ED
:108C8000AB4202D11160002030BD491C8142F3D3B8
:108C9000052030BD3079002010B50A8849888A4205
:108CA00003D1FDF707FB012010BD002010BD70B5FA
:108CB0000C460546FDF7E1FA002802D061882868D5
:108CC000084470BD01F01F0301229A40D2434909B4
:108CD00000EB8100114600F021B84A0950F822004B
:108CE00001F01F0201219140084000D0012070478F
:108CF00001F01F0301229A40490900EB810011464F
:108D000000F01CB8002100F00FB8012100F016B8E7
:108D100008B56A46FDF723FB009808BD08B56A460A
:108D2000FDF703FB009808BD08B56A46FDF7FDFA9C
:108D300008BD08B56A46FDF7DFFA08BD08B56A4602
:108D4000FDF7E6FA009808BD08B56A46FDF714FB82
:108D5000009808BD38B5044600258DF800506846D7
:108D6000FEF794FA21686268086890420ED9401EA6
:108D700008600178A38AE26801FB0325227A216852
:108D8000101AC0B20A79824200D208719DF8000020
:108D9000FEF7A0FA284638BD38B5054600208DF804
:108DA00000000C466846FEF771FAE868A98A201AA6
:108DB000B0FBF1F12A681068431C136001709DF844
:108DC0000000FEF787FA38BD10B530B1017A42686D
:108DD0000368891AC9B21A6006E00E2010BD036844
:108DE0001A68541C1C601170491EC9B2F7D2006881
:108DF00000210171084610BDC20800F007030120E0
:108E0000895C98400840704710B5C20800F007031D
:108E1000885C01249C402043885410BD70B5040038
:108E200010D0F720A162208060801B2020710025D7
:108E300004EBC500801DFFF763FD6D1C042DF7D307
:108E4000002070BD0E2070BD2DE9F04185888EB0E8
:108E50000C46042D7ED20188464E4FF0000824298E
:108E600040D006DC102909D011290CD023295FD16C
:108E700054E03A290DD055295AD12EE0014620461A
:108E800001F02EFF54E004EBC500801DFFF738FD14
:108E90004EE0294604EBC107408937F8062F82428D
:108EA00000D810467880172800D217207880A06A52
:108EB00070B1787960B1D6E90002CDE90002ADF871
:108EC00002107888ADF80400A26A204669469047EF
:108ED00087F8058087F804802AE00146204601F0E3
:108EE000C7FF25E0011D2C226846FDF79DFABDF85D
:108EF0000000BDF8042004EBC0014A73A26ABAB1B5
:108F0000D6E90423CDE90B23ADF82E00487B8DF87C
:108F10003000A26A20460BA9904709E004EBC50384
:108F2000017A187B884200D201462846FFF7C2F832
:108F300004EBC504A07A002818D0E1882846A5DFF4
:108F4000012580B1112811D001F044F902460A48E8
:108F5000008800E00AE00EB005EB0040BDE8F041FB
:108F600006A100F0B7BC84F80A80E5720EB0BDE837
:108F7000F0810000D8BF02003479002073645F6282
:108F80006C655F67617474635F65786368616E6761
:108F9000655F6D74755F72657175657374282920DE
:108FA00072657475726E65642025732E0000000072
:108FB00000F180400068002800D00120704708B50B
:108FC00000F18040002101600068009008BD0000B1
:108FD00070B50B4C207808B185250FE00020A0600B
:108FE00060602061E060074801F030F9054601F05B
:108FF00059F808B901F014F901202070284670BD15
:1090000030810020AD7F020038B500258DF800507A
:109010006846FEF73BF9074CE068401EE060E068F8
:1090200010B901F023F9A5709DF80000FEF752F980
:1090300038BD000030810020F0B5054604781548A1
:1090400089B0164640F82420124A0869121DA2F180
:10905000080742F82400487F385520226846FDF76B
:10906000E3F904942878385C48B10EB10A4A00E06C
:1090700000226946281D01F0B1FB09B0F0BD0EB118
:10908000064A00E00022694605F10C0001F05CFA96
:10909000F3E70000347800201DBD0200C5BB0200CC
:1090A00030B40378054CE35C1BB130BC001D01F00B
:1090B000CBBB30BC0C3001F0B1BA000030780020DE
:1090C00030B40378054CE35C1BB130BC001D01F0EB
:1090D0003DBC30BC0C3001F017BB000030780020E4
:1090E0000FB408B50399002904D004AA00926A4677
:1090F00000F00FF801B05DF814FB10B5826804466B
:10910000002A05D0D4E90403216898470020A06014
:1091100010BD2DE9FC4791460C00804676D014F82E
:10912000011B39B125290ED04046FEF76FFE20788D
:109130000028F4D198F80C00002867D04046BDE81C
:10914000FC47FFF7DABF0020012221782B291BD032
:109150002D2902D0302908D102E040F0010001E0C1
:1091600040F00200641C002AEFD100252A290ED00D
:109170002178A1F130020A2A11D205EB850201EB18
:109180004205641C303DF1E740F00400EAE7D9F8FD
:1091900000100B1DC9F800300968641C0D442178CB
:1091A00000232E290BD114F8011FA1F130020A2A45
:1091B00005D203EB830201EB4203303BF3E76C295A
:1091C0000DD068290BD0692921D00BDC252918D0B6
:1091D000582931D063290ED0642915D117E014F82D
:1091E000011FECE7702969D0732932D075291BD093
:1091F000782909D120E0D9F80000011DC9F8001034
:1092000001784046FEF702FE641C90E76CE0D9F856
:1092100000100A1DC9F800200968CDE900500A2293
:109220004046FFF77BFAEFE7D9F800100A1DC9F8AE
:10923000002009680A2206E0D9F800100A1DC9F8C2
:10924000002009681022CDE90050404602F0F8FDE8
:10925000DAE7D9F8001000270A1DC9F800200E68C7
:10926000C00705D112E04046761C7F1CFEF7CEFDFC
:1092700031780029F7D104E0202140466D1EFEF729
:10928000C5FDBD42C0D9002DF6D1BDE74EB1304677
:10929000FDF7EEF8074604E0202140466D1EFEF77C
:1092A000B5FDBD4206D9002DF6D103E04046761C3F
:1092B000FEF7ACFD31780029F8D1A5E7D9F8000018
:1092C000011DC9F80010056830214046FEF79EFDDB
:1092D00078214046FEF79AFD08200021CDE90001E3
:1092E000034610222946B0E7BDE8FC870448012167
:1092F0004174007A08B100207047012070470000D7
:10930000D4830020012801D0032808D10449002279
:1093100001284A7400D00020087401F007BF70478C
:10932000D483002070B50246022801D0032A45D11B
:10933000234C207A002841D0012833D0022831D193
:1093400020480023022A006802D0032A2AD11BE009
:10935000E360017911B1012924D10DE0D0E905655F
:10936000711B4FF48056B14200D3314629448161CC
:109370004569A9420ED015E00169491C01614269A5
:1093800091420FD1237213E0E168491CE160082982
:1093900008D9E3602372022A0AD00D21FFF738F9B9
:1093A00001F0BAFE607C28B1BDE8704000F080BEDC
:1093B0000021F3E7BDE8704001F0B8BE70BD0000C9
:1093C000D48300209878002070B541EA4201DDE99D
:1093D00004564FF0A04441EA830141EA052104EB21
:1093E000800041EA0641C0F8001770BD70B541EA3F
:1093F0004201DDE904564FF0A04441EA830141EA0D
:10940000052104EB800041EA0641C0F8001770BD59
:1094100070B541EA4201DDE904564FF0A04441EA4B
:10942000830141EA052104EB800041EA0641C0F8CE
:10943000001770BD70B541EA4201DDE904564FF0F6
:10944000A04441EA830141EA052104EB800041EA9E
:109450000641C0F8001770BD1CB500220B460092F3
:1094600011460192FFF7D4FF1CBD1CB500220B462C
:10947000009211460192FFF7DDFF1CBD1CB50021D3
:1094800000910B46012201911146FFF7C1FF1CBD5F
:109490001CB5002100910B46012201911146FFF7F6
:1094A000C9FF1CBD4FF0A04202EB8000D0F800279E
:1094B00022F44032C0F80027D0F8002742EA0141E8
:1094C000C0F80017704701224FF0A043824011B14D
:1094D000C3F808257047C3F80C25704718B5084B2A
:1094E0006C4601441B68009306E000BF54F820302E
:1094F000D3F81035401C08C28142F7D818BD0000CF
:109500000CC00200034908B508440021016000684E
:10951000009008BD0060004002494058012800D07A
:10952000002070470060004030B5124B014600201B
:10953000D3F81044224609E0157A854205D1401C33
:109540000A28F7DB4FF0FF3030BD5268002AF3D114
:10955000421CF9D00872D3F810242AB152684A602C
:10956000D3F81024516030BD0022C3F810144A60B3
:1095700030BD0000148500207047FDF7F7B8704734
:1095800008B5034A00924023024A00F005F808BDDE
:109590000DB4020014840020F0B595B01C461546A9
:1095A0000F4608461A9E00F00DFB182109A8FCF78B
:1095B00054FF0E96CDE909540023082203A938462A
:1095C00000F015FB05980690BDF81000ADF81C00E2
:1095D000BDF81200ADF81E0000208DF821000398A0
:1095E000082600F00300012802D0022818D032E03B
:1095F00003983346850AC0F3C2008DF82000039813
:109600000FA9C0F38314A200384600F0F0FA09A8AD
:10961000009006AB22460FA9284600F02FFA1AE068
:109620000398840DC0F3C2008DF82000082C01D2ED
:10963000254600E0082533462A460FA9384600F0A3
:10964000D6FA2E44641B09AB06AA29460FA800F0DF
:1096500067F9002CEAD1384600F0BAFA15B0F0BD2F
:109660000A4A012902EBC00007D0022907D00329CA
:1096700007D0042907D0002070470220704704203B
:10968000704700797047407970470000E4CA0200D3
:1096900010B5FFF772FF04210348FFF745FF0249A9
:1096A0000120487210BD0000CC7800202DE9F04F59
:1096B0008DB0FEF7BBFB18B100200DB0BDE8F08FF8
:1096C0007A4C4FF0000BC4F818B4BFF34F8F6068AA
:1096D0000290A568D846284004EB800008E0216885
:1096E0000298814201D86160E6E7284004EB8000DF
:1096F0000C3002A9FFF7A6F80028F0D105AA0299BC
:1097000001EA050304EB8303491CDB6842F82030BF
:10971000401C02910228F2D3059800F003000228B1
:1097200002D001284ED0A9E005985022810D89462B
:10973000B2EB905F00D850210E4666F39F50059023
:1097400008315B4800F0F5F9070079D000F03AFAEB
:109750004346082205A9384600F04FFA029908F15D
:10976000080A2940681A8000001D864223D94F4DFF
:109770000C3530B1C2B204EB8101301A90460C3185
:1097800004E02946F2B2002590462846C6B2534668
:10979000384600F032FA0AEB08032DB1324629466A
:1097A0004FEA070000F029FA029909F1030001EBE2
:1097B000900002903BE004EB81015346324638466C
:1097C0000C31EFE70598C0F38310062800D306207C
:1097D000059960F38911C1F38310801C0591810004
:1097E000334800F0A6F9070048D000F0EBF94346F3
:1097F000082205A9384600F000FA08F108080026FA
:109800000FE00298434600EA0501401C04EB810189
:109810000290042238460C3100F0EFF908F10408F8
:10982000761C0598C0F38310B042EAD847B1D4F84B
:109830001054D4F8180468B1384600F0C9F92FE084
:109840001CE0687A012804D12A6828463946126843
:1098500090476D68002DF4D1384600F0B9F98DF8C5
:1098600000B06846FDF712FDD4F8180408B9029854
:1098700060609DF80000FDF72DFD11E0D4F8104464
:1098800004E021682046896888476468002CF8D184
:1098900008480221008801EB004007A100F016F8FB
:1098A000FEF7C4FA80F0010007E7000014850020ED
:1098B0006CCB0200647900204261636B656E647357
:1098C00020666C75736865640000000000231A460A
:1098D00001F054BE08B5012300926A4601F04EFE25
:1098E00008BD1CB5CDE9002302236A4601F046FEFF
:1098F0001CBD3EB5069C8DE81C0003236A4601F0A2
:109900003DFE3EBD70B586B00DF1280C9CE87000A0
:109910008DE87C0005236A4601F030FE06B070BD7C
:109920002DE9F0470E4680461C46924608293ED84F
:1099300094F80C90002020731946104601F094FB17
:109940000025B54206D218F805201AA12046FFF7D7
:10995000C7FB03E019A12046FFF7C2FB6D1C082DD1
:10996000EFD317A12046FFF7BBFB0025B54210D26D
:1099700018F80570FCF754FD0068C05D10F03E0F4C
:1099800001D03A4600E02E220EA12046FFF7A8FBA8
:1099900003E00DA12046FFF7A3FB6D1C082DE5D3C6
:1099A00001222146504601F041FB84F80C90BDE8AD
:1099B000F0870000202530327800000020202000B1
:1099C0007C0000002563000020000000104810B556
:1099D000FF218160002101604160C0F81814C0F8C7
:1099E000141480F820140B4800F0F0F800280DD172
:1099F00009480A490A4B401AC108002003E000BF89
:109A000023F82000401C8842FAD3002010BD00003B
:109A1000148500206CCB02006CCB0200E4CA02006B
:109A20003079002002480349401AC00870470000FE
:109A30006CCB0200E4CA020013B56846FFF714F9C4
:109A400008B100201CBD0248009950F831001CBD2F
:109A5000E4CA020070B508480125D0F8104480F827
:109A6000205405E06572216820464968884764688B
:109A7000002CF7D170BD0000148500202DE9FF47B0
:109A800081460C9D00200C462F7B28739846164675
:109A90002946184601F0E8FA072E42D2DFE806F020
:109AA00004090F161F2A360049462846FFF718FBFF
:109AB00037E0494628462268FFF712FB31E0D4E937
:109AC000002349462846FFF70BFB2AE0A0680090D8
:109AD000D4E9002349462846FFF702FB21E0D4E9F8
:109AE0000201CDE90001D4E9002349462846FFF7E9
:109AF000F7FA16E004F1080007C88DE80700D4E97A
:109B0000002349462846FFF7EBFA0AE004F1080073
:109B10000FC88DE80F00D4E9002349462846FFF717
:109B2000DFFA00222946404601F080FA2F73BDE893
:109B3000FF872DE9F041858A80462D1F4819C01CFA
:109B4000B0FBF5F0C6B24046FFF704F9041E19D089
:109B50000020207101206071E58000272546761ED7
:109B6000C4F800800BE04046FFF7F4F860B161797B
:109B7000491C6171286005467F1CC0F80080B7420F
:109B8000F1D32046BDE8F081204600F002F8002025
:109B9000F8E72DE9F041457901466B1E002201E00E
:109BA0000968521C9A42FBD30F680146002605E063
:109BB00038460C68FFF7F0F82146761CAE42F7D322
:109BC000BDE8F0810121001DFFF7A2B8FFF7FCB846
:109BD00010B504460121001DFFF7B6F810F0FF0F85
:109BE00004D12046BDE81040FFF7D3BF10BD38B503
:109BF00001240094FEF7FCFF38BD38B50024009422
:109C0000FEF7F6FF38BD0000064910B50020487089
:109C1000091D0860BFF35F8F0349044800F096FAFE
:109C2000002010BDA078002060C00200E883002062
:109C300008B500208DF800006846FDF727FBF1EE1F
:109C4000100A20F09F00E1EE100ABFF35F8F084971
:109C50004020C1F880029DF80000FDF73BFB00F0BA
:109C600021FA08B141DF08BD20BF40BF20BF08BDB9
:109C700004E000E020B1034909680160002070475A
:109C80000E20704760C202002DE9FE4306460D46D5
:109C90000846FFF7EFFF00287ED18046CDF8008010
:109CA0008DF8006008208DF80200CDF804800220B5
:109CB000ADF80400CDF80880694620202A6869DFE5
:109CC000404F012440B100F085FA024638883E49F1
:109CD00004EB0040FFF7FEFDCDF800808DF8018019
:109CE00004208DF80200CDF80480CDF808808DF8AE
:109CF0000340694640202A6869DF40B100F06AFAF3
:109D000002463888314904EB0040FFF7E3FDCDF807
:109D100000808DF80060F720ADF80200CDF80480D7
:109D2000CDF80880694623202A6869DF40B100F039
:109D300051FA02463888264904EB0040FFF7CAFD75
:109D4000CDF80080CDF80480CDF808808DF8004073
:109D50004646694601202A6869DF40B100F03AFAB8
:109D6000024638881B4904EB0040FFF7B3FD4FF46F
:109D7000B0600090019602966946A1202A6869DFCA
:109D800040B100F027FA02463888134904EB00403E
:109D9000FFF7A0FD009600E012E0019602968DF814
:109DA00000606946A0202A6869DF40B100F012FA1D
:109DB00002463888094904EB0040FFF78BFD00207C
:109DC000BDE8FE836C79002030C9020078C902002A
:109DD000C4C9020090C80200DCC802003CC80200EE
:109DE0002DE9F0410446D0F8008060DF2168194D6C
:109DF000074641451CD92888022606EB004016A1DB
:109E0000FFF764FD2888424606EB00401EA1236848
:109E1000FFF767FDF006D0F80C012168800200F121
:109E20000050421A288825A106EB0040FFF752FD9A
:109E3000012467B1384600F0CDF9024628882AA1EE
:109E400004EB0040FFF746FD3846BDE8F0812E48A0
:109E50000470F9E76C790020496E73756666696372
:109E600069656E742052414D20616C6C6F63617442
:109E7000656420666F722074686520536F66744451
:109E800065766963652E00004368616E67652074BE
:109E900068652052414D207374617274206C6F6349
:109EA0006174696F6E2066726F6D2030782578203E
:109EB000746F20307825782E000000004D6178699D
:109EC0006D756D2052414D2073697A6520666F7201
:109ED000206170706C69636174696F6E20697320B2
:109EE000307825782E00000073645F626C655F65D2
:109EF0006E61626C6528292072657475726E656486
:109F00002025732E000000002B79002030B5174863
:109F1000ADF5017D0078002825D04FF4FA7400BF1C
:109F2000ADF8004280A9684661DF50B105281AD01B
:109F30000DF5017D0EA2BDE8304040F23911FCF76D
:109F400069B96D461A497DA800F000F907E000BF25
:109F5000D0E90021284690477DA800F00EF97F98AF
:109F60000028DDD0F4E70DF5017D30BD2B79002010
:109F70002E2E5C2E2E5C2E2E5C2E2E5C2E2E5C2E1B
:109F80002E5C636F6D706F6E656E74735C736F665D
:109F9000746465766963655C636F6D6D6F6E5C6E2E
:109FA00072665F7364685F626C652E630000000018
:109FB00064C20200F8B5134C2078C0B10120A07033
:109FC00001F0F6F9112814D0022001F009FA002559
:109FD0008DF800506846FDF759F911DF06462570E7
:109FE0009DF80000FDF776F92EB13046F8BD082047
:109FF000F8BD0020F8BDA57001F03CFA032001F087
:10A00000EFF9F6E7287900207CB51A4C207808B1E2
:10A0100008207CBD0120A070002001F0C9F91128A2
:10A0200019D0002001F0DCF91348002600680190E7
:10A030008DF800606846FDF729F9104901A810DF86
:10A0400005000AD0002020709DF80000FDF742F9BD
:10A050002DB128467CBD00207CBD0120F3E7A67011
:10A06000667001F0D1FA01F041FA012001F0B8F96F
:10A07000F1E7000028790020F8C10200D56D020048
:10A080000EB50749684600F061F805E0D0E9001018
:10A090008847684600F071F802980028F6D10EBD96
:10A0A00014C202000148007870470000287900209F
:10A0B0000548817819B1007818B1FFF77BBF0820F7
:10A0C0007047FFF7A1BF0000287900201FB5684640
:10A0D0004BDF40B1052816D004B00BA2BDE81040FC
:10A0E0006B21FCF797B8184901A800F02FF806E09B
:10A0F000D0E900210098904701A800F03EF80398AD
:10A100000028E4D0F4E71FBD2E2E5C2E2E5C2E2EF0
:10A110005C2E2E5C2E2E5C2E2E5C636F6D706F6E2F
:10A12000656E74735C736F66746465766963655C91
:10A13000636F6D6D6F6E5C6E72665F7364685F7384
:10A140006F632E630000000080C202000160096896
:10A150004160AFF3008010B5D0E900215368994207
:10A1600001D1002104E0D1E90034A34202D0194614
:10A17000816010BD08314160F0E7816800290BD093
:10A18000026892680A44826041684B689A4203D12F
:10A1900008314160FFF7DFBF704700000C4A10B57F
:10A1A00002F594730EE0991AC91001EBD1714910B0
:10A1B00002EBC1010C68844201D90B4602E005D2D2
:10A1C00001F108029A42EED3002010BD486810BD8C
:10A1D00080C0020000B5FFF7E1FF002800D1014870
:10A1E00000BD00006CC002004058002800D00120D3
:10A1F000704708B5002242504058009008BDD0F882
:10A200000403084000D0012070474058002800D0C7
:10A210000120704708B5002242504058009008BD08
:10A2200008480068012110F0010F08D14FF0E0202C
:10A23000E02280F80024C0F88012C0F80011024823
:10A240000160704700E100E0180500400649024641
:10A2500000200B790BB1852070470A6001220A713A
:10A2600000224A71704700003C7800200449012018
:10A27000086004480168C1F300410029FAD1704721
:10A280000C00004018040040002802D00149800161
:10A290000847704721C0020010B5044600F0AEFE2A
:10A2A00028B12046BDE810400021FFF7FBB820464A
:10A2B00000F0B0FE00280FD02046FDF739FE074A17
:10A2C00002EB8001D1F8103523F00103C1F81035FD
:10A2D00001218140C2F8081310BD00000060004059
:10A2E0002DE9F0418846054600F088FE234E0028FF
:10A2F00028461AD0FDF71CFE304490F8480080092B
:10A30000032802D001280ED007E04FF0A040D0F87B
:10A310001005E84010F0010F05D003212846BDE8E4
:10A32000F041FFF7BFB80221F8E700F073FE002804
:10A3300022D02846FDF7FCFD04464FF4807000EB68
:10A3400084000F4F81B207EB8400D0F8102542F053
:10A350000102C0F810250846FFF7D4F8B8F1000F45
:10A360000AD02846FDF7E4FD56F82000002803D067
:10A370000120A040C7F80403BDE8F081448100201B
:10A38000006000402DE9FC41DFF8BC80044608EB8A
:10A390000400002790F930001346C0170E46401CF9
:10A3A00001D008274CE0B0781946C0F3400220469F
:10A3B000FDF79AFD0546401C41D0B078410719D4FD
:10A3C000C0070AD04FF0A04000EB8401D1F800078D
:10A3D00020F00200C1F8000707E000217378204652
:10A3E00000910A460191FFF701F8174920465431C0
:10A3F000FEF70AFDB078800718D51448317800EBD5
:10A400008500D0F81025124B1A40C0F810254FF4E3
:10A41000F8524FF4403302EA042203EA01410A43AE
:10A42000D0F810150A43C0F8102509E008EB050024
:10A43000327810F8481F41EA8211017000E00427C9
:10A440003846BDE8FC8100004481002000600040E7
:10A45000FFE0FCFF4FF0A041D1F81015C14011F012
:10A46000010000D00120704770B5184D95F85800D4
:10A4700008B1082070BD0020411E2A18401CC0B23F
:10A4800082F830102028F8D300242046FDF71EFD66
:10A49000641CE4B20C2CF8D300240D49E0206C6558
:10A4A00081F8000401264020891FC1F88002C1F80C
:10A4B00000014FF4BE70FFF725F80649F007C1F818
:10A4C000040385F85860204670BD000044810020D8
:10A4D00006E000E000600040034890F858000028C3
:10A4E00000D0012070470000448100200121B1EB21
:10A4F000507F01D1012070470020704738B50D46CC
:10A5000000F0FEFD040014D000208DF80000684625
:10A51000FCF7BCFE207928B19DF80000FCF7DAFEBC
:10A52000112038BD0120256020719DF80000FCF746
:10A53000D1FE002038BD00000149024801F05ABB9D
:10A54000A0810020002000402DE9F041054600795F
:10A5500016460F4600EB40012D4A01EBC00102EB0D
:10A56000810494F82A1011B10820BDE8F08129492E
:10A5700051F820102868FFF7C1FF08B11120F4E757
:10A5800039462846FCF7C0FE666038692060300016
:10A590004FF001062FD03F7F4FF48E712868FFF7F0
:10A5A00028FE4FF4A2712868FFF723FE28681A4995
:10A5B000C0F8041328684FEA4711000B40B2002886
:10A5C00006DA00F00F0000F1E02080F8141D03E02F
:10A5D00000F1E02080F800142868000B40B200F081
:10A5E0001F0206FA02F14009800000F1E020C0F8E5
:10A5F0008012C0F8001128680421C0F8001500205E
:10A60000A061E06184F8290044F8140FA675ACE756
:10A61000A081002010C00200800002002DE9F05F40
:10A62000054600794FF4017600EB400303EBC000D0
:10A63000344B03EB80040020636813B12B68C3F82C
:10A640000863A3694FF000096BB1E06938B1606835
:10A6500010B12868C0F804631120BDE8F09FE261E2
:10A660000120216105E0C4F82490A261E160C4F8F2
:10A670001C9094F82910014302D1284600F010FEE6
:10A6800060680028286803D0C0F804630020E4E76D
:10A690004FF4A2763146FFF7ACFDB2464FF4927B01
:10A6A00059462868FFF7A0FD06464FF484712868D4
:10A6B000FFF79AFD804651462868FFF795FD07464B
:10A6C00048EA07003043EBD056EA070007D121469D
:10A6D000286800F0B5FDA169606A8142E0D8C4F83D
:10A6E00018900EB10320B8E70FB10F20B5E794F82A
:10A6F000291001200029296801D00860C6E74860B8
:10A70000C4E70000A08100202DE9F047054600794C
:10A710000B4600EB400101EBC000234901EB800434
:10A72000284600F043F810B11120BDE8F0874FF043
:10A730000008C4F82080A360626184F828804FF488
:10A740008E76474631462868FFF753FD28684FF05C
:10A750000109C0F808902146286801F09BF860685C
:10A7600000BBD5F800A00EE094F8280008B10F2730
:10A7700016E031465046FFF737FD0028F4D0214659
:10A78000504601F087F8216A60698142F1D3314671
:10A790002868FFF729FD0028F9D02868C0F80C9038
:10A7A000C4F814803846C0E7A0810020007900EB8F
:10A7B000400101EBC000044901EB80004069002822
:10A7C00000D0012070470000A0810020014902480C
:10A7D00001F0BCBACC810020002000402DE9F041FE
:10A7E0000546164600790F46154A00EBC00102EBFC
:10A7F000810494F8201011B10820BDE8F0811149BE
:10A8000051F820102868FFF779FE08B11120F4E70D
:10A8100039462846FCF7BCFD6660386920601EB1E9
:10A82000397F2846FDF7CEFF28680821C0F80015BB
:10A830000020A061E0610121606184F82010DCE764
:10A84000CC81002014C002002DE9F05F044600799D
:10A850000E4600EBC001DFF8F0A017460AEB8105B9
:10A860003046FFF743FEB0B168684FF000084FF480
:10A87000047910B12168C1F80893A8694FF0000B62
:10A8800080B1E86948B1686810B12068C0F80493E5
:10A890001120BDE8F09F1020FBE7EF614FF00108A9
:10A8A0002E6102E0EE60C5E9067B00254FF4887159
:10A8B0002068FFF7AFFC4FF4A2712068FFF7AAFCF5
:10A8C0002068C0F83465C0F838752068B8F1000F0A
:10A8D00012D0D0F8001241F02001C0F80012207907
:10A8E000D04600EBC0010AEB8100406838B1206817
:10A8F000C0F804932846CCE701210160EFE74FF44C
:10A90000887A4FF4A27951462068FFF77EFC07460B
:10A9100049462068FFF779FC06464FF4927120689B
:10A92000FFF773FC014647EA06000843EBD02279A3
:10A9300002EBC20308EB8302C2F818B001B1032591
:10A94000002ED7D00F25D5E7CC8100202DE9F04788
:10A9500004460E460079204900EBC00001EB80055B
:10A9600017463046FFF7C2FD30B1204600F036F8FA
:10A9700020B11120BDE8F0871020FBE76F61AE60C9
:10A980004FF49076002731462068FFF743FC4FF4E0
:10A99000AC7841462068FFF73DFC2068AA686969E9
:10A9A000C0F84425C0F84815206801218160686816
:10A9B00078B9B14649462068FFF727FC064641466C
:10A9C0002068FFF722FC0643F4D000B10F270020D7
:10A9D00068613846CEE70000CC8100200079054947
:10A9E00000EBC00001EB80004069002800D001208E
:10A9F00070470000CC8100202DE9F843DFF84C813E
:10AA00000446818B8069D8F80420FCF70BFD0327EE
:10AA100001264F4D002832D0D8F804000090288835
:10AA2000C146A38B07EB00404AA1A269FEF761FF74
:10AA300029884FF0050808EB01404CA1FEF746FFBE
:10AA4000002709E0A0692988C25D08EB01404AA1FE
:10AA5000FEF740FF7F1CBFB2A08BB842F2D8298816
:10AA600008EB014046A1FEF731FF0021454A0123D2
:10AA7000C9F8141002F10801A01C8CDF17E0A18BAB
:10AA8000A069D8F80820FCF7CDFCD0B12888A269CD
:10AA900007EB004047463CA1D8F80830FEF721FFFD
:10AAA000384A012302F10801A01C7E618CDF0200FC
:10AAB00049D0288837A106EB0040BDE8F843FEF7EF
:10AAC00009BFA18BA069D8F80C20FCF7ABFC90B1B2
:10AAD0002888A26907EB004047462BA1D8F80C3024
:10AAE000FEF7FFFE0220274A0123786102F10801E8
:10AAF000A01C8CDFDBE7A18BA069D8F81020FCF745
:10AB000091FC98B12988B94607EB01404746A269F4
:10AB10001DA1D8F81030FEF7E4FE1A4A012302F115
:10AB20000801A01CC7F814908CDFC0E707491C314E
:10AB300000208ADF002806D0BDE8F8431FA240F2BB
:10AB40009B11FBF767BBBDE8F8830000986C002001
:10AB500064790020257820646174616C656E20251D
:10AB600064204164763A2025730000006164765FBA
:10AB7000646174613A200000253032783A000000A8
:10AB80000D0A000024BF02002578204164763A2097
:10AB900025730000436F6E6E656374696F6E20529B
:10ABA000657175657374204661696C65642C2072EB
:10ABB0006561736F6E202564000000002E2E5C2EF0
:10ABC0002E5C2E2E5C6D61696E2E63002DE9F84FB0
:10ABD00005460C460888B5F8CA12884259D195F83E
:10ABE000C602DFF8F8A000EB8001C1EB801005EB96
:10ABF000400160884FF003094FF00008F0BBE68881
:10AC00000879A21DF3B250FA86F6062E01D8034445
:10AC100000E006230B7100261CE000BF00EBC00320
:10AC200006EB860702EB470701EB4303D7F802C0A8
:10AC3000C3F80AC0D7F806C0C3F80EC07F895F8288
:10AC4000A3F81480A3F81680A3F81880401CA3F87A
:10AC50001A80761C0B798342E0D895F8C62200EB67
:10AC6000C00002EB8203C3EB821205EB420231F813
:10AC70001000128990420ED2087900E00BE00628FD
:10AC800009D085F8C50221882846FDF759F9010049
:10AC90000AD1BDE8F88F85F8C58222886946284622
:10ACA000FDF770FA01000BD085F8C782228828468C
:10ACB000FDF742FB8AF800902188AAF80210E8E725
:10ACC0009DF800000028E4D0228801212846FDF7E5
:10ACD000EBFA2188284600F053F9DAE7907D00204E
:10ACE00070B58D88027900EBC5042273C97BA41D61
:10ACF000012902D0022904D101E0008800E0408847
:10AD000020802188608881420FD92846A5DF01264E
:10AD1000A0B1112814D0FFF75DFA02460A480BA132
:10AD2000008806EB0040FEF7D5FDA179E07981426D
:10AD300008D92846BDE87040FDF7BCB96671F4E754
:10AD40002671F2E770BD00003479002073645F6201
:10AD50006C655F67617474635F65786368616E6773
:10AD6000655F6D74755F72657175657374282920F0
:10AD700072657475726E65642025732E0000000084
:10AD8000F8B505460C460888B5F8CA1288425DD168
:10AD900095F8C602A61D00EB8001C1EB801005EB03
:10ADA000400395F8C502618800EBC00003EB40004A
:10ADB0000A3039B329E000BF01EB410206EB420241
:10ADC0009788B7F5245F0CD06FF4245C17EB0C0761
:10ADD0000AD0012F02D0072F0BD108E05288428100
:10ADE00007E05288828104E05288C28101E05288E3
:10ADF000028242892AB182891AB1C2890AB1028AC1
:10AE00001AB9491C32888A42D6D800268DF80060CB
:10AE100095F8C5021979401C884203D101208DF8AC
:10AE2000000018E085F8C502228869462846FDF72B
:10AE3000A9F901000BD085F8C76222882846FDF7E2
:10AE40007BFA0A480321017021884180F8BD9DF8F2
:10AE500000000028FAD0228801212846FDF724FAB4
:10AE60002188284600F08CF8F8BD0000907D002075
:10AE70007CB506468D88C88806EBC504A41D172836
:10AE800000D217202188814200D808466080002027
:10AE9000207121882846B5DF50B1FFF79BF90246A3
:10AEA0000E480121008801EB00400DA1FEF712FDC4
:10AEB0006079002810D1B06A00280DD01449D1E97A
:10AEC0000201CDE90001ADF802506088ADF8040040
:10AED000B26A6946304690477CBD00003479002054
:10AEE00073645F626C655F67617474735F657863D8
:10AEF00068616E67655F6D74755F7265706C7928E7
:10AF0000292072657475726E65642025732E0000A9
:10AF1000D8BF020070B505460C4690F8C6022288DC
:10AF200000EB8001C1EB801005EB4001B5F8CA02CF
:10AF3000824222D1608848B100212846FDF7B4F949
:10AF400021882846BDE8704000F01AB8A2680A605F
:10AF5000E068C1F8060021882846FCF7F1FF0100EF
:10AF60000BD0002085F8C70222882846FDF7E4F9B7
:10AF70000248032101702188418070BD907D00202E
:10AF80002DE9F041044690F8C9020E46401C1949CB
:10AF9000C0B284F8C902C9680327174D4FF0000EEC
:10AFA000884224D284F8C5E294F8C602401CC0B29C
:10AFB00000EB8001C1EB801104EB410284F8C60272
:10AFC000A5F1180101EB800001210068106082F8F2
:10AFD00004E030469BDF010007D084F8C7E2324628
:10AFE0002046FDF7A9F92F706E80BDE8F08184F846
:10AFF000C7E2F8E718780020907D00200449084453
:10B0000090F93000082801DB0120704700207047CC
:10B01000448100200449084490F93000082801D2F6
:10B0200001207047002070474481002010B50C4675
:10B03000017A052908D0407A38B1084808A1026889
:10B040002046FEF74DF800E01AB106A12046FEF7B3
:10B0500047F82046BDE81040FEF74FB804790020BD
:10B06000257300000D0A000038B5C3880D4604465C
:10B0700033B114A0009015A216A12846FEF730F8AF
:10B08000217A05291CD0607A48B1A088FEF7E8FA39
:10B09000164951F8202016A12846FEF721F8A0886D
:10B0A0000021FEF7C9FC03461049207A143951F8F3
:10B0B000202001B02846BDE830400EA1FEF710B8B0
:10B0C00038BD00001B5B306D000000001B5B313B96
:10B0D00033316D0025734C6F67732064726F70702D
:10B0E0006564202825642925730D0A000479002051
:10B0F000257300003C25733E2025733A2000000094
:10B100000349884201D1034870470020704700007E
:10B110000020004044780020034802490068FDF701
:10B12000BBBD00009C78002038C002002DE9F04132
:10B13000234C0025234E207A012730B92248311DA7
:10B140000068FDF7B4FD306038B10220207231682C
:10B15000087928B101281ED116E06560BDE8F081AC
:10B16000D1E90503C01A4FF48052904200D3104633
:10B17000B7EB900F01D2820800E001220869C9688C
:10B180001844194429DF03E0D1E90301084428DF0A
:10B1900058B1112812D003213068FDF739FA257211
:10B1A0006560BDE8F041FFF7B7BF207C0028D5D12E
:10B1B000BDE8F04100210220FEF7B4B82772CDE7C8
:10B1C000D48300209878002038C0020070B50C4B62
:10B1D00000210A4ADC680DE002EB81058678AD7833
:10B1E000B54206D132F821500688B54201D15868DF
:10B1F00070BD491CA142EFD3002070BD787D0020B6
:10B200001878002070B5012670044FF0E021002569
:10B21000C1F88001084C4010C4F84803C4F8080382
:10B2200066602F20FFF730F8A660044C2F20A56041
:10B23000FFF72AF8A57070BD00100140707800205B
:10B2400070B5054688690C4600284FF4847128467D
:10B250000AD0FEF7CEFFD5F81805626AE168885477
:10B26000606A401C606270BDFEF7C3FFD5F8180528
:10B2700070BD1FB501238DF80030CDE90121D0E963
:10B280000012684690471FBD1FB501238DF800309E
:10B290008DF808100192D0E90012684690471FBD52
:10B2A00010B5044600684FF49271FEF7A2FF4FF408
:10B2B00084712068FEF79DFF20680121016010BDA8
:10B2C00010B58BDF09480321008801EB00400849D5
:10B2D0004A6808A1FEF7FEFA05490F481C318ADFCB
:10B2E000BDE810400020FCF715BD00006479002087
:10B2F000986C00205374617274207363616E6E6980
:10B300006E6720666F7220646576696365206E6182
:10B310006D652025732E00002CBF020070B50D4610
:10B320000446FBF791FC70B12846FBF79FFC68B11F
:10B330006807000E002C0CDA04F00F0101F1E02187
:10B3400081F8140D09E042F2010070BD42F20200E2
:10B3500070BD04F1E02484F80004002070BD0000FA
:10B3600038B50021012548B101280CD0032809D1A6
:10B37000FEF756FFBDE83840FDF746BE4FF0E0202F
:10B38000C0F8805138BD8DF800106846FBF77EFF8D
:10B39000064C207808B9FDF71BFEE068401CE06011
:10B3A000A5709DF80000FBF795FF38BD30810020A7
:10B3B0003EB5044609496846FEF7C8FE08E000BFEE
:10B3C000D0E900212046904730B16846FEF7D5FE0F
:10B3D00002980028F4D13EBD11203EBDFCC1020000
:10B3E0003EB5044608496846FEF7B0FE07E000BFD8
:10B3F000D0E90021204690476846FEF7BEFE02983D
:10B400000028F5D13EBD000008C202002DE9F04140
:10B410001400884618D000250E4F032608EB0501BE
:10B4200022460020FBF7A4F90544241A40B93878D5
:10B43000002809D008494FF47A408847761E05D085
:10B4400001203870002CE9D1BDE8F081002038706F
:10B45000FAE70000C8780020E1C10200002805D109
:10B460000349012048700020FCF78CBD70470000A4
:10B470003081002010B51620FBF7E6FB48B10B48E1
:10B4800082684FF4800162B1016821F4800101609B
:10B4900010BDBDE8104042F2010005A2AD21FAF74F
:10B4A000B9BE4FF0E020C0F8801110BD3C830020F1
:10B4B0002E2E5C2E2E5C2E2E5C2E2E5C2E2E5C2EC6
:10B4C0002E5C636F6D706F6E656E74735C736F6608
:10B4D000746465766963655C636F6D6D6F6E5C6ED9
:10B4E00072665F7364682E630000000010B516205A
:10B4F000FBF7AAFB80B1104890F800044009FBF765
:10B50000B5FB60B10D4882684FF480017AB10168E3
:10B5100041F48001016010BD42F2010001E042F2FD
:10B520000200BDE8104006A2A121FAF773BE4FF059
:10B53000E020C0F8001110BD16E000E03C830020C0
:10B540002E2E5C2E2E5C2E2E5C2E2E5C2E2E5C2E35
:10B550002E5C636F6D706F6E656E74735C736F6677
:10B56000746465766963655C636F6D6D6F6E5C6E48
:10B5700072665F7364682E63000000002DE9F84F67
:10B58000204D92468946064698460122694618464D
:10B59000AF68FCF7F3FB58B3009800210446801C09
:10B5A00009E000BF00EA07035AF8212005EB8303F6
:10B5B000401C491CDA604145F4D34FEA164AFCF7B7
:10B5C00007FF4AEA0041601C384005EB80003C4020
:10B5D00005EB8402C160D06866F3C50068F389108A
:10B5E00069F39F2020F00300401C20F00400D0608D
:10B5F00095F8200402E000BFFEF758F80028FBD1C0
:10B60000BDE8F88F1485002010B507211620FFF73C
:10B6100085FE18B108A2BF21FAF7FCFD072115200D
:10B62000FFF77CFE002805D0BDE8104002A2C12132
:10B63000FAF7F0BD10BD00002E2E5C2E2E5C2E2ED3
:10B640005C2E2E5C2E2E5C2E2E5C636F6D706F6EEA
:10B65000656E74735C736F66746465766963655C4C
:10B66000636F6D6D6F6E5C6E72665F7364682E6380
:10B67000000000002DE9F84F1D4C00256846D4E974
:10B6800001A6FCF7AFFE002738B30023009A6168DB
:10B690001CE0D1F800C00846944503D9ACEB020287
:10B6A0000A6015E0A2EB0C0263440760D0F80CC0FE
:10B6B000C1698146BCF1000F08D006EB030828F0F1
:10B6C0007F48C0E9018CC9F81C5005460029E0D12B
:10B6D00028466160FDF720F903E02846FDF71CF9D4
:10B6E00010B15046FCF770FCE770BDE8F88F000021
:10B6F000707800200D4B10B5596831B102680C68A4
:10B70000A24204D8A21A0A60C161586010BD0B465B
:10B7100003E00B46C969121B21B10C689442F8D3AF
:10B72000A41A0C600260C161D86110BD707800205D
:10B730002DE9F041144E77683D462C4603E08442E3
:10B7400004D02546E469002CF9D11BE0D4B1A54210
:10B750000BD1F869706040B90C4901208860002164
:10B76000B160F0702F20FEF78FFD2168E069E8617D
:10B7700010B10268114401607068874202D0012054
:10B78000BDE8F0810020FBE7707800200010014048
:10B790007CB5064600240D468DF800406846FBF750
:10B7A00075FD01A800F0A6FB70B10570094946605F
:10B7B0009DF8040048709DF80000FBF78BFD1420F5
:10B7C000FAF77AFF20467CBD04249DF80000FBF7C1
:10B7D00081FDF7E7308200202DE9F041194D6C68BA
:10B7E000002C2CD0184800270068A968B846401AD9
:10B7F00020F07F462068B0420CD82146361A074414
:10B80000E469087C20B181F810808869496988471B
:10B81000002CEFD129786878814206D1401CC0B253
:10B820006870022801D185F80180064869780C30DB
:10B8300040F82170BDE8F0411420FAF73DBFBDE8A3
:10B84000F0810000707800200415014010B50F4C05
:10B85000D4E90010884211D000EB80020C4800EBC4
:10B8600082018B785BB130F822000831A3DF002819
:10B8700004D12079401C00F00700606010BD30F852
:10B88000220089880022A1DFF1E70000287800204B
:10B890009080002070B50C4605464FF48E71FEF77F
:10B8A000A8FC216AA068415C206A401C2062C5F89F
:10B8B0001C1570BD1FB500228DF800200291816813
:10B8C00001914261D0E90012684690471FBD000017
:10B8D0002DE9F0470178DFF8989104464FF0030A0C
:10B8E00069B1484603220088012902EB00407CD060
:10B8F00002297BD1BDE8F0475EA1FDF7E7BF6B4CA5
:10B90000694D60882844FBF70BFC60880026401CCA
:10B9100082B2A818628010F8010C0A2813D1B9F875
:10B9200000102B460AEB014061A1FDF7DAFF6088A9
:10B930002178801E82B205F5487000EB011029467F
:10B94000FCF7DEF866806188681810F8012C522A2E
:10B950002CD101297FD910F8020C52287BD1EE207E
:10B96000FBF76AFC8820FBF767FC002704E06068AF
:10B97000C05DFBF761FC7F1C6068FAF779FDB84297
:10B98000F5D8A0466068FAF773FD074603E000BFEC
:10B99000FBF752FC7F1C0A2F4FF0EE00F8DBFBF7A1
:10B9A0004BFC7720FBF748FCA8F802606188681818
:10B9B00010F8012C552A4ED10A294CD910F8020C46
:10B9C000552848D129780020412907D1A9796E2925
:10B9D00004D1E979742901D1287A30386A7A3A4950
:10B9E000A2F13003092B15D801E036E033E000EB7B
:10B9F00080006FF02F0303EB400010440A2390FBFC
:10BA0000F3F290FBF3F503FB150030320A7230308D
:10BA1000487202E0303008724E72244F002540F226
:10BA20000B3818376160785D012810D1B9F8001023
:10BA30002A460AEB014025A1FDF74CFFA8B21321CD
:10BA400076DF18B128A24146FAF7E4FB7E556D1C5B
:10BA5000042DE8DB6680BDE8F08727A1FDF736FFFF
:10BA60006068BDE8F04720A240F21E31FAF7D2BB71
:10BA700064790020436F6D6D756E69636174696FE1
:10BA80006E206572726F72206F6363757272656487
:10BA9000207768696C652068616E646C696E6720E8
:10BAA000554152542E00000074790020986C0020FB
:10BAB000696E6465782069732025642E7374722022
:10BAC0006973202573000000EC77002074727920E0
:10BAD000746F20646973636F6E6E65637420776939
