:020000040002F8
:10600000A05A0020156302001D6302001F630200F6
:1060100021630200236302002563020000000000E8
:1060200000000000000000000000000027630200E4
:1060300029630200000000002B6302002D630200B0
:10604000C56802002F630200056F0200E96A0200C2
:106050002F6302002F630200FD6602004169020007
:106060002F630200B56E02002F6302002F6302004F
:106070002F6302002F6302002F6302002F630200D0
:106080002F6302001D6902002F6302002F630200CC
:106090003D6B02002F630200416B02002F63020080
:1060A0002F6302002F6302002F6302002F630200A0
:1060B0002F6302002F6302000000000000000000B8
:1060C0002F6302002F6302002F6302002F63020080
:1060D0002F6302002F6302002F6302000000000004
:1060E00000000000000000000000000000000000B0
:1060F00000000000000000000000000000000000A0
:10610000000000000000000000000000000000008F
:10611000000000000000000000000000000000007F
:10612000000000000000000000000000000000006F
:10613000000000000000000000000000000000005F
:10614000000000000000000000000000000000004F
:10615000000000000000000000000000000000003F
:10616000000000000000000000000000000000002F
:10617000000000000000000000000000000000001F
:10618000000000000000000000000000000000000F
:1061900000000000000000000000000000000000FF
:1061A00000000000000000000000000000000000EF
:1061B00000000000000000000000000000000000DF
:1061C00000000000000000000000000000000000CF
:1061D00000000000000000000000000000000000BF
:1061E00000000000000000000000000000000000AF
:1061F000000000000000000000000000000000009F
:10620000DFF80CD000F0D0F8004800477588020095
:10621000A05A002000B583B002900091019244F290
:10622000010071466A4600F085FF03B000BD000022
:1062300030B4044654E8000F0D4644E80053002BE8
:10624000F8D1156030BC704730B4044654E8000FF4
:1062500040EA010544E80053002BF7D1156030BC3B
:10626000704730B4044654E8000F00EA010544E8E2
:106270000053002BF7D1156030BC704730B4044692
:1062800054E8000F80EA010544E80053002BF7D1E1
:10629000156030BC704730B4044654E8000F00EB82
:1062A000010544E80053002BF7D1156030BC70475E
:1062B00030B4044654E8000FA0EB010544E8005355
:1062C000002BF7D1156030BC704770B404464FF016
:1062D000000054E8006F0D68AE4207BF44E8002399
:1062E000012044E800630E60002B1CBF0020F0E793
:1062F00070BC704730B4044654E8000F88422CBF8D
:10630000451A054644E80053002BF5D1156030BC12
:10631000704700000648804706480047FEE7FEE752
:10632000FEE7FEE7FEE7FEE7FEE7FEE7FEE7FEE745
:10633000996B020001620200004870474CB40200F1
:1063400040EA01039B0703D009E008C9121F08C0F7
:10635000042AFAD203E011F8013B00F8013B521E77
:10636000F9D27047D2B201E000F8012B491EFBD2EE
:1063700070470022F6E710B513460A460446194650
:10638000FFF7F0FF204610BD421C10F8011B00294A
:10639000FBD1801A7047034611F8012B00F8012B3E
:1063A000002AF9D118467047064C074D06E0E06810
:1063B00040F0010394E8070098471034AC42F6D34C
:1063C000FFF722FF80BC0200A0BC020010B5002431
:1063D000282002F0CEFD062000F0B4FB092002F0D8
:1063E000C8FD1321012000F021F900B18024012112
:1063F000022000F01BF908B144F0400440210320C2
:1064000000F014F908B144F020040021042000F049
:106410000DF908B144F010045921052000F006F9E7
:1064200008B144F008040121062000F0FFF808B18B
:1064300044F0040444F00304282002F09AFD2046AE
:1064400010BD10B5044600F0E7F84FF0A041D1F8B8
:106450001005000A10F0010FF9D12046BDE81040E8
:1064600000F04CB81FB502F023F81149114AD1E9E8
:106470000801CDE902010E4802A9183003F0F4FF2B
:1064800018B10DA2CD21FFF7C5FE012003460090F3
:10649000074840F2E2420021183003F0CFFF00230A
:1064A000082000931A461946019302F0EAFE1FBD28
:1064B000E0B00200A16602002E2E5C2E2E5C2E2E75
:1064C0005C6D61696E2E630010B502F02DF8052039
:1064D00002F016FF062002F013FF022002F010FF68
:1064E000032002F00DFF044803F08CFFBDE81040CC
:1064F000014803F065BF0000F8B002002DE9F84F35
:1065000006260025DFF86080044603274FF0120AB4
:106510004FF0FF0988F800A088F8019088F80290F1
:1065200088F8039088F8049088F80590234632464E
:106530000D490E48009602F093FD18B10CA2C82137
:10654000FFF768FE6078A17822790844E1786D1C35
:10655000114408449B306179C0B2EDB2814201D050
:10656000BD42D7D3BDE8F88FD02E002058B102002D
:106570002E2E5C2E2E5C2E2E5C2E2E5C2E2E5C2E55
:106580002E5C64726976655C414453313236582E14
:106590006300000038B5144C00F03F0040F02000CC
:1065A000207000206070022204F5807321460F489D
:1065B000009202F055FD18B10DA27621FFF72AFED8
:1065C000FF2020700122134B07490848009202F077
:1065D00047FD18B106A27B21FFF71CFE0A2003F03D
:1065E0007FFD0C48007838BDD02E002058B1020045
:1065F0002E2E5C2E2E5C2E2E5C2E2E5C2E2E5C2ED5
:106600002E5C64726976655C414453313236582E93
:1066100063000000D02F002010B5082000F092FA8F
:10662000BDE81040052003F05BBD000038B500F068
:106630001F0040F040050F480C46002105704170D6
:106640008470032200F5807301460B48009202F02B
:1066500007FD18B109A26121FFF7DCFD0A2003F054
:106660003FFD2846FFF796FFA04201D1012038BD2B
:10667000002038BDD02E002058B102002E2E5C2EF6
:106680002E5C2E2E5C2E2E5C2E2E5C2E2E5C6472CA
:106690006976655C414453313236582E6300000000
:1066A0001CB5B0F5A07F23D16846FFF7CAFE11489C
:1066B00011499DF80140828802EB8203521CCC54A0
:1066C00019449DF802404C709DF803308B709DF882
:1066D0000430CB70AA230B7191B28180282907D393
:1066E00000218180044A408802F1C80101F089FB41
:1066F0001CBD0000282B0020E02B00202DE9F047D6
:1067000000268AB0DFF85091B0464FF4807501241E
:1067100037460696284602F031FE38B1D9F8040310
:10672000204203D0284602F01FFE26432D1D6400A0
:106730007F1CADB2082FEDD34FF4BE74204602F09B
:106740001DFE48B1204602F00FFE46F0004606AAA4
:106750000121002002F0F4FD404D16F0FF0F15D08E
:106760000127002437420DD009EB8401D1F8100530
:10677000D1F81015C0F3042055F82420C1F30141CD
:1067800002B190477F00641C082CEBD3002E5FDA27
:106790004FF0FF30CDF8108054E0281910F8507FEA
:1067A00090F9000027F0C008401C3BD007A94046E4
:1067B00002F08DFA10B34FEA9719404601F0DAFB68
:1067C00055F820701FB1B9F1030F03D006E0B9F1FD
:1067D000030F27D104A9404602F081FA4FF0A041EF
:1067E00001EB8800D0F8000706A9C0F3014A404633
:1067F00002F06DFA18B1BAF1020F03D012E0BAF14B
:10680000030F0FD1B9F1030F08D1BAF1020F1DD058
:106810000221404602F063FD761CF6B217B14946EC
:106820004046B847641C042CB7D3002E10D06A46EB
:106830000121002002F084FD06990098884207D0CB
:1068400006900498002634460790A6E70321E0E767
:106850000AB0BDE8F087000000600040FC2D002079
:1068600000F01F02012191404009800000F1E0206A
:10687000C0F88012704700F01F02012191404009CA
:10688000800000F1E020C0F80011704700F01F0206
:10689000012191404009800000F1E020C0F8001281
:1068A00070474907090E002806DA00F00F0000F1D2
:1068B000E02080F8141D704700F1E02080F80014FB
:1068C0007047000070B54FF48076304602F042FB0E
:1068D000114CB50560B1304602F043FB0120C5F80C
:1068E0000803607920B90120607121680020884781
:1068F0004FF48276304602F02DFB00280AD0304655
:1069000002F02FFB0220C5F808032168BDE87040A3
:106910000120084770BD00004C2B002007480021D3
:10692000C0F84011C0F84411C0F84811C0F84C112B
:10693000C0F80011C0F8041104F070BA0010014052
:106940002DE9FE434FF48278404603F007F94C4F9F
:1069500000254C4C012600B3404603F007F994F89B
:106960002E0010B194F82F10D1B18DF8005061684D
:1069700001912189ADF80810E26832B1218B618361
:1069800062602181E56010B102E0257400E03E60A4
:1069900021686846884784F82F5094F82E0060B329
:1069A0004FF48077384603F0D9F830B3384603F017
:1069B000DDF8628B94F82D108A420AD9A2EB01000F
:1069C00080B260832289A2EB0000626802EB400083
:1069D00005E007D1E06828B184F82F60658303F0F3
:1069E000B5F804E08A4202D184F82F6065834046FE
:1069F00003F0BCF82248001D06604FF48877384643
:106A000003F0ACF848B1384603F0B0F82574022022
:106A10008DF800002168684688474FF48A77384629
:106A200003F09CF828B1384603F0A0F82574BDE8BF
:106A3000FE834FF000484FF48C7967691DE000BF7A
:106A4000B7FA87F028FA00F109EB80058F43284652
:106A500003F084F888B1284603F088F8A5F58C7512
:106A6000E8088DF8040045F38000401C8DF80060B4
:106A70008DF80500216868468847002FE0D1D6E7E9
:106A800000700040642E002000F042BA70B50E463F
:106A9000144900EB400001EBC0051446E86A1835C4
:106AA00020B101280FD0022805D113E0284600F0BC
:106AB00063FAA04201D2002411E022463146284662
:106AC00000F092FA0BE0284600F056FAA042F4D209
:106AD0000446F2E73146284600F059FA04462046BB
:106AE00070BD0000D0370020F8B51248124E0446A1
:106AF0004FF48C7103F08DFA00281AD00025C4F8E9
:106B00001851D4F818010090F07F3446FF2806D0C1
:106B1000A17F11B102F0FBFB01E002F0FFFB657702
:106B20002572D4E9002101B004F10800BDE8F0406D
:106B30001047F8BD00300040AC2E002004F0BCB877
:106B400003F0E8B908B50949012201F5807308701E
:106B50000748009202F084FA002805D0BDE80840FA
:106B600004A28C21FFF756BB08BD0000D02E0020E8
:106B700058B102002E2E5C2E2E5C2E2E5C2E2E5C2A
:106B80002E2E5C2E2E5C64726976655C4144533116
:106B90003236582E63000000F0B5B5480023021DC0
:106BA0000178101D01254FF0805406290BD116786D
:106BB000360708D10678C6F30316032E06D0042E36
:106BC00004D0052E02D0062907D00EE0B4F82463C5
:106BD000A84FC6F304263E6002E01678360704D1BB
:106BE0000678C6F30316032E02D0062904D00FE060
:106BF000A24FA14E7E670EE01678360708D10678C0
:106C0000C6F30316032E06D0042E04D0052E02D0A0
:106C1000062907D00EE0D4F84462994FC6F34236F5
:106C20003E6002E01678360704D10678C6F30316F4
:106C3000032E02D0062906D011E0924E376827F0C5
:106C4000807737600EE01678360708D10678C6F3ED
:106C50000316032E06D0042E04D0052E02D00629DA
:106C60000AD011E04FF08046C6F80C31C6F810315A
:106C7000834E361F336002E01678360704D106785B
:106C8000C6F30316032E02D0062905D00CE07C4F74
:106C9000032664373E600AE01678360704D106788A
:106CA000C6F30316032E02D006290DD014E0764F4A
:106CB00005263E60744E78363560734E0836336074
:106CC0003F263F1D3E6002E01678360704D1067865
:106CD000C6F30316052E02D0062957D062E06B4E8C
:106CE00036686B4F3E60694E361D36683F1D3E600C
:106CF000664E083636683F1D3E60644E0C36366878
:106D00003F1D3E60614E103636683F1D3E605F4E4F
:106D1000143636683F1D3E605C4E183636685C4F50
:106D200020373E60594E1C3636683F1D3E60574E38
:106D3000203636683F1D3E60544E243636683F1D6F
:106D40003E60524E283636683F1D3E604F4E2C3610
:106D500036683F1D3E604D4E303636684C4F4037EA
:106D60003E604A4E343636683F1D3E60474E3836E8
:106D700036683F1D3E60454E3C3636683F1D3E60DE
:106D8000424E403636683F1D3E6002E016783607B8
:106D900008D10678C6F30316032E06D0042E04D0BD
:106DA000052E02D0062907D019E0D4F85812394A26
:106DB00001F04F01116002E0117809070FD100784E
:106DC000C0F30310032803D0042801D0052806D1FE
:106DD00031480168C90702D06FF001010160D4F8A1
:106DE0003001062808D1D4F83401062804D12B48F4
:106DF000016841F48061016022487438016841F4FF
:106E000070010160BFF34F8FBFF36F8F4FF0102100
:106E1000D1F80002002803DBD1F80402002822DAAE
:106E20001F4A15601F480468002CFCD01524C1F8C7
:106E300000420568002DFCD0C1F804420168002919
:106E4000FCD0136001680029FCD0BFF34F8F0D48C0
:106E5000F0380168144A01F4E06111430160BFF3A6
:106E60004F8F00BFFDE7124910480860F0BD0000D9
:106E7000E00F00F0403501400DF0ADBA00C0074012
:106E80003C050040FCED00E01056004004040010FA
:106E900020C50040E40E0040000400403C170040C4
:106EA00004E5014000E401400400FA050090D0032D
:106EB000DC2B00202DE9F047104E042700244FF46E
:106EC000A0784FF4803900BF08EB840509FA04F07C
:106ED000715961B1D6F80413014208D029463046F1
:106EE00003F0C2F80648D0E9002128469047641C08
:106EF000E4B2BC42E8D3BDE8F08700000090004057
:106F0000582E00200148006800470000542B002044
:106F100010B5124C02202061606111A0A06104F143
:106F20007800E0614FF4007020620020A06260628F
:106F30000BA1A164E06204F51E71E1641021A0655B
:106F4000C4E91410E06509A1E01DFFF724FA08A1C7
:106F50002046FFF720FA2020A07110BDD037002076
:106F60005465726D696E616C0000000052545400EB
:106F700053454747455200000269C1688A4203D819
:106F80008068401A104400E0501A401E70472DE9F6
:106F9000F047C4681746894606464FF00008306936
:106FA000A04201D9051B02E0B168201A0D1AB06891
:106FB0006D1E001BA84200D80546BD4200D33D46C9
:106FC00070682A4620444946FFF7BAF9B0687F1B2B
:106FD0002C44A844A944A04200D10024F460002F0E
:106FE000DDD14046BDE8F0872DE9F04104468846F2
:106FF000D4E90207C51BE168606816460844B5423B
:1070000006D94146FFF79CF9B819E060BDE8F08168
:107010002A464146FFF794F9761B08EB05013246F4
:107020006068FFF78DF9E660F0E702E008C8121F1C
:1070300008C1002AFAD170477047002001E001C161
:10704000121F002AFBD170470121202803DA81405A
:107050000548014003E0402802DA2038814009B1A8
:107060000120704700207047FC06FFBD30B52A485C
:10707000A5B03C21006824902848807C8DF89200BF
:107080006846FFF776F902208DF8000001248DF89C
:10709000024006208DF803003C210FA8FFF769F994
:1070A00024A81F4D1490ADF84C402A1D684629684D
:1070B00000F0F4F920B11BA24FF4AB71FFF7AAF86E
:1070C000174A0FA80C32A96800F0E8F920B115A200
:1070D00040F25911FFF79EF818211EA8FFF749F951
:1070E00000208DF88D408DF87840ADF884001F9019
:1070F0008DF88C004FF4C850094920901EAAA1F1C8
:107100000C0072DF002804D006A24FF4B471FFF720
:1071100081F825B030BD0000E0B00200A82C0020AE
:10712000342B00202E2E5C2E2E5C2E2E5C6D616981
:107130006E2E6300FEB515460E46074672B602F087
:10714000B5FB00BF02F0EAF90028FBD12249234A2F
:107150000120891AC90800EB0144012F23D06FF4E4
:107160008050381822D0B0F5405F24D06FF44051E1
:10717000C84206D12B88204619A16A6802F0F3FAAA
:1071800004E0204632461DA102F0E6FA21480068DC
:10719000C00700D000BE2A4603B031463846BDE8DD
:1071A000F04000F079B820461BA101E0204622A162
:1071B00002F0CEFAEAE7A86802F04CFF0346D5E9F0
:1071C0000001CDE900100296204624A1AA6802F031
:1071D000D2FA20462BA1EBE710BD0200B0BC0200A2
:1071E000415353455254494F4E204641494C454422
:1071F0002061742025733A2575000000554E4B4ED2
:107200004F574E204641554C54206174203078250C
:1072100030385800F0ED00E0534F4654444556498D
:1072200043453A20415353455254494F4E2046411D
:10723000494C454400000000534F465444455649CC
:1072400043453A20494E56414C4944204D454D4F07
:107250005259204143434553530000004552524F79
:1072600052202575205B25735D2061742025733ABB
:1072700025750D0A50432061743A20307825303846
:1072800078000000456E64206F66206572726F7230
:10729000207265706F72740008B501238DF800309C
:1072A0009DF80030144B186059609A606FF480416B
:1072B000401807D001280FD1DA60D868008898619B
:1072C000D86807E01A611869806858611869006811
:1072D000986118694068D861186858689868D868D3
:1072E000186958699869D86972B600BF9DF800009E
:1072F0000028FBD162B608BDD0300020084B9B7837
:1073000023B12AB120B10068037C1BB1082070476B
:107310000720704700230374417442611846704788
:10732000F030002070B503F071FA104800240B21F2
:10733000047044700E4D817014206C602C706C7061
:10734000FFF78EFA06211420FFF7ABFA1420FFF79F
:1073500092FA0848046006211120FFF7A2FA0548B6
:10736000001F0068A860002070BD0000F030002001
:107370005C2B0020081501402DE9FC47DFF87890D0
:1073800099F8023073B368B3052902D20720BDE82B
:10739000FC87436933B3437C012B25D00027044687
:1073A0000025884616468DF80050684600F038F8EB
:1073B00001A803F013FEC8B1012101700F49446018
:1073C0000968C0E90218C0E904769DF8040089F84C
:1073D00001009DF8000000F047F81420FFF756FA6E
:1073E0002846D4E70820D2E70F46D8E704259DF8C1
:1073F000000000F039F8F3E7F030002004150140F8
:107400000649897839B130B1416921B1002101744F
:10741000022103F0DFBC082070470000F03000209C
:1074200030B5EFF3108172B60D4A9468012324B190
:107430000370002900D162B630BD93604FF0E023A5
:10744000D3F88051074C25401560C3F88041D3F82C
:10745000844154605A17C3F8842100220270E8E77F
:10746000FC310020FC06FFBD0B498A68002A11D0C0
:1074700000280FD1EFF3108072B60B684FF0E022B6
:10748000C2F800314B68C2F8043100228A6000283B
:1074900000D162B670470000FC3100202DE9FC47A6
:1074A000002517880646158090F82D001446894659
:1074B00030B13A462146484600F0E6F8051E09D1AB
:1074C000B0784FF00C0A18B32088C846001DB842A7
:1074D00002D95046BDE8FC87684679DF0028F9D11B
:1074E0002088032108F8001020881921401C80B250
:1074F000208008F800102088401C80B2208000EB1B
:107500000801BDF8000003F0C3FC21880844208076
:10751000F0780222C8B1218896F9033001F1030CFA
:107520004846BC45D5D8425421884FF0010C491C2F
:1075300089B2218000F801C02188491C89B22180CC
:1075400009F801302088401C20807068B8B121887B
:1075500090F9003001F1030C4846BC45B9D84254BB
:1075600021880A22491C89B2218042542188491C61
:1075700089B2218009F801302088401C20803089A0
:1075800050B1CDE900474B460622022106F1080022
:1075900003F03CFD051E9DD1308A50B1CDE9004776
:1075A0004B460722032106F1100003F02FFD051EB4
:1075B00090D1308B50B1CDE900474B4615221421B4
:1075C00006F1180003F022FD051E83D1306A30B1A8
:1075D0003B462246494600F034FE051EDBD1706A68
:1075E00030B13B462246494601F0FAF9051ED2D198
:1075F00096F82C0038B13B4622464946304603F007
:10760000A9F9051EC7D1307838B13B462246494614
:10761000304601F06FFA051EBDD128465AE700003A
:1076200070B5040012D001461C221448FEF788FEF3
:107630001248134D0560206850B17ADF002806D14A
:107640002068016829604068686005E00E2070BD10
:107650000B487BDF0028FAD108484FF6FF71143839
:10766000084A20F8041B0549343901600021FFF75E
:1076700045FE0028EBD0032070BD0000542D0020F3
:10768000442B002051AF02007CB5054608880C460B
:107690000930904201D90C207CBD68466DDF00287E
:1076A000FAD121880820685420881B21401C80B210
:1076B000208029542088401C80B220802844DDF896
:1076C00001100160BDF8051081802088801D80B206
:1076D00020809DF80010490800D0012129542088FD
:1076E000401C208000207CBD10B54FF0FF310020F1
:1076F0003DDF00280BD1B1213CDF002807D1044831
:10770000416901208847022002F0E6F9002010BDFF
:10771000583A0020044810B50068416900208847A5
:10772000BDE81040FFF7E0BFD82B002010B50028BF
:107730000FD00188214C502926D00BDC10291DD0F8
:10774000112906D1A1888088814202D14FF6FF70AD
:10775000A08010BD512913D05329FAD1C088E188E7
:107760008842F6D1607E0028F3D0FFF7D3FF0028CF
:10777000EFD06169BDE81040022008478088E7E744
:10778000BDE8104002F094BF30F8061F62899142B4
:10779000DFD141890229DCD10C3000F04EFB0849D1
:1077A000084A2076891AC908032202EB01430246DF
:1077B000BDE8104004A1184601F0CEBF583A0020A1
:1077C00010BD0200B0BC0200526563656976656455
:1077D00020696E6469636174696F6E20737461748B
:1077E00065202564000000002DE9F0410546007B7E
:1077F000042601272E4C012811D002282CD0022665
:10780000287B314600F08EF818B1206841690320CA
:107810008847206841690220BDE8F0410847206898
:107820004FF00008817E49B10621012000F07AF86E
:1078300000283BD0206841690320EDE7477601210D
:10784000084600F06FF8002830D02268112882F82E
:107850001980D5D10626D3E76A7B142A22D80AB329
:10786000DFF8508005F10E0108F10400FEF768FD15
:10787000697BC8F8181021684046897E0029BFD16D
:10788000A0F10C010A68011F904768B10F28B7D119
:1078900009480A49401AC00807EB0040084901F0AE
:1078A00057FFADE70526ABE720688776BDE8F08196
:1078B000D82B0020803A002010BD0200B0BC02008E
:1078C00018BB020070B5154900250A68002A24D0AB
:1078D0004A68002A21D00831904708281DD0104C52
:1078E0000028206885760ED00621022000F01AF8C4
:1078F00018B1206841690320884720684169022047
:10790000BDE8704008470121022000F00BF8002874
:1079100003D0206841690320F2E770BD743A00206B
:10792000D82B002086B00323ADF8003020238DF83B
:1079300014308DF8150000220E48019202928DF845
:107940001610C188ADF8041002218DF8061005A9A3
:107950000491ADF80820CDF80CD0808801A9AEDFE5
:10796000002804D1BDF80010032900D00C2006B077
:1079700070470000583A0020F8B5444C018805468D
:107980006688212960D01ADC4148424A1029A0EBC0
:1079900002004FEAD0004FF0030202EB004020D07B
:1079A000112945D013294ED100231A46852130468E
:1079B0007FDF002847D038A240F213210DE03B2999
:1079C0005AD052294DD056293DD18088132176DFD7
:1079D000002838D030A240F23521BDE8F840FEF74B
:1079E00019BC31A101F0B4FEA9886180314801F0D1
:1079F00039FA0546217A4FF0A04201208840C2F8AA
:107A000008052D4C28264FF47A47611C38468847D4
:107A1000761EFAD1FEF726FDFEF7D8FC2648083080
:107A200002F0FEFC28000ED01BA24FF40071D4E738
:107A300022A101F08DFEA06801F062FCFEF744FD7A
:107A40004FF6FF706080F8BD00200090A88869465E
:107A50008FDF0028F7D010A240F21F21FEF7DAFBDB
:107A6000F8BD00231A4619463046B1DF0028F7D08A
:107A700009A240F22521B0E78088132176DF002893
:107A8000EED005A240F22D21A7E70000282B002010
:107A900010BD0200B0BC02002E2E5C2E2E5C2E2EDD
:107AA0005C6D61696E2E6300436F6E6E6563746515
:107AB00064000000D42C0020F0B00200446973631D
:107AC0006F6E6E6563746564000000002DE9F04719
:107AD00001883B4E40F2F3194FF6FF7510291BD079
:107AE00011293ED0122954D0502946D1C188F2899B
:107AF000841D914241D1618902293ED18688304658
:107B000000F018FD050038D004F10C0000F099F9E0
:107B1000A8B3294630464EE0C17B87880446012938
:107B20002BD1A846284600F005FD050017D02F8070
:107B300000202872234843464A460168C5F80A10C7
:107B40004068C5F80E0004F1100105F10A0000F0CC
:107B500068FD6872F08900280FD129462AE00420C8
:107B600013E0808800F0E6FC040006D06068FFF7B0
:107B700047FC08B102F0BEFE2580BDE8F087FFE7B4
:107B80006868FFF73DFC0028F7D0BDE8F04702F039
:107B9000B1BE87880646384600F0CCFC0400ECD025
:107BA0002B464A4606F1080104F10A0000F039FDAF
:107BB000607221463846BDE8F04700F095BB0000F2
:107BC000542D0020442B00202DE9F04F07468588D6
:107BD00002883E48012197B08346102A09D0112A15
:107BE0004BD01A2A6ED1387AB1EB101F47D201223E
:107BF00046E0364C083CA068C0430B9061680BA877
:107C000000F0F7FF0B990CA800F0FCFA2C220CA94D
:107C10006846FEF795FB0026E946A04610E000BF47
:107C200009EB46005FF00004B0F804A008EB840004
:107C30005146001D00F0B1FF641C1D2CF6D3761CCC
:107C40000098B042ECD8142D07D317B0E321BDE85B
:107C5000F04F1FA20420FEF7DDBA2946584600F077
:107C6000B2FF294608F1040000F0ADFFF87B0128BF
:107C700028D016482946001D15E029461AE00022A2
:107C80000221B1EB101F01D2012600E000260F49AE
:107C9000083901F11000041D294682B100F093FF5C
:107CA00036B12946204617B0BDE8F04F00F08BBF33
:107CB0002946204617B0BDE8F04F00F06EBF00F037
:107CC0006CFFF5E717B0BDE8F08F0000782D0020BD
:107CD0002E2E5C2E2E5C2E2E5C2E2E5C2E2E5C2EDE
:107CE0002E5C636F6D706F6E656E74735C626C6535
:107CF0005C636F6D6D6F6E5C626C655F636F6E6E03
:107D00005F73746174652E630000000030B58DB040
:107D100004462F4B086860610FCB08AD85E80F0063
:107D200004F1120108A862DF00284FD1A07C8DF871
:107D3000320041F22350ADF8300022460CA9012058
:107D4000A8DF002842D120216846FEF712FB41F24D
:107D50002450ADF80000A07C01258DF80200ADF89C
:107D60000650F420ADF804008DF80C509DF80D007D
:107D70008DF8115040F012008DF80D008DF8135061
:107D8000208804F10A02694600F0FCF800281DD1A1
:107D900020216846FEF7EDFA41F22550ADF80000CB
:107DA000A07C8DF802009DF80D00ADF8065040F063
:107DB0000A008DF81150ADF804508DF80D008DF8C3
:107DC00012502088A21C694600F0DCF80DB030BDCE
:107DD00028B1020030B40288502A10D1034630F88E
:107DE000062F4C88A2420AD14289012A07D14C6948
:107DF000002C04D0027B9888A44630BC604730BC7D
:107E0000704786B0C823ADF81030A0F57F43FF3B24
:107E100011D00023009301930293039301238DF863
:107E200002304989ADF8001004A9CDE90212694673
:107E3000AEDF06B070470820FBE70078C0F34000D3
:107E40007047007800F001007047000008B502F0AC
:107E500027F820B10D4A4FF41271FEF7DBF900202C
:107E600000906946012001F095FE20B1074A40F2DA
:107E70004E21FEF7CFF9684601F026FF002804D016
:107E8000024A40F25221FEF7C5F908BD9889020066
:107E90000249085C012101F048BA000008B1020063
:107EA0000249085C002101F040BA000008B102005C
:107EB0002DE9F8430546861C00208DF80000904609
:107EC0000F464FF001096846FFF7AAFA1B4C2068DD
:107ED0003860D4E90001401AA16804F21C47081A6E
:107EE0000EE00121384600F07EFE00F075FC0146F0
:107EF000384600F078FED4E90001401AA168081A5B
:107F0000401C8642EDD8B8F1000F03D0052065F380
:107F1000891002E0062065F39F50A2682168114095
:107F200004EB8101C8602068304420609DF80000A7
:107F3000FFF79AFA4846BDE8F8830000AC3300200A
:107F400030B482680468531C8360A154D0E90112E4
:107F50008A4202D330BC01F09BB830BC70470000AD
:107F6000034803C8814201D10120704700207047B7
:107F7000AC3300200249084490F9300070470000FB
:107F8000FC2D00202DE9F0438146887891B0904681
:107F90000C4600B901208DF83E002088ADF83C0069
:107FA00000250095607C694602F018FD6E46A07CB5
:107FB000711C02F013FDE07B00289DF8020002D046
:107FC00040F0080001E020F008008DF80200217C5C
:107FD00011B140F0100001E020F010008DF8020017
:107FE000217B11B140F0010001E020F001008DF88B
:107FF0000200217D09B1022100E0012161F342006C
:108000008DF802001C2102A8FEF7B3F9607BC106BF
:1080100001D4800617D50E950EAFE07C791C02F0D6
:10802000DDFC9DF83800079720F00F00401C20F081
:10803000F00010308DF838009DF83A0020F006006E
:10804000801C8DF83A00607B8DF80800A07B8DF8CD
:108050000900142109A8FEF78CF90FA8CDE909063B
:10806000A088ADF83000A06820B1E088ADF82C0001
:10807000A0680D90A06998B301950088ADF8100034
:10808000A06901AD01A94088ADF81200A06940685F
:1080900006950390A069007B02F0A0FCA069691C12
:1080A000407B02F09BFCA069807A00289DF80600C6
:1080B00002D040F0080001E020F008008DF8060032
:1080C000A169C97A11B140F0100001E020F0100060
:1080D0008DF80600A169097A19B140F0010002E0AB
:1080E0000DE020F001008DF80600A169897B09B13F
:1080F000022100E0012161F342008DF80600E069F1
:1081000000B10590434609AA02A94846AADF11B06A
:10811000BDE8F08370B5084C050009D01034216823
:10812000002907D008682060496828468847F6E794
:108130000834F4E770BD0000E82D0020054A012155
:1081400020B1012805D19170FFF7E4BF51700020E4
:10815000FAE77047E82D00202DE9F05F26484168D6
:10816000F1B3DFF898B00E688146DBF8004087680D
:108170008078E11B21F07F45ED1CB0B9DFF88080ED
:108180004FF48030C8F84403C8F804031120FEF708
:1081900067FB1120FEF76FFB4FF0010AC8F800A043
:1081A0002F2001F0A5FF89F802A0B54200D2354684
:1081B000124BE8193C3320F07F401860DBF80010C8
:1081C0005A46091B21F07F41001B20F07F40C91C4B
:1081D00081420FD9106818602F2001F089FF00E05C
:1081E00004E0BDE8F05F1120FEF750BBBDE8F05F92
:1081F00002F00CBBBDE8F09F5C2B00200415014091
:108200000010014073B58CB00646002000900D9818
:1082100080B100246D4621460DA800F0C9FC30B1A4
:10822000009805EB400084800098401C0090641C7E
:10823000142CF0D32C2269463046FEF781F80EB09C
:1082400070BD2DE9F04117880646B81D14460D464D
:10825000984202D90C20BDE8F08131880722062916
:108260000AD34FF4486C4FF6FF73614501D9994228
:1082700002D17088062801D21046ECE7604501D98A
:108280009842F9D1994203D0984201D08142F3D863
:108290000520E85520881221401C80B220802954F6
:1082A0002088401C80B220804119308802F0F0FD07
:1082B0002188084480B220804119708802F0E8FDCE
:1082C0002188084420800020C5E7000002A24FF466
:1082D000E071FDF79FBF00002E2E5C2E2E5C2E2E2F
:1082E0005C6D61696E2E630038B54A7A0F4B62B1DE
:1082F00000220A725969002906D001228DF8002057
:10830000ADF802006846884738BD0A7A62B19B68BA
:108310004C68024619462046FFF72EF80028F3D095
:10832000BDE8384002F0E6BA5B68F1E7542D002062
:1083300070B588B00646002005900690ADF8141080
:10834000ADF816100190029001AA05A9304690DF01
:10835000050021D001F07EFE034611481149324646
:10836000401AC108012000EB014004460E4901F00B
:10837000FAF9BDF8042012B9BDF8060028B1BDF81D
:108380000630204609A101F0EEF9BDF808201AB127
:108390002046164901F0E0F908B0284670BD0000FB
:1083A000B0BC0200B0BC020050B4020054686520AA
:1083B0007265717565737465642054582F52582026
:1083C0007061636B6574206C656E67746820697397
:1083D00020746F6F206C6F6E672062792025752F77
:1083E0002575206F63746574732E00009CB40200C1
:1083F00010B50021024800F007FC80F3100010BD0A
:10840000C83700200E4910B50A784C780023A242E4
:1084100012D0521CD2B20A70022A00D10B70084A44
:108420000B780C3252F8232002608868104420F048
:108430007F408860012010BD0360002010BD000057
:108440005C2B00200EB516A19DF8080020F00F004F
:10845000401C20F0F00010308DF80800082202A81F
:108460007CDF20B1114A40F22511FDF7D3FE002038
:1084700000900190ADF8040010214FF4C870ADF8E1
:108480000010ADF80600ADF8021068467ADF00284B
:1084900004D0064A40F22F11FDF7BCFE0EBD0000CD
:1084A0004C4D4C5F45454732000000009889020062
:1084B0001FB5134A0023D2E90601526ACDE9000133
:1084C00002208DF8030006208DF8020005208DF8AB
:1084D000010003208DF800004FF0804002900392CD
:1084E00001208DF80C0006481A466946083000F055
:1084F0007FFD002803D003A21D21FDF78BFE1FBDC9
:1085000050B102002E2E5C2E2E5C2E2E5C2E2E5C88
:108510002E2E5C2E2E5C64726976655C414453316C
:108520003236582E63000000014801F0D3BE00002F
:108530005CB102000146034802888A4200D0002054
:1085400070470000402D00202DE9FC5F0E0083469F
:10855000DDE90C47C6F1000098469246814600D4FA
:108560000846012503E000BF90FBFAF06D1C504562
:10857000FADAA84500D9454624B1002E01DB780778
:1085800000D5641EB80702D5B8F1000F0AD0F8076D
:1085900008D13CB1A54205D220215846641EFFF700
:1085A000CFFCF6E7002E02DA4E462D2102E07807D6
:1085B00003D52B215846FFF7C3FC07F00300022820
:1085C0000BD1B8F1000F08D13CB1A54205D2302142
:1085D0005846641EFFF7B4FCF6E7CDE90047434672
:1085E00052463146584602F059FCBDE8FC9F02460F
:1085F00000201268530713D502F00300012802D0AF
:1086000002280CD105E0C2F383100B68801C1844CB
:1086100004E00223086803EB925210440860012032
:108620007047F0B58488A518944200D82246A41A51
:10863000C288D6189A4200D81346D21A4B880788A7
:10864000BB420CD34088834209D88888A04206D315
:10865000A84204D8C888904201D3B04201D9002072
:10866000F0BD0120F0BD00000B480C4910B5401AC8
:10867000C008032101EB00444FF0020022B1FFF7D4
:108680000FFC204606A103E0FFF702FC204609A1EB
:10869000BDE8104001F05CB810BD0200B0BC0200A3
:1086A0005265636569766564204C4544204F4E21D0
:1086B000000000005265636569766564204C45449E
:1086C000204F464621000000F721018017214180FC
:1086D0000021017141711B218171C171704700003E
:1086E0002DE9F047394E002780463D46DFF8E090FF
:1086F000D6F804A057E003D00446D0F81C8035E03B
:1087000099F8002002EB4201521CD2B289F80020F5
:1087100009EBC10199F80230091D9A4201D189F88B
:10872000005048680A780446012A12D0022A02D072
:10873000032A3BD108E002F01DFB00B1012725749C
:1087400034E00574C06900E070680028F9D17060F9
:108750002CE0207C50BB88686060C868A060086915
:10876000E0604869A061F07800B165606268B16856
:10877000184B501A20F07F40984202D2A16808445A
:1087800006E0881AA16820F07F40814202D9081AC9
:10879000206000E0256065600120A560207420460F
:1087A000E56102F0C9FAB8F10000A4D199F800100F
:1087B00099F801008142A3D117B97168514502D0DF
:1087C0000120BDE8F0870020FBE700005C2B0020C3
:1087D000F0300020FFFF7F002DE9FF4100262348F5
:1087E00000F0FEF92148001F074600F0F9F9204C7F
:1087F00060680090A56800E000986946284004EB96
:1088000080000C30FFF7F3FE0028F5D101AA009993
:1088100001EA050304EB8303491CDB6842F82030BE
:10882000401C00910228F2D3019800F003000128B7
:108830000BD0022810D10198032101EB9050009930
:10884000BDF80A6001EB900005E00198BDF80A60F0
:10885000C0F3831008440090384600F0BEF908B118
:108860000098606004B03046BDE8F081C437002055
:10887000AC33002088B04FF40041002000F0E0FF4E
:1088800020B145A24FF42371FDF7C4FC00F038FE7F
:10889000FEF748FD20B140A240F21111FDF7BAFCED
:1088A00001F0E4F820B13CA24FF42671FDF7B2FCD0
:1088B000FFF7CCFAFFF7C6FD00213B4800F019FA9C
:1088C00020B135A24FF49C71FDF7A4FC374D002474
:1088D0000122A868009423461146019400F0D1FCBF
:1088E000A86800F00DFD324801A9CDE900402E48EE
:1088F000143000F0C2FA20B127A240F29911FDF71E
:1089000089FC2C480090284869461838FFF7FEF982
:1089100020B121A240F29F11FDF77CFCFEF7A6FBDF
:108920001C216846FDF725FD4FF42030CDE90040BD
:108930004FF4702002902048059003261F488DF8C0
:108940000C600690ADF80E408DF810406846FEF7BA
:1089500067FE20B110A240F2D711FDF75BFC18486A
:108960001849401AC00806EB004017A100F0F0FEBD
:108970000121287873DF20B107A24FF4F171FDF7D0
:1089800049FC0020FFF78CFA00F0C8FD0028FBD15D
:1089900001F080F8F8E700002E2E5C2E2E5C2E2EC3
:1089A0005C6D61696E2E6300C02C0020282B0020B6
:1089B000159B02006986020029A50200CD820200F3
:1089C00010BD0200B0BC020041444737323520657B
:1089D00078616D706C6520737461727465642E00CB
:1089E00070B5144682880E4605462088111D014444
:1089F000921C994201D8FE2A01D90C2070BD521C4C
:108A000032542088FF21401C80B2208031542088BD
:108A1000401C80B220808119288802F039FA218810
:108A2000084480B22080AA8842B1A96841B130448C
:108A3000FDF786FC2088A98808442080002070BDAE
:108A4000072070BD2DE9F047C5881E1DB6FBF5F760
:108A50008946B6FBF5F1044605FB176C40791668AC
:108A60006843DDF820A0F718001F874200D9C61A16
:108A7000166001E02468491E0029FBD1A5EB0C0714
:108A80008846B74216D818E004EB0C00001D09EB2D
:108A90000803BAF1000F3A4602D00146184600E03A
:108AA0001946FDF74DFC2468F61B4FF0000CB84446
:108AB000B54201D9374600E02F46002EE4D1BDE88B
:108AC000F087000030B5024651B100F0D7FE00211A
:108AD000074C08E034F821301568AB4202D1116030
:108AE000002030BD491C8142F4D3052030BD000078
:108AF00000000000F8B50F4601781446054601292C
:108B000001D1687830B12088821C9A4232D801297C
:108B100002D006E00720F8BD69780144891C99421B
:108B200028D8181A801E86B2ADF800602188B81CBB
:108B3000084469467DDF0028EDD12978022904D058
:108B40006878BDF80020904205D3BDF80000B0421F
:108B500001D809200AE00820012905D16978B1422D
:108B600002D8ADF8001001E0ADF80060BDF80010CB
:108B7000FE2901D90C20F8BD2288491CB95421884E
:108B8000491C89B2218078542088401C2080BDF87F
:108B90000010084420800020F8BD01F01F030122CE
:108BA0009A40D243490900EB8100114600F021B8F8
:108BB0004A0950F8220001F01F02012191400840AB
:108BC00000D00120704701F01F0301229A4049099B
:108BD00000EB8100114600F01CB8002100F00FB836
:108BE000012100F016B808B56A46FDF754FB00985D
:108BF00008BD08B56A46FDF734FB009808BD08B506
:108C00006A46FDF72EFB08BD08B56A46FDF710FB66
:108C100008BD08B56A46FDF717FB009808BD08B502
:108C20006A46FDF745FB009808BD38B504460025A7
:108C30008DF800506846FEF7F3FB2168626808680B
:108C400090420ED9401E08600178238AE26801FB39
:108C50000325227A2168101AC0B20A79824200D212
:108C600008719DF80000FEF7FFFB284638BD38B5B7
:108C7000054600208DF800000C466846FEF7D0FB44
:108C8000E868298A201AB0FBF1F12A681068431CB1
:108C9000136001709DF80000FEF7E6FB38BD10B5CB
:108CA00030B1017A42680368891AC9B21A6006E0D5
:108CB0000E2010BD03681A68541C1C601170491EF8
:108CC000C9B2F7D2006800210171084610BDC20880
:108CD00000F007030120895C98400840704710B5F8
:108CE000C20800F00703885C01249C40204388549C
:108CF00010BD10B560B10161F72120F8021B20F80A
:108D0000021B1B2100F8021BFFF7DEFC002010BD38
:108D10000E2010BDF0B5858893B00C46002D39D1DA
:108D2000018800263F4F24293BD006DC102909D0BA
:108D300011290CD0232958D14FE03A290BD05529BD
:108D400053D129E00146204601F008FC4DE0A01D6A
:108D5000FFF7BAFC49E02246408934F8061F8142F9
:108D600000D808466080172800D21720608010695C
:108D700070B1607960B1D7E90001CDE90301ADF8C8
:108D80000E506088ADF81000136903A9104698478B
:108D90006671267113B0F0BD0146204601F032FC29
:108DA00023E0011D2C2206A8FDF7CAFABDF8180021
:108DB000BDF81C2004EBC0014A732269AAB1D7E9AF
:108DC0000423CDE90423ADF81200487B8DF814008C
:108DD0002269204604A9904707E0017A207B884257
:108DE00000D201462846FFF7A3FAA07A0028D1D086
:108DF000E1882846A5DF012580B11128CAD001F0FD
:108E000029F902460848094913B0401AC00805EB81
:108E10000040BDE8F04006A100F09EBCA672E572DD
:108E2000B8E7000010B10200B0BC0200B0BC020004
:108E300073645F626C655F67617474635F657863B8
:108E400068616E67655F6D74755F72657175657376
:108E50007428292072657475726E65642025732EDE
:108E60000000000020B10278DE2A03D008207047FD
:108E70000E20704741800020704760B159B10278E0
:108E8000DE2A0AD009684160DE2101704FF6FF71C9
:108E90004180002070470E207047082070477FB542
:108EA000054600294DD0002D4BD008780C46DE2811
:108EB00047D1A8886188884202D1204602F07CF818
:108EC0002888012825D002283BD011283AD05128E3
:108ED00037D135F8040F6188884232D1A978A81CAF
:108EE00002292ED1017A042903D0062901D00529AF
:108EF00027D10021009102228DF8002001914FF42A
:108F0000C07202910391ADF80420007A05280FD0B9
:108F100010E0297A2046012913D1A988428891427C
:108F20000FD10121017204B0BDE8704002F044B8D5
:108F3000ADF8041028886946B0DF002801D06168C8
:108F400088477FBDA88861888842FAD14FF6FF70B4
:108F500060807FBD00F180400068002800D00120C3
:108F6000704708B500F18040002101600068009062
:108F700008BD70B5040006D04FF47A75284601F09C
:108F8000AFF8641EFAD170BD70B50B4C207808B1F3
:108F900085250FE00020A06060602061E060074848
:108FA00001F080F8054600F0C7FF08B901F062F84B
:108FB00001202070284670BDE82D00203D81020070
:108FC00038B500258DF800506846FEF729FA074CA1
:108FD000E068401EE060E06810B901F073F8A57029
:108FE0009DF80000FEF740FA38BD0000E82D002093
:108FF0002DE9FF411C460378164D174E45F82320F6
:109000000C3545F82340F0CE8DE8F0000C788DF853
:1090100000404C788DF801408C788DF80240CC7877
:109020008DF803400C798DF805404C798DF8064099
:109030008C6802940C7B8DF80C40497B8DF80D10E8
:1090400002B1064A6946001D01F088F804B0BDE887
:10905000F0810000942E00203CB1020039AB0200E8
:109060001FB5001D069C8DE81E000022694601F018
:1090700075F904B010BD0FB408B50399002904D0E8
:1090800004AA00926A4600F00FF801B05DF814FBE4
:1090900010B582680446002A05D0D4E9040321688B
:1090A00098470020A06010BD2DE9FC4791460C00B8
:1090B000804676D014F8011B39B125290ED04046E0
:1090C000FEF73EFF20780028F4D198F80C00002825
:1090D00067D04046BDE8FC47FFF7DABF0020012219
:1090E00021782B291BD02D2902D0302908D102E06C
:1090F00040F0010001E040F00200641C002AEFD1C2
:1091000000252A290ED02178A1F130020A2A11D295
:1091100005EB850201EB4205641C303DF1E740F0B0
:109120000400EAE7D9F800100B1DC9F800300968FF
:10913000641C0D44217800232E290BD114F8011F43
:10914000A1F130020A2A05D203EB830201EB4203AC
:10915000303BF3E76C290DD068290BD0692921D069
:109160000BDC252918D0582931D063290ED0642969
:1091700015D117E014F8011FECE7702969D07329A5
:1091800032D075291BD0782909D120E0D9F8000008
:10919000011DC9F8001001784046FEF7D1FE641C9D
:1091A00090E76CE0D9F800100A1DC9F800200968A2
:1091B000CDE900500A224046FFF7C6F9EFE7D9F89B
:1091C00000100A1DC9F8002009680A2206E0D9F833
:1091D00000100A1DC9F8002009681022CDE90050CE
:1091E000404601F05BFEDAE7D9F8001000270A1DBF
:1091F000C9F800200E68C00705D112E04046761C71
:109200007F1CFEF79DFE31780029F7D104E0202174
:1092100040466D1EFEF794FEBD42C0D9002DF6D12A
:10922000BDE74EB13046FDF7AFF8074604E0202118
:1092300040466D1EFEF784FEBD4206D9002DF6D1D4
:1092400003E04046761CFEF77BFE31780029F8D11A
:10925000A5E7D9F80000011DC9F800100568302104
:109260004046FEF76DFE78214046FEF769FE082075
:109270000021CDE90001034610222946B0E7BDE8F0
:10928000FC8770B541EA4201DDE904564FF0A04485
:1092900041EA830141EA052104EB800041EA0641ED
:1092A000C0F8001770BD70B541EA4201DDE904560F
:1092B0004FF0A04441EA830141EA052104EB80001C
:1092C00041EA0641C0F8001770BD1CB500210091AD
:1092D0000B46012201911146FFF7E5FF1CBD4FF03F
:1092E000A04202EB8000D0F8002722F44032C0F800
:1092F0000027D0F8002742EA0141C0F80017704764
:109300004FF0A04201218140C2F80C1570474FF088
:10931000A04201218140C2F80C1570474FF0A042D5
:1093200001218140C2F80815704701224FF0A04387
:10933000824011B1C3F808257047C3F80C25704767
:1093400018B5084B6C4601441B68009306E000BF4B
:1093500054F82030D3F81035401C08C28142F7D8A9
:1093600018BD000038B10200034908B508440021C7
:1093700001600068009008BD00600040024940584C
:10938000012800D0002070470060004030B5154A29
:1093900001460020D2F8104423460AE0DB681D791C
:1093A000854205D1401C0A28F6DB4FF0FF3030BD66
:1093B0001B68002BF2D1431CF9D0CB681871D2F88E
:1093C000103443B1DB68CC681B682360D2F81024EA
:1093D000D268116030BDC2F81014C96800220A605A
:1093E00030BD0000AC3300207047FDF74DBB704727
:1093F00008B5034A00924023024A00F005F808BD70
:1094000005A9020014320020F0B595B01C4615469F
:109410000F4608461A9E00F003FB182109A8FCF726
:10942000A8FF0E96CDE909540023082203A9384667
:1094300000F00BFB05980690BDF81000ADF81C007D
:10944000BDF81200ADF81E0000208DF82100039831
:10945000082600F00300012802D0022818D032E0CC
:1094600003983346850AC0F3C2008DF820000398A4
:109470000FA9C0F38314A200384600F0E6FA09A849
:10948000009006AB22460FA9284600F025FA1AE004
:109490000398840DC0F3C2008DF82000082C01D27F
:1094A000254600E0082533462A460FA9384600F035
:1094B000CCFA2E44641B09AB06AA29460FA800F07B
:1094C00069F9002CEAD1384600F0B0FA15B0F0BDC9
:1094D0000A4A012902EBC00007D0022907D003295C
:1094E00007D0042907D000207047022070470420CD
:1094F000704700797047407970470000B0BC0200A7
:1095000010B5FFF772FF04210348FFF73FFF024940
:109510000120C968487110BDA0BC02002DE9F04FC0
:109520008DB0FEF71DFD18B100200DB0BDE8F08F25
:109530007E4C4FF0000BC4F818B4BFF34F8F606837
:109540000290A568D846284004EB80000CE000BFDC
:10955000D4F8180470B921680298814201D861607A
:10956000E2E7284004EB80000C3002A9FFF73FF847
:109570000028EDD1002005AA029901EA050304EBB9
:109580008303491CDB6842F82030401C029102280A
:10959000F2D3059800F00300022802D001284DD034
:1095A000AAE005985022810D8946B2EB905F00D861
:1095B00050210E4666F39F50059008315C4800F03C
:1095C000E6F9070078D000F02BFA4346082205A9F7
:1095D000384600F042FA029908F1080A2940681A50
:1095E0008000001D864222D9504D0C3530B1C2B2E8
:1095F00004EB8101301A90460C3104E02946F2B2A6
:10960000002590462846C6B25346384600F025FA53
:109610000AEB080325B132462946384600F01DFA08
:10962000029909F1030001EB900002903BE004EB8A
:1096300081015346324638460C31EFE70598C0F3B6
:109640008310062800D30620059960F38911C1F321
:109650008310801C05918100354800F098F90700BF
:109660004AD000F0DDF94346082205A9384600F04B
:10967000F4F908F1080800260FE00298434600EAD2
:109680000501401C04EB81010290042238460C3194
:1096900000F0E3F908F10408761C0598C0F3831084
:1096A000B042EAD847B1D4F81054D4F8180478B1CD
:1096B000384600F0BBF934E01EE0E8684079012844
:1096C00004D12A682846394612689047E868056838
:1096D000002DF2D1384600F0A9F98DF800B06846A7
:1096E000FDF79EFED4F8180408B9029860609DF852
:1096F0000000FDF7B9FE14E0D4F8104405E021683D
:10970000204689688847E0680468002CF7D109483A
:109710000949401AC008022101EB004007A100F0EE
:1097200017F8FEF71DFC80F00100FEE6AC330020C8
:1097300030BD020010BD0200B0BC02004261636B8C
:10974000656E647320666C75736865640000000064
:1097500000231A4601F06ABA08B5012300926A464E
:1097600001F064FA08BD1CB5CDE9002302236A4666
:1097700001F05CFA1CBD70B586B00DF1280C9CE8B8
:1097800070008DE87C0005236A4601F04FFA06B0B0
:1097900070BD00002DE9F0470E4680461C469246FB
:1097A00008293ED894F80C900020207319461046E2
:1097B00000F0D4FF0025B54206D218F805201AA102
:1097C0002046FFF758FC03E019A12046FFF753FCA1
:1097D0006D1C082DEFD317A12046FFF74CFC002588
:1097E000B54210D218F80570FCF7A6FD0068C05D00
:1097F00010F03E0F01D03A4600E02E220EA1204686
:10980000FFF739FC03E00DA12046FFF734FC6D1C87
:10981000082DE5D301222146504600F081FF84F84F
:109820000C90BDE8F0870000202530327800000061
:10983000202020007C0000002563000020000000A4
:109840000B4810B5FF218160002101604160C0F824
:109850001814C0F8141480F82014064800F0E4F836
:10986000002803D1044800F063F9002010BD000077
:10987000AC33002030BD020018B302000248034997
:10988000401AC0087047000030BD0200B0BC0200A2
:1098900013B56846FFF716F908B100201CBD024851
:1098A000009950F831001CBDB0BC020070B50948E9
:1098B0000125D0F8104480F8205407E0E068457195
:1098C0002168204649688847E0680468002CF5D183
:1098D00070BD0000AC3300202DE9FF4781460C9D90
:1098E00000200C462F7B28739846164629461846BA
:1098F00000F034FF072E42D2DFE806F004090F160D
:109900001F2A360049462846FFF7B5FB37E049468F
:1099100028462268FFF7AFFB31E0D4E9002349462F
:109920002846FFF7A8FB2AE0A0680090D4E90023AE
:1099300049462846FFF79FFB21E0D4E90201CDE923
:109940000001D4E9002349462846FFF794FB16E0BE
:1099500004F1080007C88DE80700D4E90023494650
:109960002846FFF788FB0AE004F108000FC88DE8DD
:109970000F00D4E9002349462846FFF77CFB00226C
:109980002946404600F0CCFE2F73BDE8FF872DE945
:10999000F041058A80462D1F4819C01CB0FBF5F028
:1099A000C6B24046FFF741F9041E19D000202071CD
:1099B00001206071E58000272546761EC4F80080EE
:1099C0000BE04046FFF731F960B16179491C6171E4
:1099D000286005467F1CC0F80080B742F1D32046BE
:1099E000BDE8F081204600F002F80020F8E72DE9FC
:1099F000F041457901466B1E002201E00968521CC6
:109A00009A42FBD30F680146002605E038460C68F1
:109A1000FFF72DF92146761CAE42F7D3BDE8F08161
:109A20000121001DFFF7DFB8FFF739B910B5044673
:109A30000121001DFFF7F3F810F0FF0F04D12046BD
:109A4000BDE81040FFF7D3BF10BD1CB50192012245
:109A5000009201AAFEF7F6FF1CBD1CB50192002280
:109A6000009201AAFEF7EEFF1CBD0000064910B5EA
:109A700000204870091D0860BFF35F8F0349044848
:109A800000F0A0FA002010BD702B0020B0B1020041
:109A90000832002008B500208DF800006846FDF768
:109AA000BFFCF1EE100A20F09F00E1EE100ABFF3B8
:109AB0005F8F08494020C1F880029DF80000FDF743
:109AC000D3FC00F039FA08B141DF08BD20BF40BF28
:109AD00020BF08BD04E000E070B504460C48012139
:109AE000FFF792F8BFF35F8F0025002809D101200E
:109AF000074E042C08D0311F4A781AB1BFF35F8F8C
:109B0000356070BD0C70487000F080FFF6E7000013
:109B1000742B002002A240F27511FCF77BBB000001
:109B20002E2E5C2E2E5C2E2E5C6D61696E2E6300D7
:109B30008268002191608268116182685161826847
:109B4000D16082685160806801607047024A10608D
:109B5000101D0160704700002C76004002494058FB
:109B6000002800D00120704700700040034908B56C
:109B70000844002202600068009008BD00700040A8
:109B800020B1034909680160002070470E2070472A
:109B90009CB302002DE9FE4307460E460846FFF738
:109BA000EFFF00287DD100240094019406208DF859
:109BB00000704FF00108ADF8040002948DF80280A7
:109BC00069462020326869DF3749384A891AC9084E
:109BD000012202EB014530B100F03CFA0246284672
:109BE0003349FFF7B9FD00948DF801808DF80240EC
:109BF000019402948DF8034069464020326869DF81
:109C000030B100F027FA024628462A49FFF7A4FDA2
:109C100000948DF80070F720ADF8020001940294D2
:109C200069462320326869DF30B100F013FA02463A
:109C300028462149FFF790FD00940A208DF8000086
:109C40000194029469460120326869DF30B100F066
:109C500001FA024628461949FFF77EFD4FF4B0602D
:109C60000090019402946946A120326869DF30B106
:109C700000F0F0F9024628461149FFF76DFD009407
:109C8000019402948DF800406946A020326869DF93
:109C900030B100F0DFF9024628460A49FFF75CFDC3
:109CA0000020BDE8FE83000020BD0200B0BC020021
:109CB0003CBA020084BA0200D0BA02009CB9020089
:109CC000E8B9020048B902002DE9F04105460768ED
:109CD00060DF804619491A482A68081AC608BA423D
:109CE00019D9022000EB064416A12046FFF730FDEB
:109CF00020463A461FA12B68FFF735FD4FF08050F4
:109D0000D0F80C012968800200F10050421A204668
:109D100025A1FFF721FDB8F100004FF001040AD0A2
:109D200000F098F9024604EB06402AA1FFF714FD63
:109D30004046BDE8F0812F480470F9E720BD0200DD
:109D4000B0BC0200496E73756666696369656E74BE
:109D50002052414D20616C6C6F63617465642066B4
:109D60006F722074686520536F667444657669630A
:109D7000652E00004368616E676520746865205237
:109D8000414D207374617274206C6F636174696FEC
:109D90006E2066726F6D203078257820746F2030C9
:109DA0007825782E000000004D6178696D756D2072
:109DB00052414D2073697A6520666F722061707020
:109DC0006C69636174696F6E2069732030782578DF
:109DD0002E00000073645F626C655F656E61626C8B
:109DE0006528292072657475726E65642025732E4E
:109DF00000000000D72B002030B51748ADF5017DDD
:109E00000078002825D04FF4FA7400BFADF8004266
:109E100080A9684661DF50B105281AD00DF5017D93
:109E20000EA2BDE8304040F23911FCF7F3B96D469F
:109E30001A497DA800F0C6F807E000BFD0E900216C
:109E4000284690477DA800F0D4F87F980028DDD000
:109E5000F4E70DF5017D30BDD72B00202E2E5C2EB2
:109E60002E5C2E2E5C2E2E5C2E2E5C2E2E5C636FB6
:109E70006D706F6E656E74735C736F667464657617
:109E80006963655C636F6D6D6F6E5C6E72665F7348
:109E900064685F626C652E6300000000A0B302007E
:109EA0007CB5194C207808B108207CBD0120A07039
:109EB000002000F0F1FC112819D0002000F004FD72
:109EC00012480026006801908DF800606846FDF792
:109ED000A7FA0F4901A810DF05000AD00020207062
:109EE0009DF80000FDF7C0FA2DB128467CBD00208A
:109EF0007CBD0120F3E7A670667000F0D1FD012063
:109F000000F0E2FCF3E70000D42B002034B30200A1
:109F1000357102000EB50749684600F053F805E0B8
:109F2000D0E900108847684600F063F802980028DE
:109F3000F6D10EBD50B30200014800787047000012
:109F4000D42B00201FB568464BDF40B1052816D042
:109F500004B00BA2BDE810406B21FCF75BB91849B7
:109F600001A800F02FF806E0D0E900210098904702
:109F700001A800F03EF803980028E4D0F4E71FBDE4
:109F80002E2E5C2E2E5C2E2E5C2E2E5C2E2E5C2E0B
:109F90002E5C636F6D706F6E656E74735C736F664D
:109FA000746465766963655C636F6D6D6F6E5C6E1E
:109FB00072665F7364685F736F632E6300000000F6
:109FC000BCB30200016009684160AFF3008010B5C6
:109FD000D0E900215368994201D1002104E0D1E980
:109FE0000034A34202D01946816010BD083141609F
:109FF000F0E7816800290BD0026892680A44826009
:10A0000041684B689A4203D108314160FFF7DFBFD6
:10A0100070474058002800D0012070470C4A10B506
:10A0200002F594730EE0991AC91001EBD171491031
:10A0300002EBC1010C68844201D90B4602E005D253
:10A0400001F108029A42EED3002010BD486810BD0D
:10A05000D0B1020000B5FFF7E1FF002800D10148B0
:10A0600000BD0000BCB1020008B5002242504058BB
:10A07000009008BD09480068012110F0010F08D1C7
:10A080004FF0E020C02280F80024C0F88012C0F811
:10A0900000110349012008607047000000E100E062
:10A0A000180500400649024600200B790BB18520B7
:10A0B00070470A6001220A7100224A71704700004D
:10A0C0004C2B002004490120086004480168C1F3BA
:10A0D00000410029FAD170470C00004018040040EC
:10A0E000002802D0014980010847704751B10200A1
:10A0F000002802D0014980010847704781B1020061
:10A100000121B1EB507F01D1012070470020704741
:10A1100038B50D4600F06EFB040014D000208DF819
:10A1200000006846FDF77CF9207928B19DF8000011
:10A13000FDF79AF9112038BD0120256020719DF8A6
:10A140000000FDF791F9002038BD10B500F052FB7A
:10A15000002802D000210160017110BD2DE9FC47EB
:10A160000C46154601798046584A01EBC10002EBC6
:10A1700080069946307F10B10820BDE8FC87544A1C
:10A18000D8F80000074652F82110FFF7C1FF08B1C8
:10A190001120F2E7C6E90059207B0128207802D877
:10A1A000FFF7B5F801E0FFF7B9F84FF0000ACDF876
:10A1B00000A0CDF804A02078534652460121FFF7B5
:10A1C00072F860784FF0FF35FF2806D08146FFF720
:10A1D0009EF84846FFF779F800E0A946A078FF28E6
:10A1E00009D0002205465346CDF800A01146CDF80F
:10A1F00004A0FFF758F8A07886F82000E078F07700
:10A20000E078FF280BD0217911B1FFF780F801E049
:10A21000FFF784F8E078FFF758F82079B0772178D5
:10A22000C7F80815C7F80C95C7F81055A068C7F807
:10A230002405217B607B00B10120012904D0022983
:10A2400005D0032908D105E040F0020004E040F009
:10A25000040001E040F00600C7F85405A079C7F8F3
:10A26000C005306810B14020C7F804030720C7F8C4
:10A2700000053068012118B3D8F80000627940F376
:10A28000073000284FEA421206DA00F00F0000F112
:10A29000E02080F8142D03E000F1E02080F8002495
:10A2A000D8F8000040F3073000F01F0301FA03F272
:10A2B0004009800000F1E020C0F88022C0F80021B1
:10A2C000504686F81DA0317757E70000AC2E0020DD
:10A2D0004CB102002DE9FC41074600791D4900EB15
:10A2E000C00001EB80040121206860B1386840F3B0
:10A2F000073000F01F0201FA02F24009800000F16D
:10A30000E020C0F880213D682068002670B1124826
:10A31000C5F80803607F48B169614FF4827841460F
:10A320002846FFF776FE0028F9D0667794F82000DB
:10A33000FF2806D000230096012219460196FEF759
:10A34000B2FFC5F800653868FFF7FFFE2677BDE865
:10A35000FC810000AC2E0020520108002DE9F041E4
:10A3600005460F460079154900EBC00001EB80045B
:10A370001646607F10B11120BDE8F081206820B141
:10A3800016F0140F01D10120607797E80F0004F157
:10A390000C0888E80F00E07FFF2806D0A17F11B1EC
:10A3A000FEF7BCFF01E0FEF7B2FF33463A46214616
:10A3B0002868BDE8F04100F0DBBB0000AC2E0020B7
:10A3C00000680121C16070472DE9F04106460D4645
:10A3D0004FF4803400681746AC404BB14FF4A07185
:10A3E00001EB8501FFF740FE3068C0F8044301E04F
:10A3F000C0F80843306800EB8500C0F84075BDE840
:10A40000F08100000268012111610079034A00EB2C
:10A41000400002EB8000017270470000582E0020BF
:10A42000016801220A600079034A00EB400002EB58
:10A430008000022101727047582E0020F0B4046899
:10A44000049E40F20115D4F800728D40AF43C4F869
:10A4500000720468D4F800521D43C4F80052334619
:10A46000F0BCFFF7B1BF00002DE9F04104460E46F5
:10A4700000792C4900EB400001EB8007387A10B1DD
:10A480000820BDE8F0813A60706800254FF4A0789C
:10A49000786006E008EB85012068FFF7E5FD6D1C9C
:10A4A000EDB26079A842F5D82068F17840F3073022
:10A4B00000284FEA411106DA00F00F0000F1E02019
:10A4C00080F8141D03E000F1E02080F800142068FB
:10A4D000012240F3073000F01F0302FA03F14009A4
:10A4E000800000F1E020C0F88012C0F80011206860
:10A4F0007178D0F8043561F30103C0F804352068A1
:10A50000B178D0F8083561F30103C0F80835206848
:10A510003178D0F8103561F30303C0F810353A7282
:10A520000020AEE7582E0020007800280AD1064807
:10A530003B21408876DF002804D004A240F2B51108
:10A54000FBF768BE70470000282B00202E2E5C2EE3
:10A550002E5C2E2E5C6D61696E2E630070B58D8849
:10A56000027900EBC5042273C97BA41D012902D026
:10A57000022904D101E0008800E040882080218881
:10A580006088814211D92846A5DF0126B0B1112883
:10A5900016D0FFF75FFD02460B480C49401AC00871
:10A5A00006EB00400AA1FFF7D7F8A179E0798142D4
:10A5B00008D92846BDE87040FDF7BABE6671F4E7D9
:10A5C0002671F2E770BD0000B0BC0200B0BC020012
:10A5D00073645F626C655F67617474635F65786301
:10A5E00068616E67655F6D74755F726571756573BF
:10A5F0007428292072657475726E65642025732E27
:10A60000000000007CB506468D88C88806EBC504AE
:10A61000A41D172800D217202188814200D808469F
:10A6200060800020207121882846B5DF60B1FFF7E7
:10A6300011FD02460F481049401AC008012101EBE4
:10A6400000400EA1FFF788F86079002810D130692A
:10A6500000280DD01549D1E90201CDE90001ADF87E
:10A6600002506088ADF80400326969463046904770
:10A670007CBD0000B0BC0200B0BC020073645F622D
:10A680006C655F67617474735F65786368616E673A
:10A69000655F6D74755F7265706C792829207265CD
:10A6A0007475726E65642025732E000010B102006F
:10A6B0007FB51A4D8188AA8891422DD110F8061FC6
:10A6C000022929D14188EA88914225D1017A0429B9
:10A6D00022D0062920D005291ED0841C00200090FD
:10A6E00002210190029003908DF80010297E19B18B
:10A6F00001218DF8061001E040F2FD10ADF80400D4
:10A70000A8886946B0DF1128FAD0BDF804000028F7
:10A7100002D12046FDF768F87FBD0000583A0020BE
:10A7200010B50C46017A052908D0407A38B108489E
:10A7300008A102682046FEF79EFC00E01AB106A1BF
:10A740002046FEF798FC2046BDE81040FEF7A0BC6E
:10A75000B02B0020257300000D0A000038B5C38817
:10A760000D46044633B114A0009015A216A1284648
:10A77000FEF781FC217A05291CD0607A48B1A088B7
:10A78000FEF7A6FE164951F8202016A12846FEF72E
:10A7900072FCA0880021FFF77BF803461049207A5D
:10A7A000143951F8202001B02846BDE830400EA1F0
:10A7B000FEF761BC38BD00001B5B306D000000007F
:10A7C0001B5B313B33316D0025734C6F6773206425
:10A7D000726F70706564202825642925730D0A0046
:10A7E000B02B0020257300003C25733E2025733AD2
:10A7F000200000000349884201D10348704700202F
:10A800007047000000200040542B002070B5012646
:10A8100070044FF0E0210025C1F88001084C401081
:10A82000C4F84803C4F8080366602F20FFF760FCF3
:10A83000A660044C2F20A560FFF75AFCA57070BDE0
:10A84000001001405C2B002038B50021012548B1E3
:10A8500001280CD0032809D1FFF70CFCBDE83840D3
:10A86000FEF7AEBB4FF0E020C0F8805138BD8DF848
:10A8700000106846FCF7D4FD064C207808B9FEF7B6
:10A8800083FBE068401CE060A5709DF80000FCF7C9
:10A89000EBFD38BDE82D00203EB504460949684669
:10A8A000FFF790FB08E000BFD0E900212046904769
:10A8B00030B16846FFF79DFB02980028F4D13EBDF9
:10A8C00011203EBD38B302003EB504460849684633
:10A8D000FFF778FB07E000BFD0E900212046904752
:10A8E0006846FFF786FB02980028F5D13EBD0000C0
:10A8F00044B3020002498969002900D00847704723
:10A90000542D00202DE9F0411400884618D0002570
:10A910000E4F032608EB050122460020FCF7B6F88F
:10A920000544241A40B93878002809D008494FF462
:10A930007A408847761E05D001203870002CE9D176
:10A94000BDE8F08100203870FAE70000782B002085
:10A9500011B302002DE9F0410746806A144688468B
:10A96000C8B3002531E000BFB96A05EB450001EB33
:10A970008006B088801CFE2802D90C20BDE8F0813A
:10A980002288401C08F8020020881622401C80B251
:10A99000208008F800202088401C80B2208000EB36
:10A9A0000801308800F074FA2188084480B22080C1
:10A9B000B28842B1B16871B14044FBF7C1FC208854
:10A9C000B188084420806D1CEDB297F82C00A84295
:10A9D000CAD80020D2E7FFE70720CFE70A78062889
:10A9E00022F0FF020A7010D2DFE800F00305070929
:10A9F0000B0D002008E0112006E0212004E03120AA
:10AA000002E0122000E022200870704770B5194D56
:10AA1000194C07E0016820788847002829D015489C
:10AA2000FFF7E7FAA8680028F4D1FEF73FFF00BF60
:10AA3000FEF774FD0028FBD1207803280CD00228F3
:10AA40000AD0FFF779FA00B133DF0C490120086022
:10AA5000BFF34F8F20BFFDE7BFF34F8F084801685A
:10AA6000084A01F4E06111430160BFF34F8F00BF5A
:10AA7000FDE770BD08320020702B0020000500406B
:10AA80000CED00E00400FA05002805D1034901207F
:10AA900048700020FDF73EBB70470000E82D002005
:10AAA00010B51620FCF7D0FAA0B1124890F80004B7
:10AAB0004009082811D20121814011F0EC0F0CD07F
:10AAC0000D4882684FF480017AB1016841F4800139
:10AAD000016010BD42F2010001E042F20200BDE857
:10AAE000104006A2A121FBF795BB4FF0E020C0F873
:10AAF000001110BD16E000E0FC3100202E2E5C2E6F
:10AB00002E5C2E2E5C2E2E5C2E2E5C2E2E5C636F09
:10AB10006D706F6E656E74735C736F66746465766A
:10AB20006963655C636F6D6D6F6E5C6E72665F739B
:10AB300064682E630000000000B585B00A46017805
:10AB40008DF8001041680191017A8DF80810C168F4
:10AB50000391007C8DF81000044850F822100C3846
:10AB600050F822206846904705B000BDA02E002076
:10AB70002DE9F843044610681E4615460F464FF06F
:10AB8000000810B1FFF7BCFAF8B1A86810B1FFF7E0
:10AB9000B7FAD0B1D5E90001C4F84405C4F84815A6
:10ABA000D5E90201C4F83405C4F838154FF48C75A2
:10ABB0004046C4F81881D4F818110091F2074FF0FC
:10ABC000010107D0C4F8501506E087F81D80102059
:10ABD000BDE8F883C4F85005B20702D5C4F84015A3
:10ABE00001E0C4F84005300700D42161386848B15D
:10ABF00046F38000401C4FF0400014D0C4F804031A
:10AC00000020E5E729462046FFF703FA0028F9D09F
:10AC1000F87FFF28F4D0B97F11B1FEF778FBEFE79A
:10AC2000FEF77CFBECE7C4F80803E9E72DE9F84FF1
:10AC3000204D9246894606469846012269461846A6
:10AC4000AF68FDF735F958B3009800210446801C21
:10AC500009E000BF00EA07035AF8212005EB83034F
:10AC6000401C491CDA604145F4D34FEA164AFDF70F
:10AC7000BFFB4AEA0041601C384005EB80003C40C5
:10AC800005EB8402C160D06866F3C50068F38910E3
:10AC900069F39F2020F00300401C20F00400D060E6
:10ACA00095F8200402E000BFFEF738FC0028FBD135
:10ACB000BDE8F88FAC3300202DE9F84F1D4C00257E
:10ACC0006846D4E901A6FDF79DFB002738B30023B1
:10ACD000009A61681CE0D1F800C00846944503D989
:10ACE000ACEB02020A6015E0A2EB0C0263440760C1
:10ACF000D0F80CC0C1698146BCF1000F08D006EB4A
:10AD0000030828F07F48C0E9018CC9F81C500546AB
:10AD10000029E0D128466160FDF7E2FC03E0284607
:10AD2000FDF7DEFC10B15046FDF716FAE770BDE8FE
:10AD3000F88F00005C2B00200D4B10B5596831B125
:10AD400002680C68A24204D8A21A0A60C161586065
:10AD500010BD0B4603E00B46C969121B21B10C68FC
:10AD60009442F8D3A41A0C600260C161D86110BD8E
:10AD70005C2B00202DE9F041144E77683D462C46AF
:10AD800003E0844204D02546E469002CF9D11BE09D
:10AD9000D4B1A5420BD1F869706040B90C490120CB
:10ADA00088600021B160F0702F20FFF7A1F92168C1
:10ADB000E069E86110B1026811440160706887427F
:10ADC00002D00120BDE8F0810020FBE75C2B0020D1
:10ADD000001001407CB5064600240D468DF8004069
:10ADE0006846FCF71DFB01A800F0F8F870B105708B
:10ADF000094946609DF8040048709DF80000FCF782
:10AE000033FB1420FBF742FD20467CBD04249DF853
:10AE10000000FCF729FBF7E7F03000202DE9F041B6
:10AE2000194D6C68002C2CD0184800270068A968C0
:10AE3000B846401A20F07F462068B0420CD8214620
:10AE4000361A0744E469087C20B181F810808869CB
:10AE500049698847002CEFD129786878814206D16A
:10AE6000401CC0B26870022801D185F801800648F4
:10AE700069780C3040F82170BDE8F0411420FBF7F0
:10AE800005BDBDE8F08100005C2B002004150140E9
:10AE90000870000A48700220704700002DE9F05F3A
:10AEA0008346DDE90A4A994690460D460846012741
:10AEB00003E000BFB0FBF8F07F1C4045FAD2B94573
:10AEC00000D94F465FEACA7012D18CB15FEA8A702E
:10AED00002D5B9F1000F01D0202607E0302605E0A9
:10AEE00031465846641EFDF72BF80CB1A742F7D344
:10AEF0005FF00106B9F1010F02D9A9F1010903E0E0
:10AF0000B5FBF6F0404502D306FB08F6F2E7DFF8A2
:10AF10003C9000BFB5FBF6F000FB165519F8001089
:10AF20005846FDF70DF8B6FBF8F6002EF2D15FEAB1
:10AF3000CA7009D0002C07D0A74205D2202158465C
:10AF4000641EFCF7FDFFF5E7BDE8F09F86B1020047
:10AF5000F8B5054680B2FDF7EDFA040013D0154EA2
:10AF6000207A0027317B88420ED2A8B204F10A0170
:10AF700075DF28B1112806D0BDE8F840FFF7BABC4C
:10AF8000207A401C2072F8BD2772307C38B1A8B2FC
:10AF90003B2176DF18B1082801D0FFF7ABFC7169BF
:10AFA0000029F0D08DF80070ADF80250684688474F
:10AFB000F8BD0000542D002030B40446007A00286B
:10AFC0000AD06088002166DF28B1112802D06168AC
:10AFD00030BC08470120207230BC70470A494A78CB
:10AFE0008B78521CD2B2934200D100220B7893424C
:10AFF00001D1002070470270487800EB400001EB5F
:10B00000C000001D70470000F03000202DE9FC4119
:10B010001646DDE90854CDE900541F468046022259
:10B0200000F00CF8002807D1CDE900543B4610226F
:10B030003146404600F002F8BDE8FC812DE9FC5F96
:10B040000026DDE90C4B994692468E4680462788BD
:10B05000354630E0D8F80400002200EB8500694650
:10B060000068019001A864DF002830D19DF800003D
:10B0700050451FD10EB1002100E002212288084472
:10B080001118594522D846B9521C90B2208009F8AF
:10B0900000E02088401C20800126218801A801EBC7
:10B0A0000902694664DF002811D120889DF800104C
:10B0B000084420806D1CB8F80000A842CADC56B1D4
:10B0C0002088C01B401E80B2FF2802D90C20BDE89A
:10B0D000FC9F09F807000020F9E7000000000000CD
:10B0E0002315000000000000000000000000000028
:10B0F0000338FDD8704700000090004000040000B5
:10B100000500030600000000111213140D0E0F10AD
:10B11000770A000000000000770A0000000000002D
:10B120007ADA00000000000023D1BCEA5F78231522
:10B13000DEEF12120000000000000050FFFFFFFFD2
:10B140000003FF000000004000000000E96A020068
:10B150000338FDD8704700000000000000300040B8
:10B160000000000001000000FFFFFFFF03FF0000E0
:10B17000000000400000000000000000000000008F
:10B180000338FDD8704730313233343536373839EB
:10B19000414243444546000000000000000000001A
:10B1A000000000000000000000000000000000009F
:10B1B00098B10200B0B1020004000000556E6B6E41
:10B1C0006F776E206572726F7220636F6465000026
:10B1D000000000006CB802000100000018B7020077
:10B1E000020000000CB50200030000008CB7020052
:10B1F00004000000E0B7020005000000C0B6020035
:10B20000060000005CB6020007000000C8B702009C
:10B2100008000000D4B602000900000038B70200A0
:10B220000A00000054B802000B000000F4B4020051
:10B230000C000000ECB602000D000000BCB80200DB
:10B240000E000000B8B702000F000000F4B70200C3
:10B250001000000028B8020011000000D0B8020061
:10B2600012000000A4B802001300000040B8020061
:10B270008000000074B6020081000000B0B502003A
:10B280008200000070B502008300000050B502008B
:10B29000840000008CB502008500000098B6020012
:10B2A00086000000A0B70200900000003CB602003B
:10B2B0009100000030B502009200000000B70200CB
:10B2C0000082000008B802000182000054B70200AA
:10B2D0000282000070B7020000840000CCB50200BA
:10B2E0000184000078B802000284000014B6020055
:10B2F00003840000F0B50200F1930200EF93020016
:10B30000E9930200000000000000000000000000BF
:10B310000338FDD870470000143300207F00000080
:10B320009433002000000000000000000000000036
:10B33000000000000010020724B3020034B3020032
:10B34000080000005CB302006CB3020008000000BB
:10B350006CB302007CB30200080000009CBD020038
:10B36000A4BD020000000000000000008CBD02002F
:10B370009CBD0200000000000000000044BD02006F
:10B380004CBD02004CBD02005CBD02005CBD020071
:10B3900074BD020074BD02007CBD0200282B002099
:10B3A0007CB302009CB30200080000007CBD0200D8
:10B3B00084BD020084BD02008CBD0200ACB302005B
:10B3C000BCB3020008000000004040404040404044
:10B3D0004040414141414140404040404040404068
:10B3E000404040404040404040050202020202020C
:10B3F000020202020202020202202020202020205B
:10B40000202020020202020202029090909090906E
:10B41000101010101010101010101010101010102C
:10B4200010101010020202020202888888888888A0
:10B43000080808080808080808080808080808088C
:10B44000080808080202020240000000C9B3020016
:10B4500073645F626C655F6761705F646174615F94
:10B460006C656E6774685F75706461746528292007
:10B47000287265717565737429206F6E20636F6E15
:10B480006E656374696F6E203078257820726574FC
:10B4900075726E65642025732E0000005468652067
:10B4A00072657175657374656420636F6D62696E32
:10B4B0006174696F6E206F6620545820616E64203D
:10B4C0005258207061636B6574206C656E67746898
:10B4D0007320697320746F6F206C6F6E67206279C0
:10B4E000202575206D6963726F7365636F6E647379
:10B4F0002E0000004E52465F4552524F525F494E59
:10B5000056414C49445F4441544100004E52465F0D
:10B510004552524F525F534F465444455649434556
:10B520005F4E4F545F454E41424C45440000000081
:10B530004E52465F4552524F525F46454154555216
:10B54000455F4E4F545F454E41424C45440000001C
:10B550004E52465F4552524F525F4D555445585FCB
:10B56000554E4C4F434B5F4641494C45440000000B
:10B570004E52465F4552524F525F4D555445585FAB
:10B580004C4F434B5F4641494C4544004E52465F49
:10B590004552524F525F4D555445585F434F4E44AC
:10B5A0005F494E49545F4641494C45440000000004
:10B5B0004E52465F4552524F525F4D555445585F6B
:10B5C000494E49545F4641494C4544004E52465FFE
:10B5D0004552524F525F424C455F495053505F5263
:10B5E000585F504B545F5452554E434154454400AC
:10B5F0004E52465F4552524F525F424C455F495052
:10B6000053505F504545525F52454A454354454467
:10B61000000000004E52465F4552524F525F424C6E
:10B62000455F495053505F4C494E4B5F444953432B
:10B630004F4E4E4543544544000000004E52465F75
:10B640004552524F525F4150495F4E4F545F494DF2
:10B65000504C454D454E5445440000004E52465F07
:10B660004552524F525F4E4F545F535550504F52B8
:10B67000544544004E52465F4552524F525F4D4F23
:10B6800044554C455F4E4F545F494E495449414CD7
:10B69000495A4544000000004E52465F4552524F01
:10B6A000525F4D4F44554C455F414C5245414459C2
:10B6B0005F494E495449414C495A454400000000F5
:10B6C0004E52465F4552524F525F4E4F545F464F67
:10B6D000554E44004E52465F4552524F525F494EBE
:10B6E00056414C49445F5354415445004E52465FC5
:10B6F0004552524F525F444154415F53495A4500AD
:10B700004E52465F4552524F525F494F5F50454E31
:10B7100044494E47000000004E52465F4552524F8A
:10B72000525F5356435F48414E444C45525F4D492A
:10B730005353494E470000004E52465F4552524F08
:10B74000525F494E56414C49445F4C454E47544820
:10B75000000000004E52465F4552524F525F445225
:10B76000565F5457495F4552525F414E41434B002B
:10B770004E52465F4552524F525F4452565F5457A5
:10B78000495F4552525F444E41434B004E52465F23
:10B790004552524F525F494E5445524E414C000063
:10B7A0004E52465F4552524F525F53544F5241479B
:10B7B000455F46554C4C00004E52465F4552524F35
:10B7C000525F4E554C4C00004E52465F4552524F10
:10B7D000525F494E56414C49445F504152414D00E1
:10B7E0004E52465F4552524F525F4E4F5F4D454D50
:10B7F000000000004E52465F4552524F525F464F86
:10B800005242494444454E004E52465F4552524FC3
:10B81000525F4452565F5457495F4552525F4F56EC
:10B82000455252554E0000004E52465F4552524F0F
:10B83000525F494E56414C49445F414444520000D6
:10B840004E52465F4552524F525F5245534F5552EA
:10B85000434553004E52465F4552524F525F494E48
:10B8600056414C49445F464C414753004E52465F57
:10B8700053554343455353004E52465F4552524F32
:10B88000525F424C455F495053505F4348414E4ED2
:10B89000454C5F414C52454144595F4558495354CA
:10B8A000530000004E52465F4552524F525F434F85
:10B8B0004E4E5F434F554E54000000004E52465FBF
:10B8C0004552524F525F54494D454F555400000068
:10B8D0004E52465F4552524F525F425553590000F7
:10B8E0007761726E696E670064656275670000005B
:10B8F0001B5B313B33306D001B5B306D0000000083
:10B900001B5B313B33316D001B5B313B33326D00D0
:10B910001B5B313B33336D001B5B313B33346D00BC
:10B920001B5B313B33356D001B5B313B33366D00A8
:10B930001B5B313B33376D00696E666F00000000A2
:10B940006572726F7200000073645F626C655F63A2
:10B9500066675F73657428292072657475726E65F9
:10B9600064202573207768656E20617474656D703E
:10B9700074696E6720746F2073657420424C455F54
:10B9800047415454535F4346475F534552564943DA
:10B99000455F4348414E4745442E000073645F6253
:10B9A0006C655F6366675F736574282920726574D0
:10B9B00075726E6564202573207768656E206174EA
:10B9C00074656D7074696E6720746F207365742080
:10B9D000424C455F434F4D4D4F4E5F4346475F5688
:10B9E000535F555549442E0073645F626C655F6315
:10B9F00066675F73657428292072657475726E6559
:10BA000064202573207768656E20617474656D709D
:10BA100074696E6720746F2073657420424C455FB3
:10BA200047415454535F4346475F415454525F5417
:10BA300041425F53495A452E0000000073645F6223
:10BA40006C655F6366675F7365742829207265742F
:10BA500075726E6564202573207768656E20617449
:10BA600074656D7074696E6720746F2073657420DF
:10BA7000424C455F434F4E4E5F4346475F47415000
:10BA80002E00000073645F626C655F6366675F73BE
:10BA9000657428292072657475726E65642025733B
:10BAA000207768656E20617474656D7074696E6767
:10BAB00020746F2073657420424C455F4741505F8E
:10BAC0004346475F524F4C455F434F554E542E00FF
:10BAD00073645F626C655F6366675F736574282972
