:020000040002F8
:10600000188B0020C1630200C9630200CB63020049
:10601000CD630200CF630200D163020000000000E4
:10602000000000000000000000000000D363020038
:10603000D563020000000000D7630200D9630200AC
:1060400035690200DB630200F56B0200DB630200CE
:10605000DB630200DB6302001D670200DB630200FA
:10606000DB630200DB630200DB630200DB63020030
:10607000DB630200DB630200DB630200DB63020020
:10608000DB6302008D690200DB630200DB63020058
:10609000116A0200DB630200156A0200DB63020082
:1060A000DB630200DB630200DB630200DB630200F0
:1060B000DB630200DB630200000000000000000060
:1060C000DB630200DB630200DB630200DB630200D0
:1060D000DB630200DB630200DB630200DB630200C0
:1060E000DB630200DB630200DB63020000000000F0
:1060F00000000000DB63020000000000DB63020020
:10610000000000000000000000000000000000008F
:10611000000000000000000000000000000000007F
:10612000000000000000000000000000000000006F
:10613000000000000000000000000000000000005F
:10614000000000000000000000000000000000004F
:10615000000000000000000000000000000000003F
:10616000000000000000000000000000000000002F
:10617000000000000000000000000000000000001F
:10618000000000000000000000000000000000000F
:1061900000000000000000000000000000000000FF
:1061A00000000000000000000000000000000000EF
:1061B00000000000000000000000000000000000DF
:1061C00000000000000000000000000000000000CF
:1061D00000000000000000000000000000000000BF
:1061E00000000000000000000000000000000000AF
:1061F000000000000000000000000000000000009F
:10620000DFF80CD000F04CFA00480047E9850200A6
:10621000188B002030B450E8012F93B2C489234476
:106220008489A34228BF1B1B0489A34202BFBFF37A
:106230002F8F002007E0C3EA020340E80134002C5E
:10624000E9D14FF001000A6030BC704750E8012FDF
:10625000C2EA024240E801210029F7D1704730B478
:1062600050E8022F1FFAA2F3C488A34202BFBFF373
:106270002F8F00200DE0C48923448489A34228BFC6
:106280001B1BC2EA034340E80234002CE8D14FF064
:1062900001000A6030BC704750E8022FC2EA224277
:1062A00040E802210029F7D17047034653E8022F46
:1062B000D988B2EB324F4FF0000017BF92B241EADB
:1062C000014142EA014104E05A68B2EB324F08BF93
:1062D000012043E80212002AE8D1704730B4044696
:1062E00054E8000F0D4644E80053002BF8D1156028
:1062F00030BC704730B4044654E8000F40EA010552
:1063000044E80053002BF7D1156030BC704730B41F
:10631000044654E8000F00EA010544E80053002B4E
:10632000F7D1156030BC704730B4044654E8000F14
:1063300080EA010544E80053002BF7D1156030BC1A
:10634000704730B4044654E8000F00EB010544E800
:106350000053002BF7D1156030BC704730B40446B1
:1063600054E8000FA0EB010544E80053002BF7D1DF
:10637000156030BC704770B404464FF0000054E81C
:10638000006F0D68AE4207BF44E80023012044E8D7
:1063900000630E60002B1CBF0020F0E770BC70474C
:1063A00030B4044654E8000F88422CBF451A054615
:1063B00044E80053002BF5D1156030BC7047000055
:1063C0000648804706480047FEE7FEE7FEE7FEE78F
:1063D000FEE7FEE7FEE7FEE7FEE7FEE7196A0200DA
:1063E00001620200202A04DB203A00FA02F10020B8
:1063F00070479140C2F1200320FA03F31943904003
:1064000070470000004870476CB9020040EA010381
:106410009B0703D009E008C9121F08C0042AFAD25A
:1064200003E011F8013B00F8013B521EF9D270471E
:10643000D2B201E000F8012B491EFBD270470022C6
:10644000F6E710B513460A4604461946FFF7F0FF73
:10645000204610BD421C10F8011B0029FBD1801AF8
:10646000704730B504460020034600E05B1C9342B1
:1064700003D2E05CCD5C401BF8D030BD034611F880
:10648000012B00F8012B002AF9D1184670472DE99D
:10649000FE4F81EA030404F0004421F0004100941F
:1064A0004FF0000B23F0004350EA01045ED052EAA3
:1064B00003045BD0C3F30A54C1F30A552C44A4F27D
:1064C000F3340194A0FB0254C1F3130141F4801191
:1064D000C3F3130343F4801301FB024400FB034E98
:1064E000840A970A44EA815447EA8357A4FB076861
:1064F00002958D0A05FB07854FEA932C04FB0C548B
:106500002705029D4FEA065847EA1637B5EB0805FE
:106510006EEB070C870E920E47EA811742EA831250
:10652000A7FB0201B6EB0B0164EB00042B0D43EA61
:106530000C335E1844EB1C50DA465146E7FB02016F
:10654000C5F313044FEA0B3343EA14534FEA043202
:10655000019C43EA0603A4F10C040294009CCDE9DB
:1065600000B400F04FF803B0BDE8F08F0020014602
:10657000F9E70EB5C10F80EAE0700844CA070021B0
:1065800040F233438DE80E000A460B4600F03AF81D
:1065900003B000BDC1F30A5210B5C1F3130140F2BC
:1065A000FF3341F480119A4201DA002010BD40F21D
:1065B00033439A42A2F2334203DC524200F003F822
:1065C00010BD904010BD202A04DB203A21FA02F0D1
:1065D0000021704721FA02F3D040C2F1200291401D
:1065E00008431946704710B5141E73F1000408DA09
:1065F000401C41F1000192185B411A4301D120F087
:10660000010010BD2DE9F04D92469B4611B1B1FA43
:1066100081F202E0B0FA80F220329046FFF7E2FE0B
:1066200004460F4640EA0A0041EA0B0153465A4627
:10663000084313D0114653EA010019D0C8F14002B3
:106640005046FFF7C0FF05460E46504659464246A3
:10665000FFF7C8FE084305D0012004E02046394674
:10666000BDE8F08D0020054346EAE0762C43374331
:106670000A986305E40AA0EB08000022FD0A44EA38
:1066800047540A3002D500200146E9E701051019F8
:106690006941DDE9084500196941BDE8F04DA2E70F
:1066A000064C074D06E0E06840F0010394E807005F
:1066B00098471034AC42F6D3FFF7A6FDA8C00200FD
:1066C000C8C0020070B58C1810F8015B15F0070304
:1066D00001D110F8013B2A1106D110F8012B03E07B
:1066E00010F8016B01F8016B5B1EF9D12B0705D483
:1066F0000023521E0DD401F8013BFAE710F8013BCC
:10670000CB1A921C03E013F8015B01F8015B521EE7
:10671000F9D5A142D8D3002070BD00002DE9F04F7B
:1067200000268DB0DFF8A081B14604964FF4807545
:10673000012437460596284602F020FD38B1D8F8E6
:106740000403204203D0284602F00EFD26432D1DEF
:1067500064007F1CADB2082FEDD34FF4BE74204609
:1067600002F00CFD48B1204602F0FEFC46F0004667
:1067700004AA0221002002F0E1FC544C16F0FF0FA5
:1067800015D00127002537420DD008EB8501D1F83F
:106790001005D1F81015C0F3052054F82520C1F3D9
:1067A000014102B190477F006D1C082DEBD3002EF4
:1067B0007EDA0020CDF82890411E0DF1100B07AABB
:1067C000CDF82C9042F82010401C91460228F9D3B5
:1067D00000252E46A11911F8607F91F9000027F0DD
:1067E000C008401C40D007A9404602F093F840B3CF
:1067F0004FEA971A404601F087F954F820701FB10C
:10680000BAF1030F03D006E0BAF1030F2CD10AA9A5
:10681000404602F087F802A8CDF8088002F028FC74
:10682000029900EB8100D0F8000704A9C0F30140F1
:106830000290404602F06EF80028029802D002282A
:1068400002D011E003280FD1BAF1030F08D102984A
:10685000022833D00221404602F0CCFB6D1CEDB281
:1068600017B151464046B847761C042EB2D3002DCE
:1068700021D001AA0221002002F060FC00205A462B
:106880000DF1040152F8206051F82030B34217D0C6
:1068900000200AAE4FEA090351F8207042F8207038
:1068A00056F8207043F82070401C0228F4D300E012
:1068B00001E0002D8CD10DB0BDE8F08F0321CAE7B7
:1068C000401C0228DED3F6E7006000408C60002008
:1068D00000F01F02012191404009800000F1E020FA
:1068E000C0F88012704700F01F020121914040095A
:1068F000800000F1E020C0F80011704700F01F0296
:10690000012191404009800000F1E020C0F8001210
:1069100070474907090E002806DA00F00F0000F161
:10692000E02080F8141D704700F1E02080F800148A
:106930007047000070B54FF48076304602F0C6F81C
:10694000114CB50560B1304602F0C7F80120C5F81A
:106950000803607920B90120607121680020884710
:106960004FF48276304602F0B1F800280AD0304663
:1069700002F0B3F80220C5F808032168BDE87040B2
:106980000120084770BD0000145A0020074800216C
:10699000C0F84011C0F84411C0F84811C0F84C11BB
:1069A000C0F80011C0F8041104F08CBB00100140C5
:1069B00000F026B970B50E46144900EB400001EB1B
:1069C000C0051446E86A183520B101280FD0022806
:1069D00005D113E0284600F047F9A04201D2002477
:1069E00011E022463146284600F076F90BE02846B1
:1069F00000F03AF9A042F4D20446F2E731462846C4
:106A000000F03DF90446204670BD0000906800206B
:106A100004F0A6BA03F032B930B54FF0805000222E
:106A20008300D0F83011C3F80C21C3F81021624B59
:106A30001A60624B1B68624C2360604B1B1D1B6815
:106A4000241D23605D4B08331B68241D23605B4BB2
:106A50000C331B68241D2360584B10331B68241D06
:106A60002360564B14331B68241D2360534B18338B
:106A70001B68534C20342360504B1C331B68241D6F
:106A800023604E4B20331B68241D23604B4B243363
:106A90001B68241D2360494B28331B68241D236079
:106AA000464B2C331B68241D2360444B30331B683A
:106AB000434C40342360414B34331B68241D236016
:106AC0003E4B38331B68241D23603C4B3C331B6812
:106AD000241D2360394B40331B68241D2360012390
:106AE000082902D1D0F8344114B1082904D006E0B5
:106AF000354C3449216005E0D0F8344114B10829FF
:106B000004D006E0314CFB21216005E0D0F834418F
:106B100014B1082908D00EE090F858422C480168BA
:106B200064F30301016002E0D0F834411CB9294943
:106B30004FF40070086028480168C90702D06FF060
:106B4000010101602548016841F470010160BFF353
:106B50004F8FBFF36F8F4FF01021D1F80002002844
:106B600003DBD1F80402002822DA1D4C23601D4803
:106B70000368002BFCD01223C1F800320568002DF9
:106B8000FCD0C1F8043201680029FCD02260016801
:106B90000029FCD0BFF34F8F10487C380168124A9F
:106BA00001F4E06111430160BFF34F8F00BFFDE7C7
:106BB0000F490E48086030BD38050040040400103D
:106BC00020C50040488103008C56004018F5004065
:106BD000E40E0040409602400004004088ED00E0D2
:106BE00004E5014000E401400400FA050090D003F0
:106BF000085B002001480068004700001C5A002084
:106C000010B5124C02202061606111A0A06104F156
:106C10007800E0614FF4007020620020A0626062A2
:106C20000BA1A164E06204F51E71E1641021A0656E
:106C3000C4E91410E06509A1E01DFFF71FFC08A1DD
:106C40002046FFF71BFC2020A07110BD906800209B
:106C50005465726D696E616C0000000052545400FE
:106C600053454747455200000269C1688A4203D82C
:106C70008068401A104400E0501A401E70472DE909
:106C8000F047C4681746894606464FF00008306949
:106C9000A04201D9051B02E0B168201A0D1AB068A4
:106CA0006D1E001BA84200D80546BD4200D33D46DC
:106CB00070682A4620444946FFF7A8FBB0687F1B4E
:106CC0002C44A844A944A04200D10024F460002F21
:106CD000DDD14046BDE8F0872DE9F0410446884605
:106CE000D4E90207C51BE168606816460844B5424E
:106CF00006D94146FFF78AFBB819E060BDE8F0818C
:106D00002A464146FFF782FB761B08EB0501324617
:106D10006068FFF77BFBE660F0E702E008C8121F3F
:106D200008C1002AFAD170477047002001E001C174
:106D3000121F002AFBD170470121202803DA81406D
:106D40000548014003E0402802DA2038814009B1BB
:106D50000120704700207047FC06FFBD31B50025BB
:106D60002C462146684601F046FD00B16D1C641CAE
:106D7000142CF6D3284638BD10B50122022100207C
:106D800000F0C0FD08B1072818D107220221012018
:106D900000F0B8FD08B1072810D100210A220846EA
:106DA00000F0B0FD08B1072808D10B220121002016
:106DB00000F0A8FD08B1072800D1002010BD000098
:106DC00070B50024084D05E0686810F8340003F041
:106DD00047F8641C28788442F6D304484068BDE82C
:106DE000704000F01FB90000285A002068B6020069
:106DF00070B50024064D06E06868012110F83400E3
:106E000003F052F8641C28788442F5D3002070BD4A
:106E1000285A0020F8B515460C460646052A01D228
:106E20000720F8BD03F038F918B903F0FBF8002883
:106E3000F7D1124900224E600C708D60C1E9042226
:106E4000C1E906220E4D0DE006EBC4002968009151
:106E500081788DF8011000780A4A694603F070F8CD
:106E60000028DED1641EE4B2EED2BDE8F84004484A
:106E70000021054A001D00F053B80000285A0020E8
:106E800068B6020051800200E97D020072B602F08D
:106E90002DFC00BF02F06CFA0028FBD1104C012140
:106EA000208801EB00400FA102F072FB104800683F
:106EB000C00700D000BE2088022101EB00400DA1D8
:106EC00002F066FBBFF34F8F0948E43801680D4AB2
:106ED00001F4E06111430160BFF34F8F00BFFDE794
:106EE000405B0020466174616C206572726F7200B5
:106EF000F0ED00E053797374656D2072657365740D
:106F0000000000000400FA050EB500210091CDE953
:106F100001106A4644F20100FFF7B8FF0EBD000001
:106F2000084B9B7823B12AB120B10068037C1BB1C8
:106F300008207047072070470023037441744261A2
:106F4000184670476861002070B503F053FE104882
:106F500000240B21047044700E4D817014206C606D
:106F60002C706C70FFF7B4FC07211420FFF7D1FCE4
:106F70001420FFF7B8FC0848046007211120FFF730
:106F8000C8FC0548001F0068A860002070BD000014
:106F900068610020485A0020081501402DE9FC478F
:106FA000DFF8789099F8023073B368B3052902D2FC
:106FB0000720BDE8FC87436933B3437C012B25D010
:106FC000002704460025884616468DF8005068467E
:106FD00000F038F801A804F0B7FAC8B10121017037
:106FE0000F4944600968C0E90218C0E904769DF8B9
:106FF000040089F801009DF8000000F047F8142013
:10700000FFF77CFC2846D4E70820D2E70F46D8E7F4
:1070100004259DF8000000F039F8F3E768610020CE
:10702000041501400649897839B130B1416921B16F
:1070300000210174022104F021B8082070470000EB
:107040006861002030B5EFF3108172B60D4A946884
:10705000012324B10370002900D162B630BD9360D2
:107060004FF0E023D3F88051074C25401560C3F85A
:107070008041D3F8844154605A17C3F88421002218
:107080000270E8E774620020FC06FFBD0B498A68C5
:10709000002A11D000280FD1EFF3108072B60B68D0
:1070A0004FF0E022C2F800314B68C2F804310022F0
:1070B0008A60002800D162B6704700007462002028
:1070C00070B5054608680C46411C04D002F00FF864
:1070D000206801F07BFF6068411C02D0002101F0B4
:1070E00057FF2968A069C1F82405607D227D2968C1
:1070F0001043C1F86C05D4E900122868C0F81425C3
:10710000C0F80C15207D012814D1A068411C02D0C4
:10711000002101F03DFFE068411C04D001F0E7FFD1
:10712000E06801F053FFD4E902122868C0F808258E
:10713000C0F8101570BD70B5054608680C46411CB6
:1071400004D001F0DEFF206801F04AFF6068411CB6
:1071500002D0002101F025FF2968A069C1F82405AB
:10716000607D217D2A680843C2F86C05D4E90012CD
:107170002868C0F80C15C0F81425207D012814D10A
:10718000A068411C02D0002101F00BFFE068411C07
:1071900004D001F0B6FFE06801F022FFD4E902124A
:1071A0002868C0F80825C0F8101570BD782101487E
:1071B000FFF745B9485C0020F8B506464FF00000DF
:1071C0001500ADF8000015D009236A46304600F0DE
:1071D00015F80446BDF80000064458B154B12846DD
:1071E000FFF738F9A04205D1224631462846FFF77D
:1071F00038F908B10020F8BD0120F8BD70B588B19C
:1072000082B10024158803E0065D641C3444A4B2F6
:10721000A54203D8061976789E4201D08C42F3D35A
:107220008C4201D3002070BDA11C1180005D401E66
:1072300080B270BD054808B5C16800918168684694
:1072400001F0FAFA0098FFF789FD08BD485C0020BC
:10725000FFF7ACBF70B540B10C4D297839B1044689
:1072600003F0ACFC28B1002070BD0E2070BD0820DA
:1072700070BDE868062807D20549226801EB800145
:10728000401C0A60E860EEE7042070BDE859002069
:10729000C05C002040B1054900220123CA600B7088
:1072A000C1E90102104670470E207047E8590020DE
:1072B00070B504002DD000292BD02048007800287C
:1072C00027D020880D46112815D0302804D0322828
:1072D00007D033281ED109E0211D284603F012FBF8
:1072E00018E0211D284603F069F913E0211D284606
:1072F00003F03EFA0EE0A088B5F8CA12884209D120
:10730000002085F8C70285F8C8024FF6FF70A5F87F
:10731000CA0270BD95F8C8020028FAD0208830282B
:10732000F7D34F28F5D8A088B5F8CA128842F0D113
:107330002846BDE8704000F009BE0000E859002072
:1073400048B1084A137843B1D26832B190F8C722E5
:107350002AB1112070470E2070470820704700F0B6
:10736000F5BD0000E859002038B50188041D1F292B
:1073700068D012DC3F484FF003021029008802EB6E
:10738000004014D0112946D01B2968D01D2966D190
:10739000201DBDE8384003F0D1B8212956D03B2943
:1073A0005ED056295BD18088132176DF5BE022888E
:1073B00031A102F0F1F82088082802D30020FFF75D
:1073C000A3FD21883948002200EB011000F072F97A
:1073D00008B1FFF799FD2188B320354A484302EBF5
:1073E0008000FFF7ADFF112802D008B1FFF78CFD38
:1073F000012000F075FAFFF71DFF08284FF000008C
:1074000005D000F06DFABDE8384003F041BCBDE89E
:10741000384000F05DBA2379228826A102F0C3F833
:10742000FFF708FF38B9FFF7CBFC08B1FFF76CFD99
:10743000012000F04DFA03F02BFCBDE8384000209D
:1074400000F04EBA2088211D75DF0CE0002100916C
:10745000808869468FDF002801D0FFF755FD38BDD1
:107460008088132176DF0028F9D0BDE83840FFF787
:107470004BBD0000405B0020436F6E6E6563746916
:107480006F6E20307825782065737461626C697343
:107490006865642C207374617274696E672044425D
:1074A00020646973636F766572792E009C5B00209F
:1074B000704300204C42532063656E7472616C20EF
:1074C0006C696E6B203078257820646973636F6E09
:1074D0006E65637465642028726561736F6E3A200F
:1074E000307825782900000010B51A4C01886068B2
:1074F00010290ED011292BD1401E606028D1FFF732
:107500003BFC002824D02168002921D0BDE8104090
:107510000847D0B900210122084600F0F3F908B16C
:1075200007280FD107220221012000F0EBF908B152
:10753000072807D104220221002000F0E3F920B13E
:10754000072802D0216801B188476068401C60604C
:1075500010BD0000E05900202DE9F04F0746858856
:1075600002883D48012197B08346102A09D0112A8C
:1075700049D01A2A6CD1387AB1EB101F45D20122BA
:1075800044E0354C083CA068C0430B9061680BA8F0
:1075900001F052F90B990CA800F058FB2C220CA911
:1075A0006846FEF733FF0026E946A04610E000BF1C
:1075B00009EB46005FF00004B0F804A008EB84007B
:1075C0005146001D01F00CF9641C1D2CF6D3761CED
:1075D0000098B042ECD8142D05D317B00420BDE8B4
:1075E000F04FFFF791BC2946584601F00FF92946A4
:1075F00008F1040001F00AF9F87B012828D01648A8
:107600002946001D15E029461AE000220221B1EBAF
:10761000101F01D2012600E000260F49083901F1B0
:107620001000041D294682B101F0F0F836B1294658
:10763000204617B0BDE8F04F01F0E8B829462046D3
:1076400017B0BDE8F04F01F0CBB801F0C9F8F5E78D
:1076500017B0BDE8F08F0000505C002070B518B383
:107660000288A2F57F41FF391CD0104C4388104D91
:10767000206800EB8001401C00F00700206005EB53
:10768000810102204B81C881081D086100248C8182
:107690000120087208714C710A80887003F04CFD5B
:1076A000204670BD082070BD0E2070BDF859002026
:1076B000D85F002040B1018022B11168C0F80210EB
:1076C0009188C180002070470E20704730B5134D5F
:1076D000040085B02DCD8DE82D001DD0E1B10868E6
:1076E000D0B100206080A080E0804FF6FF70208045
:1076F0000868A06004F10C01684662DF002809D127
:10770000207B8DF8120041F22350ADF8100004A840
:10771000FFF7A0FD05B030BD0E20FBE748B6020024
:107720001FB5002923D0002821D00288112A27D094
:10773000382A1DD0392A1AD10A46098883889942E5
:1077400015D141899388994211D1C18901290ED15E
:1077500002218DF800101188ADF8021010F8101FEA
:107760008DF80410039093686946104698471FBD32
:10777000098880888142FAD1BDE81F4003F0DCBC53
:107780000A8880888242F2D14FF6FF70088000207C
:1077900048808880C8801FBD70B518B30288A2F5E4
:1077A0007F43FF3B1CD0104C104D236803EB83023A
:1077B0005B1C03F00703236005EB8202C38853813F
:1077C0000123D381141D14610024948102241472B6
:1077D000117100881080937003F0AEFC002070BD22
:1077E000082070BD0E2070BDF8590020D85F002021
:1077F0001FB50A78002A40D18A88A2F5A853233BF6
:107800003BD18A79037B9A4237D101228DF800203F
:107810004A88ADF80220002218E000BF02EBC20344
:1078200001EB430333F80E4F04F6DC24B4F50054A7
:1078300005D0012C09D11B89ADF8083005E01C8961
:10784000ADF806405B89ADF80430521C0B7A9342C8
:10785000E4D80188A1F57F42FF3A0BD0C18849B92D
:10786000818839B9418829B90199C0F80210BDF859
:107870000810C1808268694690471FBD2DE9FC4110
:107880000646C0074FF000050ED0104F002401221D
:10789000385D009500231146019501F003FB641C3F
:1078A000042CF4D300F024F8B0070DD5074E0024C3
:1078B000361D0022305D032300951146019501F02D
:1078C000F1FA641C042CF4D3BDE8FC81AAB50200D3
:1078D0000249085C012101F01EBC0000AAB50200AB
:1078E0000249085C002101F016BC0000AAB50200A4
:1078F00010B500242046FFF7EBFF641C042CF9D3DD
:1079000010BD000070B50023042810D20D4D00EB0F
:107910004004012A02D101290CD00022094E00EBBB
:107920004000304461B1012906D0022906D0072366
:10793000184670BD0E30C2B22A55F9E74270F7E71B
:107940008270F5E73B5C00202DE9F8430546861C74
:1079500000208DF8000090460F464FF00109684660
:10796000FFF770FB1B4C20683860D4E90001401A17
:10797000A16804F21C47081A0EE00121384600F005
:1079800055FF00F0E3FD0146384600F04FFFD4E913
:107990000001401AA168081A401C8642EDD8B8F1CF
:1079A000000F03D0052065F3891002E0062065F37F
:1079B0009F50A2682168114004EB8101C8602068D3
:1079C000304420609DF80000FFF760FB4846BDE8AA
:1079D000F88300006C64002030B482680468531C93
:1079E0008360A154D0E901128A4202D330BC01F075
:1079F000F2B830BC70470000034803C8814201D18F
:107A000001207047002070476C6400202DE9F04190
:107A1000164F0C464FF0030843F202060B2805D020
:107A20000C2819D0BDE8F041FFF76EBA00252146B9
:107A30000F48FFF7B1FE18B1B04201D0082802D1BB
:107A40006D1C082DF3D33988224608EB014009A1AB
:107A5000BDE8F04101F0A0BD05481030FFF79CFEE5
:107A60003988224608EB014008A1F1E7405B00207D
:107A70009C5B00204C4253207772697465204C4512
:107A80004420737461746520256400004C425320C7
:107A90007772697465204C45443220737461746553
:107AA0002025640005494FF0FF32082841F82020C6
:107AB00002D3084480F85820704700008C600020F2
:107AC000F0B54FF0FF3512B10023082601E008237E
:107AD0000C260C4C05E000BF54F823707F1C04D02A
:107AE0005B1CB342F8D32846F0BD26185DB286F879
:107AF000305044F82310002AF5D1E11881F85800DD
:107B0000F1E700008C6000200249084490F9300041
:107B1000704700008C60002008B5024690F8C6024D
:107B20000B4600EB8001C1EB801002EB400092F8A5
:107B3000C52242B1521ED2B202EBC20100EB410299
:107B4000518A491C00E0C188ADF800100089ADF8E9
:107B50000200694618469DDF08BD000070B5084C5C
:107B6000050009D010342168002907D0086820607A
:107B7000496828468847F6E70834F4E770BD0000F6
:107B800078600020054A012120B1012805D19170BB
:107B9000FFF7E4BF51700020FAE7704778600020DB
:107BA0002DE9F05F26484168F1B3DFF898B00E6820
:107BB0008146DBF8004087688078E11B21F07F4533
:107BC000ED1CB0B9DFF880804FF48030C8F8440372
:107BD000C8F804031120FEF77BFE1120FEF783FE98
:107BE0004FF0010AC8F800A02F2002F031F989F8FF
:107BF00002A0B54200D23546124BE8193C3320F0C2
:107C00007F401860DBF800105A46091B21F07F41C5
:107C1000001B20F07F40C91C81420FD910681860FA
:107C20002F2002F015F900E004E0BDE8F05F11201C
:107C3000FEF764BEBDE8F05F02F0DCBFBDE8F09F78
:107C4000485A0020041501400010014073B58CB063
:107C50000646002000900D9880B100246D46214614
:107C60000DA800F0C8FD30B1009805EB40008480FD
:107C70000098401C0090641C142CF0D32C22694600
:107C80003046FEF7C3FB0EB070BD0000F0B587B004
:107C9000074600200490ADF810100590ADF81210C2
:107CA0000190029001AA04A9384690DF060022D074
:107CB00002F06CF8114C0346012520883A4605EB8A
:107CC00000400F4901F06FFCBDF8042012B9BDF867
:107CD000060038B12088BDF8063005EB004009A148
:107CE00001F061FCBDF808202AB12088154905EB98
:107CF000004001F051FC07B03046F0BD105B0020A1
:107D000070B9020054686520726571756573746599
:107D1000642054582F5258207061636B6574206C36
:107D2000656E67746820697320746F6F206C6F6E66
:107D3000672062792025752F2575206F637465741F
:107D4000732E0000BCB902004188034A02EB011205
:107D500001461046FFF74CBD9C5B00202DE9F8431F
:107D6000054690F8C6020F4600EB8001C1EB80107B
:107D700005EB400695F8C542914604EBC40006EBBE
:107D800040013279601C0A31904226D16B460022B4
:107D9000284600F059FA18B310E0401EA04201D165
:107DA000002004E004EBC40006EB40001C308046D9
:107DB00002466B46284600F047FA30B10020387082
:107DC000694648469EDFBDE8F88395F8C5024146FE
:107DD000401C641C85F8C502E4B23079A042DCD8AE
:107DE000012038700020EEE72DE9F0470025DFF88C
:107DF0008C803CE06068002100EBC50601203278F1
:107E00009146FEF7EFFAD4E9062300EA020701EAF9
:107E1000030C57EA0C0728D082438B434846C4E939
:107E2000062302F0F7F832788246914601200021BD
:107E3000FEF7D8FAD4E9042300EA020401EA0307B2
:107E40004A4650460021FEF7CDFA44404F403C439D
:107E50000BD17078012801D0012100E00021726867
:107E600081EA0A010AB1484690476D1CEDB298F8C4
:107E7000000044468542BDD3BDE8F087285A002063
:107E80002DE9F047894690F8C612904601EB810231
:107E9000C2EB811100EB4107384602F08FFE06006D
:107EA0002FD0194CA06806282BD2184D762205EB4E
:107EB000C0103946A0F80280001DFEF7A7FA00277F
:107EC000B9F1000F04D0A06805EBC010077004E002
:107ED000A168022005EBC1110870A06805EBC01174
:107EE000401CCE67A060E16888420AD1002604E009
:107EF00005EBC610C16F8847761CE0688642F7D351
:107F0000A760BDE8F0870000E8590020D85C002099
:107F100070B50E4690F8C612154601EB8102C2EB11
:107F20008111A0B000EB410002F048FE040009D02E
:107F30007C2205496846FEF769FAADF802506846AA
:107F40000196A04720B070BDB4B5020070B50E46D2
:107F500004464FF43371FEF772FA11480025A4F875
:107F6000CA62856084F8C9520E4884F8C65284F803
:107F7000C552006820602246012130469BDF012166
:107F8000112806D0002809D184F8C71284F8C852F5
:107F900003E084F8C71284F8C812002070BD000006
:107FA000E8590020C05C002010B50021024800F014
:107FB0004EFC80F3100010BD886800200E4910B5FB
:107FC0000A784C780023A24212D0521CD2B20A7016
:107FD000022A00D10B70084A0B780C3252F8232089
:107FE00002608868104420F07F408860012010BD46
:107FF0000360002010BD0000485A002030B5044640
:10800000006887B00D46806800281FD01821684698
:10801000FEF715FA0195A0680590207910B10128A6
:1080200010D107E001208DF8000020690290E0687F
:10803000039005E002208DF80000E0680003029044
:1080400060690490206881686846884707B030BD41
:108050002DE9F0418046024601200021FEF7C2F9D9
:108060001A4F05460E467868FEF7DCFF00280CD153
:10807000174CD4E9062110462A4001EA06031A43A8
:1080800005D0A843B143C4E90601BDE8F0814046EC
:1080900001F0C0FF30B1D4E9040128433143C4E901
:1080A000040105E0D4E90410A943B043C4E9041075
:1080B000D4E9060128433143C4E90601A168786880
:1080C000BDE8F0410022FEF769BF000068B602007B
:1080D000285A00202DE9FC5F0E008346DDE90C479D
:1080E000C6F1000098469246814600D40846012514
:1080F00003E000BF90FBFAF06D1C5045FADAA8458A
:1081000000D9454624B1002E01DB780700D5641E56
:10811000B80702D5B8F1000F0AD0F80708D13CB172
:10812000A54205D220215846641EFFF755FCF6E70C
:10813000002E02DA4E462D2102E0780703D52B21CE
:108140005846FFF749FC07F0030002280BD1B8F1AD
:10815000000F08D13CB1A54205D230215846641E1B
:10816000FFF73AFCF6E7CDE9004743465246314671
:10817000584603F08FF9BDE8FC9F000070B50D462E
:10818000044600684FF4887101F020FE4FF49071AE
:10819000206801F01BFE4FF49271206801F016FE7A
:1081A0004FF4A271206801F011FE20681249C0F856
:1081B000041320686907000B40B2090E002806DA94
:1081C00000F00F0000F1E02080F8141D03E000F142
:1081D000E02080F8001420680121000B40B200F07C
:1081E0001F0291404009800000F1E020C0F8801299
:1081F000C0F8001170BD000010030200024600200C
:108200001268930702D0530702D47047500714D561
:1082100002F00300012802D002280CD105E0C2F3CD
:1082200083100B68801C184404E00223086803EBE9
:1082300092521044086001207047086800EB925386
:10824000C2F38910401CEEE710B509892AB1D08825
:10825000491C814218D1002010BD90F8C62202EBC3
:108260008204C4EB821200EB420212899142F2D0E6
:10827000491C198090F8C61201EB8102C2EB8111F2
:1082800000EB4100008902E01980D088401E588030
:10829000012010BD2DE9F04304462DED048B03268B
:1082A0008BB008784E4D0F4601281BD002286ED1A6
:1082B000788878B3012873D0022879D003287FD03A
:1082C00004286CD0052862D1132000F006FF01209D
:1082D00001F0B6FD13200BB0BDEC048BBDE8F043FC
:1082E00000F0A0BE28884A8806EB00403DA101F0BE
:1082F00053F9FEF77DFD08B1FEF706FE2046FFF7B5
:10830000ADF9002843D00BB0BDEC048BBDE8F043C1
:10831000FEF7FABD00244FF00109E8469FED3E8BC1
:108320009FED3F9BF86809EB4401415C10F8140095
:1083300001EB002048F82400FEF71BF953EC182B42
:10834000FEF7A5F853EC192BFEF7A1F8FEF722F97A
:108350000246288834A106EB004001F01DF9641C98
:108360000A2CDFDB288832A106EB004001F010F96F
:108370000E2000F0B2FE012001F062FD0E2000F0A0
:1083800051FE28882CA106EB004001F001F90BB04A
:10839000BDEC048BBDE8F08302E009E010E017E0DB
:1083A0000F2000F09AFE012001F04AFD0F2092E715
:1083B000102000F092FE012001F042FD10208AE71B
:1083C000112000F08AFE012001F03AFD112082E721
:1083D000122000F082FE012001F032FD12207AE727
:1083E000405B00204C454420427574746F6E2073CE
:1083F00065727669636520646973636F766572651B
:1084000064206F6E20636F6E6E5F68616E646C6572
:108410002030782578000000CDCCCCCCCCCC0C40E2
:10842000000000000000303F252E336620200000B1
:10843000686868680D0A000064617461200D0A00B4
:108440001721018041800021017141711B2181713F
:10845000C17170472DE9F047394E002780463D46EF
:10846000DFF8E090D6F804A057E003D00446D0F837
:108470001C8035E099F8002002EB4201521CD2B278
:1084800089F8002009EBC10199F80230091D9A42D0
:1084900001D189F8005048680A780446012A12D0B0
:1084A000022A02D0032A3BD108E002F0B7FD00B156
:1084B0000127257434E00574C06900E07068002865
:1084C000F9D170602CE0207C50BB88686060C8687F
:1084D000A0600869E0604869A061F07800B165605B
:1084E0006268B168184B501A20F07F40984202D25F
:1084F000A168084406E0881AA16820F07F40814204
:1085000002D9081A206000E0256065600120A5609E
:1085100020742046E56102F063FDB8F10000A4D1AB
:1085200099F8001099F801008142A3D117B9716838
:10853000514502D00120BDE8F0870020FBE7000094
:10854000485A002068610020FFFF7F002DE9FF41AD
:108550000026234800F067F92148001F074600F075
:1085600062F9204C60680090A56800E000986946B8
:10857000284004EB80000C30FFF740FE0028F5D1C6
:1085800001AA009901EA050304EB8303491CDB6897
:1085900042F82030401C00910228F2D3019800F0EC
:1085A000030001280BD0022810D10198032101EB10
:1085B00090500099BDF80A6001EB900005E0019829
:1085C000BDF80A60C0F3831008440090384600F0FC
:1085D00027F908B10098606004B03046BDE8F0812A
:1085E000846800206C64002008B54FF4004100202E
:1085F00001F038F808B1FEF787FC00F0A1FEFEF7A5
:10860000A3FC08B1FEF780FC0120FFF737F940F228
:10861000666202213148FEF7FDFB08B1FEF774FCEB
:1086200001F03EF908B1FEF76FFC01F0EDFA08B178
:10863000FEF76AFC002000906946012001F070F905
:1086400008B1FEF761FC684601F0F0F908B1FEF7E9
:108650005BFC0021224800F06FF908B1FEF754FCE2
:108660002048FEF717FE08B1FEF74EFC1C4D1E48D1
:1086700000244C35CDF8000005EB04106946FFF7E7
:1086800025F808B1FEF740FC641C082CF4D3FEF773
:10869000DFFD0E2000F08EFC0F2000F08BFC102080
:1086A00000F088FC112000F085FC122000F082FC14
:1086B000132000F07FFC0D480321008801EB0040EF
:1086C0000BA100F065FF02F0E3FA00BF00F050FEDE
:1086D0000028FBD101F0F8F8F8E70000D05900209D
:1086E000505B0020497D020095820200405B002023
:1086F0004D756C74696C696E6B206578616D706C1A
:108700006520737461727465642E00002DE9F04772
:10871000C7880446181D16468946B0FBF7F1B0FB22
:10872000F7F207FB12009A193A44D21CB2FBF7F297
:10873000DDF820A001E02468491E0029FBD13D1A84
:108740008846B54216D818E0BAF1000F05D02118B6
:1087500009EB08002A46091D04E0204409EB080142
:108760002A46001DFDF752FE00202468761BA8440F
:10877000B74201D9354600E03D46002EE4D1BDE8C0
:10878000F087000030B5024659B100F097FF002194
:10879000074C09E004EB810315685B88AB4202D10A
:1087A0001160002030BD491C8142F3D3052030BD4B
:1087B0000C5B002010B50A8849888A4203D1FDF776
:1087C0006BFD012010BD002010BD70B50C460546A4
:1087D000FDF745FD002802D061882868084470BD77
:1087E00001F01F0301229A40D243490900EB8100A6
:1087F000114600F021B84A0950F8220001F01F028A
:1088000001219140084000D00120704701F01F0372
:1088100001229A40490900EB8100114600F01CB882
:10882000002100F00FB8012100F016B808B56A4623
:10883000FDF787FD009808BD08B56A46FDF767FD9E
:10884000009808BD08B56A46FDF761FD08BD08B58A
:108850006A46FDF743FD08BD08B56A46FDF74AFDC7
:10886000009808BD08B56A46FDF778FD009808BD78
:1088700038B5044600258DF800506846FEF7E2FB47
:1088800021686268086890420ED9401E086001782D
:10889000A38AE26801FB0325227A2168101AC0B27C
:1088A0000A79824200D208719DF80000FEF7EEFBC3
:1088B000284638BD38B5054600208DF800000C4626
:1088C0006846FEF7BFFBE868A98A201AB0FBF1F101
:1088D0002A681068431C136001709DF80000FEF7C1
:1088E000D5FB38BD10B530B1017A42680368891AEA
:1088F000C9B21A6006E00E2010BD03681A68541C45
:108900001C601170491EC9B2F7D2006800210171C4
:10891000084610BDC20800F007030120895C98409A
:108920000840704710B5C20800F00703885C0124B6
:108930009C402043885410BD70B5040010D017200F
:10894000A164208060801B202071002504EBC500FD
:10895000801DFFF775FD6D1C082DF7D3002070BD3D
:108960000E2070BD2DE9F04185888EB00C46082D93
:108970007ED20188464E4FF00008242940D006DC04
:10898000102909D011290CD023295FD154E03A29AC
:108990000DD055295AD12EE00146204601F098FE0F
:1089A00054E004EBC500801DFFF74AFD4EE0294668
:1089B00004EBC107408937F8062F824200D81046E1
:1089C0007880172800D217207880A06C70B1787951
:1089D00060B1D6E90002CDE90002ADF80210788856
:1089E000ADF80400A26C20466946904787F80580E0
:1089F00087F804802AE00146204601F031FF25E097
:108A0000011D2C226846FDF701FDBDF80000BDF8F0
:108A1000042004EBC0014A73A26CBAB1D6E9042366
:108A2000CDE90B23ADF82E00487B8DF83000A26C09
:108A300020460BA9904709E004EBC503017A187B97
:108A4000884200D201462846FFF720F904EBC5040E
:108A5000A07A002818D0E1882846A5DF012580B13A
:108A6000112811D001F092F902460A48008800E06E
:108A70000AE00EB005EB0040BDE8F04106A100F0B1
:108A80008BBD84F80A80E5720EB0BDE8F08100006D
:108A900030B60200105B002073645F626C655F6734
:108AA000617474635F65786368616E67655F6D7438
:108AB000755F7265717565737428292072657475A8
:108AC000726E65642025732E0000000000F1804066
:108AD0000068002800D00120704708B500F18040F0
:108AE000002101600068009008BD000070B50B4CCB
:108AF000207808B185250FE00020A060606020612B
:108B0000E060074801F07EF9054601F0C9F808B9B0
:108B100001F062F901202070284670BD78600020C5
:108B2000857B020038B500258DF800506846FEF7B9
:108B300089FA074CE068401EE060E06810B901F077
:108B400071F9A5709DF80000FEF7A0FA38BD00008D
:108B500078600020F0B505460478154889B01646BF
:108B600040F82420124A08690832A2F10C0742F8A2
:108B70002400487F385520226846FDF747FC0494BE
:108B80002878385C48B10EB10A4A00E000226946F4
:108B9000281D01F0EFFB09B0F0BD0EB1064A00E060
:108BA0000022694605F10C0001F0B6FAF3E7000077
:108BB000045A002071B30200BDB102000FB408B521
:108BC0000399002904D004AA00926A4600F00FF825
:108BD00001B05DF814FB10B582680446002A05D088
:108BE000D4E90403216898470020A06010BD2DE956
:108BF000FC4791460C00804676D014F8011B39B131
:108C000025290ED04046FEF7E7FE20780028F4D153
:108C100098F80C00002867D04046BDE8FC47FFF7F5
:108C2000DABF0020012221782B291BD02D2902D068
:108C3000302908D102E040F0010001E040F00200DC
:108C4000641C002AEFD100252A290ED02178A1F139
:108C500030020A2A11D205EB850201EB4205641CA1
:108C6000303DF1E740F00400EAE7D9F800100B1DB1
:108C7000C9F800300968641C0D44217800232E29AE
:108C80000BD114F8011FA1F130020A2A05D203EB1F
:108C9000830201EB4203303BF3E76C290DD06829D6
:108CA0000BD0692921D00BDC252918D0582931D0C7
:108CB00063290ED0642915D117E014F8011FECE7E1
:108CC000702969D0732932D075291BD0782909D130
:108CD00020E0D9F80000011DC9F8001001784046D5
:108CE000FEF77AFE641C90E76CE0D9F800100A1DCC
:108CF000C9F800200968CDE900500A224046FFF774
:108D0000E9F9EFE7D9F800100A1DC9F80020096851
:108D10000A2206E0D9F800100A1DC9F800200968E7
:108D20001022CDE90050404602F0B4FBDAE7D9F852
:108D3000001000270A1DC9F800200E68C00705D1E1
:108D400012E04046761C7F1CFEF746FE3178002973
:108D5000F7D104E0202140466D1EFEF73DFEBD42E6
:108D6000C0D9002DF6D1BDE74EB13046FDF772FBFC
:108D7000074604E0202140466D1EFEF72DFEBD4251
:108D800006D9002DF6D103E04046761CFEF724FEFE
:108D900031780029F8D1A5E7D9F80000011DC9F8FC
:108DA0000010056830214046FEF716FE7821404647
:108DB000FEF712FE08200021CDE900010346102233
:108DC0002946B0E7BDE8FC87044801214174007AD8
:108DD00008B1002070470120704700000C6300209C
:108DE000012801D0032808D10449002201284A742F
:108DF00000D00020087401F091BE70470C63002081
:108E000070B50246022801D0032A45D1234C207AAE
:108E1000002841D0012833D0022831D12048002336
:108E2000022A006802D0032A2AD11BE0E3600179FC
:108E300011B1012924D10DE0D0E90565711B4FF472
:108E40008056B14200D33146294481614569A94227
:108E50000ED015E00169491C0161426991420FD1B0
:108E6000237213E0E168491CE160082908D9E36036
:108E70002372022A0AD00D21FFF7C0F801F044FE48
:108E8000607C28B1BDE8704000F010BF0021F3E71E
:108E9000BDE8704001F042BE70BD00000C630020D0
:108EA000705A00202DE9FF411C46DDE90A7815467D
:108EB0000E46684600F0CEF846EA450141EA8401D4
:108EC00041EA072242EA0841009A00EB8200C0F81A
:108ED0000017BDE8FF812DE9FF411C46DDE90A7856
:108EE00015460E46684600F0C3F846EA450141EAD9
:108EF000840141EA072242EA0841009A00EB82001D
:108F0000C0F80017BDE8FF812DE9FF411C46DDE9EF
:108F10000A7815460E46684600F0B8F846EA45015C
:108F200041EA840141EA072242EA0841009A00EB43
:108F30008200C0F80017BDE8FF812DE9FF411C4603
:108F4000DDE90A7815460E46684600F0ADF846EAB7
:108F5000450141EA840141EA072242EA0841009AB8
:108F600000EB8200C0F80017BDE8FF811CB50021AE
:108F700000910B4601220191FFF7C6FF1CBD1CB5F5
:108F8000002100910B4601220191FFF7D6FF1CBD85
:108F90001CB500220B46009211460192FFF7B4FF68
:108FA0001CBD1CB500220B46009211460192FFF732
:108FB000C4FF1CBD08B50090684600F03DF8009A5B
:108FC000032100EB8200C0F8001708BD1CB500218A
:108FD00000910B46012201911146FFF795FF1CBD40
:108FE0001CB5002100910B46012201911146FFF7AB
:108FF000A4FF1CBD13B50C46684600F039F8009973
:1090000000EB8101D1F8002722F44032C1F800279B
:10901000009900EB8100D0F8001741EA0441C0F844
:1090200000171CBD01B5684600F006F8009A012142
:109030009140C0F80C1508BD0168202902D24FF0FC
:10904000A040704701F01F01016001487047000017
:10905000000300500168202902D24FF0A040704761
:1090600001F01F010160014870470000000300503B
:109070000168202902D24FF0A040704701F01F0183
:10908000016001487047000000030050016820297A
:1090900002D24FF0A040704701F01F01016001486B
:1090A00070470000000300500168202902D24FF0F1
:1090B000A040704701F01F010160014870470000A7
:1090C0000003005001B56846FFF7D2FFD0F8100545
:1090D0000099C84000F0010008BD01B56846FFF7DF
:1090E000ABFF009A01219140C0F8081508BD01B5F9
:1090F0006846FFF7CBFF009A01219140C0F80815A0
:1091000008BD01B56846FFF7CFFF009A01219140E5
:10911000C0F8081508BD38B501240090684631B183
:10912000FFF798FF00998C40C0F8084538BDFFF75D
:1091300091FF00998C40C0F80C4538BD1CB5094C16
:109140000144D4E90034CDE900346C4606E000BFA8
:1091500054F82030D3F81035401C08C28142F7D8AB
:109160001CBD000058B60200034908B508440021A0
:1091700001600068009008BD00600040024940584E
:10918000012800D0002070470060004030B5124B2D
:1091900001460020D3F81044224609E0157A8542A2
:1091A00005D1401C0A28F7DB4FF0FF3030BD526874
:1091B000002AF3D1421CF9D00872D3F810242AB146
:1091C00052684A60D3F81024516030BD0022C3F8C1
:1091D00010144A6030BD00006C6400207047FDF739
:1091E000E7BB704708B5034A00924023024A00F0EB
:1091F00005F808BD9DAD02002C630020F0B595B0C8
:109200001C4615460F4608461A9E00F027FB1821FB
:1092100009A8FDF714F90E96CDE909540023082298
:1092200003A9384600F02FFB05980690BDF8100002
:10923000ADF81C00BDF81200ADF81E0000208DF83E
:1092400021000398082600F00300012802D002281C
:1092500018D032E003983346850AC0F3C2008DF877
:10926000200003980FA9C0F38314A200384600F031
:109270000AFB09A8009006AB22460FA9284600F079
:1092800049FA1AE00398840DC0F3C2008DF820005B
:10929000082C01D2254600E0082533462A460FA9AE
:1092A000384600F0F0FA2E44641B09AB06AA2946A2
:1092B0000FA800F081F9002CEAD1384600F0D4FA6A
:1092C00015B0F0BD7047012001F096BF084810B5F9
:1092D0000178084A515C19B1001D01F0D7F802E08D
:1092E0000C3000F0E5FFBDE81040002001F084BF25
:1092F000885A0020005A002008B5034A00924023F3
:10930000024AFFF77BFF08BDEDAD02006C63002051
:109310000A4A012902EBC00007D0022907D003291D
:1093200007D0042907D0002070470220704704208E
:10933000704700797047407970470000C8C002004C
:1093400010B5FFF74CFF04210848FFF71FFF07483F
:1093500001244472FFF7B7FF044804210C30FFF7E3
:1093600015FF02480C30447210BD00009C5A0020CA
:109370002DE9F04F8DB0FEF73FFB18B100200DB086
:10938000BDE8F08F7A4C4FF0000BC4F818B4BFF36F
:109390004F8F60680290A568D846284004EB800093
:1093A00008E021680298814201D86160E6E7284020
:1093B00004EB80000C3002A9FEF720FF0028F0D15A
:1093C00005AA029901EA050304EB8303491CDB6843
:1093D00042F82030401C02910228F2D3059800F098
:1093E0000300022802D001284ED0A9E0059850229F
:1093F000810D8946B2EB905F00D850210E4666F38E
:109400009F50059008315B4800F0DFF9070079D0E4
:1094100000F024FA4346082205A9384600F039FA3C
:10942000029908F1080A2940681A8000001D864246
:1094300023D94F4D0C3530B1C2B204EB8101301A43
:1094400090460C3104E02946F2B2002590462846A9
:10945000C6B25346384600F01CFA0AEB08032DB199
:10946000324629464FEA070000F013FA029909F143
:10947000030001EB900002903BE004EB81015346B6
:10948000324638460C31EFE70598C0F383100628C2
:1094900000D30620059960F38911C1F38310801C65
:1094A00005918100334800F090F9070048D000F0A2
:1094B000D5F94346082205A9384600F0EAF908F133
:1094C000080800260FE00298434600EA0501401C08
:1094D00004EB81010290042238460C3100F0D9F9E6
:1094E00008F10408761C0598C0F38310B042EAD84E
:1094F00047B1D4F81054D4F8180468B1384600F0D5
:10950000B3F92FE01CE0687A012804D12A682846C4
:109510003946126890476D68002DF4D1384600F046
:10952000A3F98DF800B06846FDF78CFDD4F8180457
:1095300008B9029860609DF80000FDF7A7FD11E0F2
:10954000D4F8104404E0216820468968884764689C
:10955000002CF8D108480221008801EB004007A147
:1095600000F016F8FEF748FA80F0010007E7000067
:109570006C64002050C10200405B00204261636BBC
:10958000656E647320666C75736865640000000026
:1095900000231A4601F09EBC08B5012300926A46DA
:1095A00001F098FC08BD1CB5CDE9002302236A46F2
:1095B00001F090FC1CBD00002DE9F0470E468046EE
:1095C0001C46924608293ED894F80C90002020733F
:1095D0001946104601F040FA0025B54206D218F8A7
:1095E00005201AA12046FFF7E9FA03E019A1204659
:1095F000FFF7E4FA6D1C082DEFD317A12046FFF703
:10960000DDFA0025B54210D218F80570FCF7FAFE15
:109610000068C05D10F03E0F01D03A4600E02E22F7
:109620000EA12046FFF7CAFA03E00DA12046FFF77E
:10963000C5FA6D1C082DE5D301222146504601F0E4
:10964000EDF984F80C90BDE8F08700002025303259
:1096500078000000202020007C000000256300002E
:1096600020000000104810B5FF218160002101603A
:109670004160C0F81814C0F8141480F820140B4886
:1096800000F0F0F800280DD109480A490A4B401AA9
:10969000C108002003E000BF23F82000401C8842DE
:1096A000FAD3002010BD00006C64002050C10200FD
:1096B00050C10200C8C002000C5B002002480349F0
:1096C000401AC0087047000050C10200C8C0020024
:1096D00013B56846FFF756F808B100201CBD0248D4
:1096E000009950F831001CBDC8C0020070B5084890
:1096F0000125D0F8104480F8205405E065722168F7
:109700002046496888476468002CF7D170BD000086
:109710006C6400202DE9FF4781460C9D00200C461B
:109720002F7B2873984616462946184601F094F96F
:10973000072E42D2DFE806F004090F161F2A360072
:1097400049462846FFF73AFA37E049462846226854
:10975000FFF734FA31E0D4E9002349462846FFF701
:109760002DFA2AE0A0680090D4E900234946284653
:10977000FFF724FA21E0D4E90201CDE90001D4E9A0
:10978000002349462846FFF719FA16E004F10800BD
:1097900007C88DE80700D4E9002349462846FFF7AB
:1097A0000DFA0AE004F108000FC88DE80F00D4E9B3
:1097B000002349462846FFF701FA00222946404681
:1097C00001F02CF92F73BDE8FF872DE9F041858A60
:1097D00080462D1F4819C01CB0FBF5F0C6B24046AC
:1097E000FFF746F8041E19D0002020710120607197
:1097F000E58000272546761EC4F800800BE0404631
:10980000FFF736F860B16179491C6171286005463F
:109810007F1CC0F80080B742F1D32046BDE8F0813C
:10982000204600F002F80020F8E72DE9F0414579E4
:1098300001466B1E002201E00968521C9A42FBD3CC
:109840000F680146002605E038460C68FFF732F83D
:109850002146761CAE42F7D3BDE8F0810121001D00
:10986000FEF7E4BFFFF73EB810B504460121001D26
:10987000FEF7F8FF10F0FF0F04D12046BDE81040BE
:10988000FFF7D3BF10BD38B501240094FEF73EFFAB
:1098900038BD38B500240094FEF738FF38BD00000D
:1098A000064910B500204870091D0860BFF35F8F9E
:1098B0000349044800F026FA002010BD785A002021
:1098C000B0B602002063002008B500208DF800002B
:1098D0006846FDF7B7FBF1EE100A20F09F00E1EEBD
:1098E000100ABFF35F8F08494020C1F880029DF83D
:1098F0000000FDF7CBFB00F0D3F908B141DF08BD54
:1099000020BF40BF20BF08BD04E000E020B10349F4
:1099100009680160002070470E207047BCB8020043
:109920002DE9FE4302460E460846FFF7EFFF0028EA
:109930006ED100240094019406208DF800204FF091
:109940000808ADF8040002948DF8028069462020D2
:10995000326869DF2F4F012540B100F017FA024647
:1099600038882D4905EB0040FFF716FE00948DF86E
:1099700001408DF80280019402948DF803506946ED
:109980004020326869DF40B100F000FA02463888B2
:10999000224905EB0040FFF7FFFD0094019402947B
:1099A0008DF8005069460120326869DF48B100F047
:1099B000EDF93988024605EB014319491846FFF7CE
:1099C000EBFD4FF4B0600090019402946946A12031
:1099D000326869DF40B100F0D9F902463888114990
:1099E00005EB0040FFF7D8FD0094019402948DF838
:1099F00000406946A020326869DF40B100F0C6F936
:109A000002463888084905EB0040FFF7C5FD0020F5
:109A1000BDE8FE83485B00205CBF0200A4BF0200DB
:109A2000BCBE020008BF020068BE02002DE9F04182
:109A30000446D0F8008060DF2168194D0746414593
:109A40001CD92888022606EB004016A1FFF7A0FDCE
:109A50002888424606EB00401EA12368FFF7A3FDBD
:109A6000F006D0F80C012168800200F10050421A83
:109A7000288825A106EB0040FFF78EFD012467B181
:109A8000384600F083F9024628882AA104EB0040FA
:109A9000FFF782FD3846BDE8F0812E480470F9E7F3
:109AA000485B0020496E73756666696369656E740C
:109AB0002052414D20616C6C6F6361746564206657
:109AC0006F722074686520536F66744465766963AD
:109AD000652E00004368616E6765207468652052DA
:109AE000414D207374617274206C6F636174696F8F
:109AF0006E2066726F6D203078257820746F20306C
:109B00007825782E000000004D6178696D756D2014
:109B100052414D2073697A6520666F7220617070C2
:109B20006C69636174696F6E206973203078257881
:109B30002E00000073645F626C655F656E61626C2D
:109B40006528292072657475726E65642025732EF0
:109B500000000000075B002030B5144891B0007889
:109B6000002820D05FF03405ADF8405010A903A8BC
:109B700061DF30B1052816D011B0BDE83040FDF7E7
:109B8000C3B903AC0A49684600F0BCF807E000BF5F
:109B9000D0E9002120469047684600F0CAF80298B4
:109BA0000028E1D0F4E711B030BD0000075B0020D1
:109BB000C0B80200F8B5134C2078C0B10120A070E5
:109BC00001F0BEF8112814D0022001F0D1F80025D0
:109BD0008DF800506846FDF735FA11DF064625700E
:109BE0009DF80000FDF752FA2EB13046F8BD08206E
:109BF000F8BD0020F8BDA57001F024F9032001F0A4
:109C0000B7F8F6E7045B00207CB5194C207808B162
:109C100008207CBD0120A070002001F091F81128DF
:109C200019D0002001F0A4F8124800260068019025
:109C30008DF800606846FDF705FA0F4901A810DFAE
:109C400005000AD0002020709DF80000FDF71EFAE4
:109C50002DB128467CBD00207CBD0120F3E7A67015
:109C6000667001F00BF9012001F082F8F3E70000C3
:109C7000045B002054B802008D6E02000EB5074947
:109C8000684600F03FF805E0D0E9001088476846D4
:109C900000F04FF802980028F6D10EBD70B802000F
:109CA0000148007870470000045B00200548817877
:109CB00019B1007818B1FFF77DBF08207047FFF792
:109CC000A3BF0000045B00201FB568464BDF30B126
:109CD000052814D004B0BDE81040FDF715B90849B7
:109CE00001A800F00FF806E0D0E9002100989047A5
:109CF00001A800F01EF803980028E6D0F4E71FBD85
:109D0000DCB80200016009684160AFF3008010B563
:109D1000D0E900215368994201D1002104E0D1E942
:109D20000034A34202D01946816010BD0831416061
:109D3000F0E7816800290BD0026892680A448260CB
:109D400041684B689A4203D108314160FFF7DFBF99
:109D5000704700000C4A10B502F594730EE0991A92
:109D6000C91001EBD171491002EBC1010C688442AA
:109D700001D90B4602E005D201F108029A42EED366
:109D8000002010BD486810BDD0B6020000B5FFF736
:109D9000E1FF002800D1014800BD0000BCB6020070
:109DA0004058002800D00120704708B500224250DA
:109DB0004058009008BDD0F80403084000D00120AE
:109DC00070474058002800D00120704708B5002295
:109DD00042504058009008BD08480068012110F02A
:109DE000010F08D14FF0E020E02280F80024C0F8F5
:109DF0008012C0F8001102480160704700E100E0E5
:109E0000180500400649024600200B790BB1852059
:109E100070470A6001220A7100224A7170470000EF
:109E2000145A002004490120086004480168C1F365
:109E300000410029FAD170470C000040180400408E
:109E4000002802D0014980010847704781B502000F
:109E5000002802D0014980010847704771B602000E
:109E600010B5044600F0C2FD28B12046BDE8104000
:109E70000021FFF7BFB8204600F0C4FD00280FD036
:109E80002046FDF741FE074A02EB8001D1F810356C
:109E900023F00103C1F8103501218140C2F80813F5
:109EA00010BD0000006000402DE9F0410E468046E4
:109EB00000F09CFD204D0028404616D0FDF724FE02
:109EC000284490F858008009032802D001280AD0BD
:109ED00003E04046FFF7F6F828B103214046BDE80D
:109EE000F041FFF787B80221F8E700F08BFD00286A
:109EF00020D04046FDF708FE0446104F4FF4807016
:109F000007EB840100EB8400D1F8102580B242F009
:109F10000102C1F81025FFF727F9002E0AD04046AC
:109F2000FDF7F2FD55F82000002803D00120A040E5
:109F3000C7F80403BDE8F0818C6000200060004099
:109F40002DE9FC41DFF8C080044608EB040000273F
:109F500090F930001346C0170E46401C01D0082768
:109F60004FE0B0781946C0F340022046FDF7A8FD47
:109F70000546401C44D0B07841071CD4C0070DD022
:109F800068460094FFF774F8009900EB8100D0F860
:109F9000001721F00201C0F8001707E000217378D4
:109FA000204600910A460191FEF795FF164920468A
:109FB0006431FEF7B7FCB078800718D513483178C4
:109FC00000EB8500D0F81025114B1A40C0F8102581
:109FD0004FF47C524FF4403302EA042203EA014179
:109FE0000A43D0F810150A43C0F8102509E008EB21
:109FF0000500327810F8581F41EA8211017000E024
:10A0000004273846BDE8FC818C60002000600040D9
:10A01000FFC0FCFF10B5FFF755F8002800D0012065
:10A0200010BD000070B5194D95F86A0008B1082000
:10A0300070BD0020411E2A18401CC0B282F83010AA
:10A040003028F8D300242046FDF72CFD641CE4B230
:10A050000C2CF8D30D490024E0204C66A1F8684090
:10A060000B4981F8000401264020891FC1F88002B5
:10A07000C1F800014FF4BE70FFF776F80549F0070C
:10A08000C1F8040385F86A60204670BD8C6000202A
:10A0900006E000E000600040034890F86A000028F5
:10A0A00000D00120704700008C6000200121B1EB3E
:10A0B000507F01D1012070470020704738B50D4610
:10A0C00000F016FD040014D000208DF80000684652
:10A0D000FCF7B8FF207928B19DF80000FCF7D6FF07
:10A0E000112038BD0120256020719DF80000FCF78B
:10A0F000CDFF002038BD10B500F0FAFC002802D0DA
:10A1000000210160017110BD0149024801F09CB8B5
:10A11000F8600020002000402DE9F041054600795C
:10A1200016460F4600EB40012D4A01EBC00102EB41
:10A13000810494F82A1011B10820BDE8F081294962
:10A1400051F820102868FFF7B9FF08B11120F4E793
:10A1500039462846FCF7B4FF666038692060300055
:10A160004FF001062FD03F7F4FF48E712868FFF724
:10A170001CFE4FF4A2712868FFF717FE28681A49E1
:10A18000C0F8041328684FEA4711000B40B20028BA
:10A1900006DA00F00F0000F1E02080F8141D03E063
:10A1A00000F1E02080F800142868000B40B200F0B5
:10A1B0001F0206FA02F14009800000F1E020C0F819
:10A1C0008012C0F8001128680421C0F80015002092
:10A1D000A061E06184F8290044F8140FA675ACE78B
:10A1E000F860002060B60200800002002DE9F04710
:10A1F000054600790B4600EB400101EBC000234906
:10A2000001EB8004284600F043F810B11120BDE8AE
:10A21000F0874FF00008C4F82080A360626184F8E2
:10A2200028804FF48E76474631462868FFF7BDFDFB
:10A2300028684FF00109C0F808902146286800F00E
:10A240009FFF606800BBD5F800A00EE094F82800DE
:10A2500008B10F2716E031465046FFF7A1FD002850
:10A26000F4D02146504600F08BFF216A606981429C
:10A27000F1D331462868FFF793FD0028F9D028680C
:10A28000C0F80C90C4F814803846C0E7F86000208D
:10A29000007900EB400101EBC000044901EB8000B4
:10A2A0004069002800D0012070470000F8600020BD
:10A2B0002DE9F047044600794FF0000900EB40011A
:10A2C00001EBC000254901EB80072068C0F800952C
:10A2D000786880B120682249C0F8081320680121FD
:10A2E000000B40B200F01F0291404009800000F1D5
:10A2F000E020C0F880112068D0F80C25D0F8148533
:10A30000D0F80865D0F810554FF0FF31C0F814159B
:10A31000C0F80C152068C0F80815C0F81015501CBE
:10A3200002D01046FEF722FEB8F1FF3F02D04046B1
:10A33000FEF71CFE681C02D02846FEF717FE701CB4
:10A3400002D03046FEF712FE2068FFF7D4FE87F8F1
:10A350002A90C7F80490BDE8F0870000F86000205C
:10A36000840202000149024801F01AB82461002069
:10A37000002000402DE9F0410546164600790F46C1
:10A38000154A00EBC00102EB810494F8201011B1D2
:10A390000820BDE8F081114951F820102868FFF726
:10A3A0008DFE08B11120F4E739462846FCF7C3FEBC
:10A3B0006660386920601EB1397F2846FDF7DEFEF1
:10A3C00028680821C0F800150020A061E061012183
:10A3D000606184F82010DCE72461002064B602008C
:10A3E0002DE9F04704460E460079204900EBC000F5
:10A3F00001EB800517463046FFF758FE30B1204686
:10A4000000F036F820B11120BDE8F0871020FBE7FE
:10A410006F61AE604FF49076002731462068FFF7F9
:10A42000D5FC4FF4AC7841462068FFF7CFFC20689C
:10A43000AA686969C0F84425C0F848152068012158
:10A440008160686878B9B14649462068FFF7B9FC71
:10A45000064641462068FFF7B4FC0643F4D000B13D
:10A460000F27002068613846CEE7000024610020F5
:10A470000079054900EBC00001EB8000406900282D
:10A4800000D0012070470000246100202DE9F04732
:10A4900004460079274900EBC00001EB80072068E3
:10A4A0004FF00009C0F80095786880B12068224913
:10A4B000C0F8081320680121000B40B200F01F0211
:10A4C00091404009800000F1E020C0F88011206830
:10A4D000D0F80C25D0F81485D0F80865D0F81055C0
:10A4E0004FF0FF31C0F80C15C0F814152068C0F803
:10A4F0000815C0F81015501C02D01046FEF73FFD9D
:10A50000B8F1FF3F02D04046FEF739FD681C02D08B
:10A510002846FEF734FD701C02D03046FEF72FFDB2
:10A520002068FFF7E8FD87F82090C7F80490BDE8A1
:10A53000F0870000246100201003020010B50446DB
:10A54000818B8069104AFCF737FE90B10E4A0123D7
:10A55000083A02F11601A01C8CDF020012D00B4851
:10A5600001210088BDE8104001EB004008A1FFF781
:10A5700013B8114900208ADF002803D0BDE810403D
:10A58000FCF7C2BC10BD00008EB50200405B00208D
:10A59000436F6E6E656374696F6E20526571756589
:10A5A0007374204661696C65642C20726561736FF9
:10A5B0006E20256400000000684300202DE9F84F5C
:10A5C00005460C460888B5F8CA12884259D195F854
:10A5D000C602DFF8F8A000EB8001C1EB801005EBAC
:10A5E000400160884FF003094FF00008F0BBE68897
:10A5F0000879A21DF3B250FA86F6062E01D803445C
:10A6000000E006230B7100261CE000BF00EBC00336
:10A6100006EB860702EB470701EB4303D7F802C0BE
:10A62000C3F80AC0D7F806C0C3F80EC07F895F829E
:10A63000A3F81480A3F81680A3F81880401CA3F890
:10A640001A80761C0B798342E0D895F8C62200EB7D
:10A65000C00002EB8203C3EB821205EB420231F829
:10A660001000128990420ED2087900E00BE0062813
:10A6700009D085F8C50221882846FDF74DFA01006A
:10A680000AD1BDE8F88F85F8C58222886946284638
:10A69000FDF764FB01000BD085F8C78222882846AD
:10A6A000FDF736FC8AF800902188AAF80210E8E746
:10A6B0009DF800000028E4D0228801212846FDF7FB
:10A6C000DFFB2188284600F053F9DAE7D85C002048
:10A6D00070B58D88027900EBC5042273C97BA41D77
:10A6E000012902D0022904D101E0008800E040885D
:10A6F00020802188608881420FD92846A5DF012665
:10A70000A0B1112814D0FFF741FB02460A480BA163
:10A71000008806EB0040FEF73FFFA179E079814217
:10A7200008D92846BDE87040FDF7B0BA6671F4E775
:10A730002671F2E770BD0000105B002073645F6259
:10A740006C655F67617474635F65786368616E6789
:10A75000655F6D74755F7265717565737428292006
:10A7600072657475726E65642025732E000000009A
:10A77000F8B505460C460888B5F8CA1288425DD17E
:10A7800095F8C602A61D00EB8001C1EB801005EB19
:10A79000400395F8C502618800EBC00003EB400060
:10A7A0000A3039B329E000BF01EB410206EB420257
:10A7B0009788B7F5245F0CD06FF4245C17EB0C0777
:10A7C0000AD0012F02D0072F0BD108E05288428116
:10A7D00007E05288828104E05288C28101E05288F9
:10A7E000028242892AB182891AB1C2890AB1028AD7
:10A7F0001AB9491C32888A42D6D800268DF80060E2
:10A8000095F8C5021979401C884203D101208DF8C2
:10A81000000018E085F8C502228869462846FDF741
:10A820009DFA01000BD085F8C76222882846FDF703
:10A830006FFB0A480321017021884180F8BD9DF813
:10A8400000000028FAD0228801212846FDF718FBD5
:10A850002188284600F08CF8F8BD0000D85C002064
:10A860007CB506468D88C88806EBC504A41D17284C
:10A8700000D217202188814200D80846608000203D
:10A88000207121882846B5DF50B1FFF77FFA0246D4
:10A890000E480121008801EB00400DA1FEF77CFE6F
:10A8A0006079002810D1B06C00280DD01449D1E98E
:10A8B0000201CDE90001ADF802506088ADF8040056
:10A8C000B26C6946304690477CBD0000105B0020AA
:10A8D00073645F626C655F67617474735F657863EE
:10A8E00068616E67655F6D74755F7265706C7928FD
:10A8F000292072657475726E65642025732E0000C0
:10A9000030B6020070B505460C4690F8C6022288A3
:10A9100000EB8001C1EB801005EB4001B5F8CA02E5
:10A92000824222D1608848B100212846FDF7A8FA6A
:10A9300021882846BDE8704000F01AB8A2680A6075
:10A94000E068C1F8060021882846FDF7E5F8010017
:10A950000BD0002085F8C70222882846FDF7D8FAD8
:10A960000248032101702188418070BDD85C00201D
:10A970002DE9F041044690F8C9020E46401C1949E1
:10A98000C0B284F8C902C9680327174D4FF0000E02
:10A99000884224D284F8C5E294F8C602401CC0B2B2
:10A9A00000EB8001C1EB801104EB410284F8C60288
:10A9B000A5F1180101EB800001210068106082F808
:10A9C00004E030469BDF010007D084F8C7E232463E
:10A9D0002046FDF79DFA2F706E80BDE8F08184F867
:10A9E000C7E2F8E7E8590020D85C00200449084491
:10A9F00090F93000082801DB0120704700207047E3
:10AA00008C6000200449084490F93000082801D2E5
:10AA100001207047002070478C60002010B50C4664
:10AA2000017A052908D0407A38B1084808A102689F
:10AA30002046FEF7C3F800E01AB106A12046FEF753
:10AA4000BDF82046BDE81040FEF7C5B8E05A00202A
:10AA5000257300000D0A000038B5C3880D46044672
:10AA600033B114A0009015A216A12846FEF7A6F84F
:10AA7000217A05291CD0607A48B1A088FEF748FCED
:10AA8000164951F8202016A12846FEF797F8A0880D
:10AA90000021FEF71DFE03461049207A143951F8B3
:10AAA000202001B02846BDE830400EA1FEF786B850
:10AAB00038BD00001B5B306D000000001B5B313BAC
:10AAC00033316D0025734C6F67732064726F707043
:10AAD0006564202825642925730D0A00E05A0020AA
:10AAE000257300003C25733E2025733A20000000AA
:10AAF0000349884201D10348704700207047000095
:10AB0000002000401C5A0020034802490068FDF75D
:10AB100051BE0000745A002088B602002DE9F041B1
:10AB2000234C0025234E207A012730B92248311DBD
:10AB30000068FDF74AFE306038B1022020723168AB
:10AB4000087928B101281ED116E06560BDE8F081C2
:10AB5000D1E90503C01A4FF48052904200D3104649
:10AB6000B7EB900F01D2820800E001220869C968A2
:10AB70001844194429DF03E0D1E90301084428DF20
:10AB800058B1112812D003213068FDF737FA257229
:10AB90006560BDE8F041FFF7B7BF207C0028D5D144
:10ABA000BDE8F04100210220FEF72AB92772CDE767
:10ABB0000C630020705A002088B6020070B50C4B60
:10ABC00000210A4ADC680DE002EB81058678AD7849
:10ABD000B54206D132F821500688B54201D15868F5
:10ABE00070BD491CA142EFD3002070BDC05C0020A5
:10ABF000E859002070B5012670044FF0E0210025CF
:10AC0000C1F88001084C4010C4F84803C4F8080398
:10AC100066602F20FFF71CF9A660044C2F20A5606A
:10AC2000FFF716F9A57070BD00100140485A0020CA
:10AC300070B5054688690C4600284FF48471284693
:10AC40000AD0FFF7B2F8D5F81805626AE1688854AF
:10AC5000606A401C606270BDFFF7A7F8D5F8180560
:10AC600070BD1FB501238DF80030CDE90121D0E979
:10AC70000012684690471FBD1FB501238DF80030B4
:10AC80008DF808100192D0E90012684690471FBD68
:10AC900010B58BDF0A4803210A4A008801EB004007
:10ACA00009A1FEF779FC074810490E308ADF08B188
:10ACB000FCF72AF9BDE810400020FCF711BE0000A7
:10ACC000405B00208EB50200537461727420736380
:10ACD000616E6E696E6720666F7220646576696367
:10ACE00065206E616D652025732E0000684300208D
:10ACF00038B50021012548B101280CD0032809D11D
:10AD0000FFF76AF8BDE83840FDF70CBF4FF0E020D0
:10AD1000C0F8805138BD8DF800106846FCF792F9F4
:10AD2000064C207808B9FDF7E1FEE068401CE060C1
:10AD3000A5709DF80000FCF7A9F938BD78600020E7
:10AD40003EB5044609496846FEF7DCFF08E000BF4F
:10AD5000D0E900212046904730B16846FEF7E9FF70
:10AD600002980028F4D13EBD11203EBD58B8020023
:10AD70003EB5044608496846FEF7C4FF07E000BF39
:10AD8000D0E90021204690476846FEF7D2FF02989E
:10AD90000028F5D13EBD000064B802002DE9F04165
:10ADA0001400884618D000250E4F032608EB050135
:10ADB00022460020FBF7FEFD0544241A40B93878EE
:10ADC000002809D008494FF47A408847761E05D0FC
:10ADD00001203870002CE9D1BDE8F08100203870E6
:10ADE000FAE70000805A002011B8020070B50D4C3F
:10ADF0000020D2B22070201D0B4D0378EB5C1BB1FC
:10AE0000001DFFF7EDFA02E00C30FFF7EFF908B193
:10AE1000FCF77AF86078002802D021780029FAD06F
:10AE200070BD0000845A0020005A0020002805D17F
:10AE30000349012048700020FCF790BE70470000D5
:10AE40007860002010B51620FBF776FF48B10A485D
:10AE500082684FF4800152B1016821F480010160E1
:10AE600010BDBDE8104042F20100FCF74DB84FF0B4
:10AE7000E020C0F8801110BD7462002010B51620CB
:10AE8000FBF75AFFA0B1114890F8000440090828C8
:10AE900011D280B101280ED004280CD00C48826851
:10AEA0004FF480016AB1016841F48001016010BD76
:10AEB00042F2010001E042F20200BDE81040FCF75E
:10AEC00023B84FF0E020C0F8001110BD16E000E0FC
:10AED000746200202DE9F84F204D924689460646BF
:10AEE0009846012269461846AF68FCF72DFD58B315
:10AEF000009800210446801C09E000BF00EA070317
:10AF00005AF8212005EB8303401C491CDA604145B7
:10AF1000F4D34FEA164AFDF747F84AEA0041601CAD
:10AF2000384005EB80003C4005EB8402C160D068EE
:10AF300066F3C50068F3891069F39F2020F00300D1
:10AF4000401C20F00400D06095F8200402E000BF0F
:10AF5000FEF70EFA0028FBD1BDE8F88F6C640020E4
:10AF60002DE9F84F1D4C00256846D4E901A6FDF7F0
:10AF700025F8002738B30023009A61681CE0D1F857
:10AF800000C00846944503D9ACEB02020A6015E004
:10AF9000A2EB0C0263440760D0F80CC0C169814683
:10AFA000BCF1000F08D006EB030828F07F48C0E989
:10AFB000018CC9F81C5005460029E0D12846616083
:10AFC000FDF748FA03E02846FDF744FA10B1504671
:10AFD000FCF7E6FDE770BDE8F88F0000485A002056
:10AFE0000D4B10B5596831B102680C68A24204D803
:10AFF000A21A0A60C161586010BD0B4603E00B46FF
:10B00000C969121B21B10C689442F8D3A41A0C60D0
:10B010000260C161D86110BD485A00202DE9F0419D
:10B02000144E77683D462C4603E0844204D0254602
:10B03000E469002CF9D11BE0D4B1A5420BD1F86929
:10B04000706040B90C49012088600021B160F07047
:10B050002F20FEF7FDFE2168E069E86110B102686B
:10B06000114401607068874202D00120BDE8F08180
:10B070000020FBE7485A0020001001407CB506463E
:10B0800000240D468DF800406846FBF7DBFF01A861
:10B0900000F05AFA70B10570094946609DF8040045
:10B0A00048709DF80000FBF7F1FF1420FBF726FC29
:10B0B00020467CBD04249DF80000FBF7E7FFF7E77E
:10B0C000686100202DE9F041194D6C68002C2CD0EE
:10B0D000184800270068A968B846401A20F07F4643
:10B0E0002068B0420CD82146361A0744E469087C2F
:10B0F00020B181F81080886949698847002CEFD118
:10B1000029786878814206D1401CC0B26870022854
:10B1100001D185F80180064869780C3040F821702B
:10B12000BDE8F0411420FBF7E9BBBDE8F081000069
:10B13000485A00200415014010B50F4CD4E9001006
:10B14000884211D000EB80020C4800EB82018B7822
:10B150005BB130F822000831A3DF002804D1207948
:10B16000401C00F00700606010BD30F822008988A4
:10B170000022A1DFF1E70000F8590020D85F00208D
:10B1800070B50C4605464FF48E71FEF70EFE216A2F
:10B19000A068415C206A401C2062C5F81C1570BD87
:10B1A0001FB500228DF80020029181680191426153
:10B1B000D0E90012684690471FBD00001FB50A463F
:10B1C00001788DF8001041680191017A8DF808101E
:10B1D000C0680390044850F82210083850F8222024
:10B1E000684690471FBD00000C5A0020014901200D
:10B1F00008707047845A002010B588B00446202299
:10B200000E496846FBF702F906200090C01F019026
:10B21000029003904FF0EB7006900CB1084A00E0EA
:10B22000002269460748FDF795FC08B1FBF76CFE64
:10B230000448001F447008B010BD000024B802008C
:10B24000EDB10200885A00202DE9FF470C46054663
:10B250004FF40071FEF7AFFD01274FF4017800268F
:10B2600018B34FF4927949462846FEF799FDE0B1AC
:10B2700049462846FEF799FDC5F8088394F8290049
:10B2800000B96F6002208DF80000D5F88004C5F881
:10B2900080040390A0690290E0680190A661E661D5
:10B2A000D4E900126846904728E004212846FEF7BA
:10B2B00082FD18B34FF484712846FEF771FDE8B1A2
:10B2C00021462846FFF7B4FC616AA069884215D17F
:10B2D000E06938B1E268616AA0612069E66166628E
:10B2E000E06008E094F8290000B96F60C5F80883B1
:10B2F000A661E268616A2046FFF7B3FC4FF48E78DE
:10B3000041462846FEF74CFD78B1206A61698842C3
:10B3100002D294F8280020B341462846FEF745FDA6
:10B32000616911B12046FFF73BFF4FF4A278414617
:10B330002846FEF735FD002818D041462846FEF77E
:10B3400034FD94F8290000B12F60A06900280DD0C9
:10B35000A661E268616A04B02046BDE8F047FFF7E5
:10B3600080BC21462846FFF70BFFDEE7BDE8FF87DC
:10B370001FB50A4601788DF8001041680191017AE5
:10B380008DF80810C0680390044850F8221008385F
:10B3900050F82220684690471FBD00000C5A00203C
:10B3A0002DE9FF410C464FF4927705463946FEF7EA
:10B3B00008FD0026C0B139462846FEF707FD0220E9
:10B3C0008DF80000D5F88004C5F880040390D5F806
:10B3D0003C058DF80800E0680190A661E661D4E9BB
:10B3E00000126846904723E04FF488773946284694
:10B3F000FEF7E7FCE0B139462846FEF7E7FCD5F852
:10B400003C15A069884213D1E06960B1E268D5F8C3
:10B41000000220F02000C5F80002E069A061206968
:10B42000E661E06001E0A661E2682046FFF724FCE7
:10B430004FF4A27739462846FEF7C3FC60B139467F
:10B440002846FEF7C3FCA06930B1A661D5F83C15CB
:10B450002046E268FFF710FC4FF490773946284603
:10B46000FEF7AFFC002813D039462846FEF7AEFCA5
:10B47000606900280CD0D5F84C058DF800608DF877
:10B480000800A06801906661D4E900126846904700
:10B49000BDE8FF812DE9F05F8346DDE90A4A994660
:10B4A00090460D460846012703E000BFB0FBF8F0C8
:10B4B0007F1C4045FAD2B94500D94F465FEACA70B1
:10B4C00012D18CB15FEA8A7002D5B9F1000F01D0B8
:10B4D000202607E0302605E031465846641EFCF77A
:10B4E0007BFA0CB1A742F7D35FF00106B9F1010F67
:10B4F00002D9A9F1010903E0B5FBF6F0404502D3FA
:10B5000006FB08F6F2E7DFF83C9000BFB5FBF6F06B
:10B5100000FB165519F800105846FCF75DFAB6FB0B
:10B52000F8F6002EF2D15FEACA7009D0002C07D0DD
:10B53000A74205D220215846641EFCF74DFAF5E7D4
:10B54000BDE8F09F76B602000A494A788B78521C13
:10B55000D2B2934200D100220B78934201D1002055
:10B5600070470270487800EB400001EBC000001DFE
:10B57000704700006861002000000000000000002B
:10B580000338FDD870470C001000000090014E6F8A
:10B59000726469635F426C696E6B79000001A000A0
:10B5A000500000000000000000000D0E0F100B0CFA
:10B5B0001819000001000000000000000000000059
:10B5C000000000000000000000000000000000007B
:10B5D000000000000000000000000000000000006B
:10B5E000000000000000000000000000000000005B
:10B5F000000000000000000000000000000000004B
:10B60000000000000000000000000000000000003A
:10B61000000000000000000000000000000000002A
:10B62000000000000000000000000000000000001A
:10B63000770A000000000000770A00000000000008
:10B640007ADA00000000000023D1BCEA5F782315FD
:10B65000DEEF121200000000000000500003005056
:10B6600009A1020065A30200030000004861002058
:10B670000338FDD8704730313233343536373839F6
:10B6800041424344454600005C5A0020001000003F
:10B6900004000000010000000000000000000000A5
:10B6A000000000000000000000000000000000009A
:10B6B00098B60200B0B6020004000000556E6B6E32
:10B6C0006F776E206572726F7220636F6465000021
:10B6D000000000008CBD02000100000038BC020028
:10B6E000020000002CBA020003000000ACBC020003
:10B6F0000400000000BD020005000000E0BB0200E5
:10B70000060000007CBB020007000000E8BC02004D
:10B7100008000000F4BB02000900000058BC020051
:10B720000A00000074BD02000B00000014BA020001
:10B730000C0000000CBC02000D000000DCBD02008B
:10B740000E000000D8BC02000F00000014BD020073
:10B750001000000048BD020011000000F0BD020012
:10B7600012000000C4BD02001300000060BD020012
:10B770008000000094BB020081000000D0BA0200EB
:10B780008200000090BA02008300000070BA02003C
:10B7900084000000ACBA020085000000B8BB0200C3
:10B7A00086000000C0BC0200900000005CBB0200EC
:10B7B0009100000050BA02009200000020BC02007C
:10B7C0000082000028BD02000182000074BC02005B
:10B7D0000282000090BC020000840000ECBA02006B
:10B7E0000184000098BD02000284000034BB020006
:10B7F0000384000010BB0200E5910200E391020007
:10B80000DD910200000000000000000000000000C8
:10B810000338FDD870470000F9920200CD92020073
:10B82000C5920200FFFFFFFFFFFFFFFFFFFFFFFFCB
:10B83000FFFFFFFF00000000000000000000D60135
:10B840000701000008C2020010C202000000000050
:10B85000000000000100000744B8020054B80200D4
:10B86000080000007CB802008CB80200080000004C
:10B870008CB802009CB802000800000030C2020030
:10B8800040C20200000000000000000020C20200D0
:10B8900030C20200000000000000000068C1020089
:10B8A00070C1020070C10200C0C10200C0C102002C
:10B8B00000C2020000C2020008C202006843002069
:10B8C0009CB80200BCB802000800000010C20200D0
:10B8D00020C202000000000000000000CCB80200FE
:10B8E000DCB80200080000000040404040404040FA
:10B8F0004040414141414140404040404040404043
:10B9000040404040404040404005020202020202E6
:10B910000202020202020202022020202020202035
:10B920002020200202020202020290909090909049
:10B930001010101010101010101010101010101007
:10B94000101010100202020202028888888888887B
:10B950000808080808080808080808080808080867
:10B96000080808080202020240000000E9B80200CC
:10B9700073645F626C655F6761705F646174615F6F
:10B980006C656E6774685F757064617465282920E2
:10B99000287265717565737429206F6E20636F6EF0
:10B9A0006E656374696F6E203078257820726574D7
:10B9B00075726E65642025732E0000005468652042
:10B9C00072657175657374656420636F6D62696E0D
:10B9D0006174696F6E206F6620545820616E642018
:10B9E0005258207061636B6574206C656E67746873
:10B9F0007320697320746F6F206C6F6E672062799B
:10BA0000202575206D6963726F7365636F6E647353
:10BA10002E0000004E52465F4552524F525F494E33
:10BA200056414C49445F4441544100004E52465FE8
:10BA30004552524F525F534F465444455649434531
:10BA40005F4E4F545F454E41424C4544000000005C
:10BA50004E52465F4552524F525F464541545552F1
:10BA6000455F4E4F545F454E41424C4544000000F7
:10BA70004E52465F4552524F525F4D555445585FA6
:10BA8000554E4C4F434B5F4641494C4544000000E6
:10BA90004E52465F4552524F525F4D555445585F86
:10BAA0004C4F434B5F4641494C4544004E52465F24
:10BAB0004552524F525F4D555445585F434F4E4487
:10BAC0005F494E49545F4641494C454400000000DF
:10BAD0004E52465F4552524F525F4D555445585F46
